{
	"data": {
		"bytecode": {
			"linkReferences": {},
			"object": "6080604052633b9aca00600355601280546001600160a01b03191673da3b641d438362c440ac5458c57e00a712b667001790557f8596b430971ac45bdf6088665b9ad8e8630c9d5049ab54b14dff711bee7c0e2660145560158054660100030007a1206001600160501b03199091161790553480156200007e57600080fd5b50604051620039ec380380620039ec833981016040819052620000a19162000271565b60125481906001600160a01b03163380600081620001065760405162461bcd60e51b815260206004820152601860248201527f43616e6e6f7420736574206f776e657220746f207a65726f000000000000000060448201526064015b60405180910390fd5b600080546001600160a01b0319166001600160a01b038481169190911790915581161562000139576200013981620001c6565b5050506001600160a01b038116620001645760405163d92e233d60e01b815260040160405180910390fd5b600280546001600160a01b039092166001600160a01b031992831617905560118054909116732514895c72f50d8bd4b4f9b1110f0d6bd2c9752617905542600455600160058190556006805460ff19169055601391909155601a55506200028b565b336001600160a01b03821603620002205760405162461bcd60e51b815260206004820152601760248201527f43616e6e6f74207472616e7366657220746f2073656c660000000000000000006044820152606401620000fd565b600180546001600160a01b0319166001600160a01b0383811691821790925560008054604051929316917fed8889f560326eb138920d842192f0eb3dd22b4f139c87a2c57538e05bae12789190a350565b6000602082840312156200028457600080fd5b5051919050565b613751806200029b6000396000f3fe60806040526004361061031a5760003560e01c806388ed5d64116101ab578063b933dcba116100f7578063dc65c84311610095578063ea5ab0ba1161006f578063ea5ab0ba1461099d578063f2fde38b146109b3578063f664e752146109d3578063fc2a88c3146109f357600080fd5b8063dc65c843146108d3578063dc7fe6a5146108e6578063e1bf07b71461090657600080fd5b8063c81d9217116100d1578063c81d921714610876578063cc957f2814610896578063d11532b7146108a9578063db2e21bc146108be57600080fd5b8063b933dcba14610821578063bc076f5214610829578063c3279f8f1461084957600080fd5b806395877f7811610164578063a4eb718c1161013e578063a4eb718c14610791578063a9ecbf69146107b1578063b0fb162f146107cb578063b2189cac1461080157600080fd5b806395877f78146107245780639d5c35ae146107445780639eccacf61461077157600080fd5b806388ed5d641461068a5780638a19c8bc146106a45780638ac00021146106ba5780638da5cb5b146106d05780638ea2d9ef146106ee5780638ea981171461070457600080fd5b806361edf9b21161026a57806375b26d21116102235780638456cb59116101fd5780638456cb591461061257806385705ad31461062757806387cc17b11461065557806388b2f7c31461068257600080fd5b806375b26d21146105a757806379ba5097146105d65780637ccfd7fc146105eb57600080fd5b806361edf9b2146104f957806363ecd0c314610519578063667640eb1461052f578063676c902f1461054f5780636a91da2b146105645780636e04ff0d1461057957600080fd5b80634585e33b116102d75780635c975abb116102b15780635c975abb146104715780635cbbd6351461048b5780635dc228a0146104a15780635ff2d2aa146104d957600080fd5b80634585e33b1461040d57806345bb327b1461042d5780634ac2a7411461045157600080fd5b80631706672a1461031f5780631fe543e31461036457806324f746971461038657806325d75795146103b85780632b09d310146103d85780633f4ba83a146103f8575b600080fd5b34801561032b57600080fd5b5061034f61033a366004612fd1565b60106020526000908152604090205460ff1681565b60405190151581526020015b60405180910390f35b34801561037057600080fd5b5061038461037f36600461302f565b610a09565b005b34801561039257600080fd5b506015546103a39063ffffffff1681565b60405163ffffffff909116815260200161035b565b3480156103c457600080fd5b506103846103d336600461307b565b610a5e565b3480156103e457600080fd5b506103846103f3366004612fd1565b610a79565b34801561040457600080fd5b50610384610ad6565b34801561041957600080fd5b506103846104283660046130a4565b610aea565b34801561043957600080fd5b5061044360145481565b60405190815260200161035b565b34801561045d57600080fd5b5061038461046c366004613116565b610ba0565b34801561047d57600080fd5b5060065461034f9060ff1681565b34801561049757600080fd5b5061044360045481565b3480156104ad57600080fd5b50600a546104c1906001600160a01b031681565b6040516001600160a01b03909116815260200161035b565b3480156104e557600080fd5b506103846104f43660046131d6565b610deb565b34801561050557600080fd5b50610384610514366004613202565b610e5d565b34801561052557600080fd5b5061044360035481565b34801561053b57600080fd5b5061038461054a36600461307b565b611108565b34801561055b57600080fd5b50610384611123565b34801561057057600080fd5b50610443611135565b34801561058557600080fd5b506105996105943660046130a4565b611228565b60405161035b929190613263565b3480156105b357600080fd5b506105c76105c2366004612fd1565b611249565b60405161035b939291906132c2565b3480156105e257600080fd5b50610384611393565b3480156105f757600080fd5b506015546103a3906601000000000000900463ffffffff1681565b34801561061e57600080fd5b5061038461143d565b34801561063357600080fd5b50610647610642366004612fd1565b611454565b60405161035b929190613331565b34801561066157600080fd5b50610443610670366004612fd1565b600b6020526000908152604090205481565b6103846115fa565b34801561069657600080fd5b5060175461034f9060ff1681565b3480156106b057600080fd5b5061044360055481565b3480156106c657600080fd5b5061044360135481565b3480156106dc57600080fd5b506000546001600160a01b03166104c1565b3480156106fa57600080fd5b5061044360095481565b34801561071057600080fd5b5061038461071f3660046131d6565b611679565b34801561073057600080fd5b5061038461073f3660046131d6565b61176b565b34801561075057600080fd5b5061076461075f366004612fd1565b6117eb565b60405161035b9190613392565b34801561077d57600080fd5b506002546104c1906001600160a01b031681565b34801561079d57600080fd5b506103846107ac3660046133a6565b611853565b3480156107bd57600080fd5b5060085461034f9060ff1681565b3480156107d757600080fd5b506015546107ee90640100000000900461ffff1681565b60405161ffff909116815260200161035b565b34801561080d57600080fd5b5061038461081c3660046133e2565b6118ba565b610384611a08565b34801561083557600080fd5b50610384610844366004612fd1565b611cf8565b34801561085557600080fd5b50610443610864366004612fd1565b600d6020526000908152604090205481565b34801561088257600080fd5b50610647610891366004612fd1565b611d55565b6103846108a43660046133e2565b611f3b565b3480156108b557600080fd5b5061044361202c565b3480156108ca57600080fd5b5061038461211a565b6103846108e1366004613202565b612254565b3480156108f257600080fd5b506104c1610901366004613475565b6125f3565b34801561091257600080fd5b50610962610921366004612fd1565b600e60205260009081526040902080546001820154600783015460088401546009850154600a860154600b909601549495939460ff90931693919290919087565b604080519788526020880196909652931515948601949094526060850191909152608084015260a083019190915260c082015260e00161035b565b3480156109a957600080fd5b5061044360075481565b3480156109bf57600080fd5b506103846109ce3660046131d6565b61263d565b3480156109df57600080fd5b506103846109ee3660046134aa565b61264e565b3480156109ff57600080fd5b5061044360165481565b6002546001600160a01b03163314610a4e5760025460405163073e64fd60e21b81523360048201526001600160a01b0390911660248201526044015b60405180910390fd5b610a59838383612712565b505050565b610a666128fc565b6008805460ff1916911515919091179055565b610a816128fc565b60008111610ad15760405162461bcd60e51b815260206004820152601760248201527f496e76616c696420737562736372697074696f6e2049440000000000000000006044820152606401610a45565b601355565b610ade6128fc565b6006805460ff19169055565b600a546001600160a01b03163314610b355760405162461bcd60e51b815260206004820152600e60248201526d139bdd08185d5d1a1bdc9a5e995960921b6044820152606401610a45565b60175460ff1615610b945760405162461bcd60e51b815260206004820152602360248201527f4472617720616c726561647920696e2070726f6772657373206f722070656e64604482015262696e6760e81b6064820152608401610a45565b610b9c61294f565b5050565b610ba86128fc565b6007548714610be95760405162461bcd60e51b815260206004820152600d60248201526c125b9d985b1a59081c9bdd5b99609a1b6044820152606401610a45565b60085460ff1615610c3c5760405162461bcd60e51b815260206004820152601960248201527f57696e6e65727320616c7265616479207375626d6974746564000000000000006044820152606401610a45565b600954421115610c8e5760405162461bcd60e51b815260206004820152601a60248201527f5375626d697373696f6e20646561646c696e65207061737365640000000000006044820152606401610a45565b6000878152600e60205260409020610caa600482018888612eb1565b50610cb9600582018686612eb1565b50610cc8600682018484612eb1565b5060648160010154600a610cdc91906134ea565b610ce69190613517565b60098201556001810154606490610cfe9060146134ea565b610d089190613517565b600a8201556001810154606490610d209060416134ea565b610d2a9190613517565b600b8201556001810154600090606490610d459060056134ea565b610d4f9190613517565b90506000879003610d6c576009820154610d69908261352b565b90505b6000859003610d8757600a820154610d84908261352b565b90505b6000839003610da257600b820154610d9f908261352b565b90505b6008808301829055805460ff1916600117905560405189907fee48f9a28712e5f0f17433fb01bf7f28c8c6a79eaf04a7f405eb34fa36b694f990600090a2505050505050505050565b610df36128fc565b6001600160a01b038116610e3b5760405162461bcd60e51b815260206004820152600f60248201526e496e76616c6964206164647265737360881b6044820152606401610a45565b600a80546001600160a01b0319166001600160a01b0392909216919091179055565b610e656128fc565b610e6d612ae5565b601b5460ff1615610ec05760405162461bcd60e51b815260206004820152601860248201527f446973747269627574696f6e20696e2070726f677265737300000000000000006044820152606401610a45565b601b805460ff1916600117905560085460ff16610f175760405162461bcd60e51b815260206004820152601560248201527415da5b9b995c9cc81b9bdd081cdd589b5a5d1d1959605a1b6044820152606401610a45565b600780546000908152600e602052604090209081015460ff1615610f7d5760405162461bcd60e51b815260206004820152601a60248201527f5072697a657320616c72656164792064697374726962757465640000000000006044820152606401610a45565b60008260ff16600314610fa7578260ff16600414610f9e5781600601610fac565b81600501610fac565b816004015b905060008360ff16600303610fc657506009820154610fe3565b8360ff16600403610fdc5750600a820154610fe3565b50600b8201545b8360ff166005036110295760078301805460ff191660011790556005805490600061100d8361353e565b90915550506008805460ff199081169091556017805490911690555b8154156110b557815460009061103f9083613517565b905060005b83548110156110b25783818154811061105f5761105f613557565b60009182526020822001546040516001600160a01b039091169184156108fc02918591818181858888f1935050505015801561109f573d6000803e3d6000fd5b50806110aa8161353e565b915050611044565b50505b601b805460ff1916905560075460405160ff861681527f07579876cf141b70e3bef48886191f214aa1ab0b2f1ecdbc8dcca466312aed7e9060200160405180910390a25050506111056001601a55565b50565b6111106128fc565b6017805460ff1916911515919091179055565b61112b6128fc565b61113361294f565b565b600080601160009054906101000a90046001600160a01b03166001600160a01b031663feaf968c6040518163ffffffff1660e01b815260040160a060405180830381865afa15801561118b573d6000803e3d6000fd5b505050506040513d601f19601f820116820180604052508101906111af9190613587565b505050915050600081136111fd5760405162461bcd60e51b8152602060048201526015602482015274496e76616c696420424e422f55534420707269636560581b6044820152606401610a45565b8060006a52b7d2dcc80cd2e400000061121683476134ea565b6112209190613517565b949350505050565b60175460408051602081019091526000815260ff90911615905b9250929050565b60608060606000600e60008681526020019081526020016000209050806004018160050182600601828054806020026020016040519081016040528092919081815260200182805480156112c657602002820191906000526020600020905b81546001600160a01b031681526001909101906020018083116112a8575b505050505092508180548060200260200160405190810160405280929190818152602001828054801561132257602002820191906000526020600020905b81546001600160a01b03168152600190910190602001808311611304575b505050505091508080548060200260200160405190810160405280929190818152602001828054801561137e57602002820191906000526020600020905b81546001600160a01b03168152600190910190602001808311611360575b50505050509050935093509350509193909250565b6001546001600160a01b031633146113e65760405162461bcd60e51b815260206004820152601660248201527526bab9ba10313290383937b837b9b2b21037bbb732b960511b6044820152606401610a45565b60008054336001600160a01b0319808316821784556001805490911690556040516001600160a01b0390921692909183917f8be0079c531659141344cd1fd0a4f28419497f9722a3daafe3b4186f6b6457e091a350565b6114456128fc565b6006805460ff19166001179055565b6000818152600e60205260409020600381015460609182918067ffffffffffffffff811115611485576114856133cc565b6040519080825280602002602001820160405280156114ae578160200160208202803683370190505b5093508067ffffffffffffffff8111156114ca576114ca6133cc565b60405190808252806020026020018201604052801561150357816020015b6114f0612f14565b8152602001906001900390816114e85790505b50925060005b818110156115f257600083600301828154811061152857611528613557565b60009182526020909120600290910201805487519192506001600160a01b03169087908490811061155b5761155b613557565b6001600160a01b0392909216602092830291909101909101526040805160a0810191829052906001830190600590826000855b825461010083900a900460ff1681526020600192830181810494850194909303909202910180841161158e57905050505050508583815181106115d3576115d3613557565b60200260200101819052505080806115ea9061353e565b915050611509565b505050915091565b6116026128fc565b600034116116425760405162461bcd60e51b815260206004820152600d60248201526c26bab9ba1039b2b7321021272160991b6044820152606401610a45565b60405134815233907fd3da04b9295b0265da4cd8d1d9ea4f3bb84775e17288a007301f7193865b18189060200160405180910390a2565b6000546001600160a01b0316331480159061169f57506002546001600160a01b03163314155b156116f057336116b76000546001600160a01b031690565b60025460405163061db9c160e01b81526001600160a01b0393841660048201529183166024830152919091166044820152606401610a45565b6001600160a01b0381166117175760405163d92e233d60e01b815260040160405180910390fd5b600280546001600160a01b0319166001600160a01b0383169081179091556040519081527fd1a6a14209a385a964d036e404cb5cfb71f4000cdb03c9366292430787261be69060200160405180910390a150565b6117736128fc565b6001600160a01b0381166117c95760405162461bcd60e51b815260206004820152601a60248201527f496e76616c6964207072696365206665656420616464726573730000000000006044820152606401610a45565b601180546001600160a01b0319166001600160a01b0392909216919091179055565b6117f3612f14565b6000828152600e6020526040808220815160a0810192839052926002909101916005918390855b825461010083900a900460ff1681526020600192830181810494850194909303909202910180841161181a575094979650505050505050565b61185b6128fc565b620186a08163ffffffff16101561189e5760405162461bcd60e51b8152602060048201526007602482015266546f6f206c6f7760c81b6044820152606401610a45565b6015805463ffffffff191663ffffffff92909216919091179055565b6118c26128fc565b6118cb81612b3e565b6119175760405162461bcd60e51b815260206004820152601760248201527f496e76616c69642077696e6e696e67206e756d626572730000000000000000006044820152606401610a45565b60178054600160ff19918216811790925560058054600090815260106020908152604080832080549095168617909455825460078190558252600e905282812047940193909355805483529120611975916002909101908390612f32565b506005546000908152600e60205260409020429081905561199890610e1061352b565b600955426004556005546040517fe4873708e4fc11619230dd3506a5f7cb96ece9d6d7b1c2ea9e7c46dac3f10baa90600090a26104d27f27f7a4cfb91dd4db4b9c99df04f38bd5bf8effa9b1ef1dc67f92c0d087029cd5826040516119fd9190613392565b60405180910390a250565b60065460ff1615611a2b5760405162461bcd60e51b8152600401610a45906135d7565b60055460009081526010602052604090205460ff1615611a5d5760405162461bcd60e51b8152600401610a4590613603565b611a6561202c565b3414611a835760405162461bcd60e51b8152600401610a4590613629565b6000611a8d612c16565b90506000611a9c600a34613517565b90506000611ab26000546001600160a01b031690565b6001600160a01b03168260405160006040518083038185875af1925050503d8060008114611afc576040519150601f19603f3d011682016040523d82523d6000602084013e611b01565b606091505b5050905080611b4d5760405162461bcd60e51b8152602060048201526018602482015277151c985b9cd9995c881d1bc81bdddb995c8819985a5b195960421b6044820152606401610a45565b6040805180820182523381526020808201868152600580546000908152600e845294852060030180546001808201835591875293909520845160029094020180546001600160a01b0319166001600160a01b03909416939093178355905192938493611bbc9291840191612f32565b5050600580546000908152600f602090815260408083203384528252822080546001808201835591845292829020865160029094020180546001600160a01b0319166001600160a01b03909416939093178355908501518594509192611c26929184019190612f32565b50506005546000908152600b602052604081208054925090611c478361353e565b90915550506005546000908152600c6020908152604080832033845290915290205460ff16611cb557600580546000908152600c602090815260408083203384528252808320805460ff1916600117905592548252600d9052908120805491611caf8361353e565b91905055505b60055460405133917f3898084b2129dd1eefb522db8ed9fb6801a5b24dd6656f98ddffcf157174ae4591611cea918891613657565b60405180910390a250505050565b611d006128fc565b60008111611d505760405162461bcd60e51b815260206004820152601c60248201527f5072696365206d7573742062652067726561746572207468616e2030000000006044820152606401610a45565b600355565b6000818152600f6020908152604080832033845290915290205460609081908067ffffffffffffffff811115611d8d57611d8d6133cc565b604051908082528060200260200182016040528015611db6578160200160208202803683370190505b5092508067ffffffffffffffff811115611dd257611dd26133cc565b604051908082528060200260200182016040528015611e0b57816020015b611df8612f14565b815260200190600190039081611df05790505b50915060005b81811015611f34576000858152600f602090815260408083203384529091528120805483908110611e4457611e44613557565b6000918252602091829020604080518082018252600290930290910180546001600160a01b03168352815160a0810190925291928301906001830160058282826020028201916000905b825461010083900a900460ff16815260206001928301818104948501949093039092029101808411611e8e57905050505050508152505090508060000151858381518110611ede57611ede613557565b60200260200101906001600160a01b031690816001600160a01b0316815250508060200151848381518110611f1557611f15613557565b6020026020010181905250508080611f2c9061353e565b915050611e11565b5050915091565b60065460ff1615611f5e5760405162461bcd60e51b8152600401610a45906135d7565b60055460009081526010602052604090205460ff1615611f905760405162461bcd60e51b8152600401610a4590613603565b611f9861202c565b3414611fb65760405162461bcd60e51b8152600401610a4590613629565b611fbf81612b3e565b61201f5760405162461bcd60e51b815260206004820152602b60248201527f4e756d62657273206d75737420626520756e6971756520616e6420626574776560448201526a0656e203120616e642035360ac1b6064820152608401610a45565b6000611a9c600a34613517565b600080601160009054906101000a90046001600160a01b03166001600160a01b031663feaf968c6040518163ffffffff1660e01b815260040160a060405180830381865afa158015612082573d6000803e3d6000fd5b505050506040513d601f19601f820116820180604052508101906120a69190613587565b505050915050600081136120f05760405162461bcd60e51b8152602060048201526011602482015270496e76616c696420424e4220707269636560781b6044820152606401610a45565b6003548190819061210990670de0b6b3a76400006134ea565b6121139190613517565b9250505090565b6121226128fc565b47806121675760405162461bcd60e51b81526020600482015260146024820152734e6f2066756e647320746f20776974686472617760601b6044820152606401610a45565b600080546040516001600160a01b039091169083908381818185875af1925050503d80600081146121b4576040519150601f19603f3d011682016040523d82523d6000602084013e6121b9565b606091505b50509050806121fc5760405162461bcd60e51b815260206004820152600f60248201526e151c985b9cd9995c8819985a5b1959608a1b6044820152606401610a45565b7f418aae9de8f7ab4df1c137475770ff373eb33fd62a060544e9f4fc90f3cdb1a4826122306000546001600160a01b031690565b604080519283526001600160a01b0390911660208301520160405180910390a15050565b60065460ff16156122775760405162461bcd60e51b8152600401610a45906135d7565b60055460009081526010602052604090205460ff16156122a95760405162461bcd60e51b8152600401610a4590613603565b60018160ff16101580156122c15750600a8160ff1611155b6123175760405162461bcd60e51b815260206004820152602160248201527f4d75737420627579206265747765656e203120616e64203130207469636b65746044820152607360f81b6064820152608401610a45565b600061232161202c565b9050600061233260ff8416836134ea565b90508034146123535760405162461bcd60e51b8152600401610a4590613629565b6000612360600a34613517565b905060006123766000546001600160a01b031690565b6001600160a01b03168260405160006040518083038185875af1925050503d80600081146123c0576040519150601f19603f3d011682016040523d82523d6000602084013e6123c5565b606091505b50509050806124115760405162461bcd60e51b8152602060048201526018602482015277151c985b9cd9995c881d1bc81bdddb995c8819985a5b195960421b6044820152606401610a45565b60005b8560ff168160ff16101561258257600061242c612c16565b6040805180820182523381526020808201848152600580546000908152600e845294852060030180546001808201835591875293909520845160029094020180546001600160a01b0319166001600160a01b0390941693909317835590519495509193849391926124a09284019190612f32565b5050600580546000908152600f602090815260408083203384528252822080546001808201835591845292829020865160029094020180546001600160a01b0319166001600160a01b0390941693909317835590850151859450919261250a929184019190612f32565b50506005546000908152600b60205260408120805492509061252b8361353e565b909155505060055460405133917f3898084b2129dd1eefb522db8ed9fb6801a5b24dd6656f98ddffcf157174ae4591612565918691613657565b60405180910390a25050808061257a90613672565b915050612414565b506005546000908152600c6020908152604080832033845290915290205460ff166125ec57600580546000908152600c602090815260408083203384528252808320805460ff1916600117905592548252600d90529081208054916125e68361353e565b91905055505b5050505050565b600f602052826000526040600020602052816000526040600020818154811061261b57600080fd5b60009182526020909120600290910201546001600160a01b0316925083915050565b6126456128fc565b61110581612d97565b6126566128fc565b6001600160a01b0382166126ac5760405162461bcd60e51b815260206004820152601b60248201527f496e76616c696420636f6f7264696e61746f72206164647265737300000000006044820152606401610a45565b806126ec5760405162461bcd60e51b815260206004820152601060248201526f092dcecc2d8d2c840d6caf240d0c2e6d60831b6044820152606401610a45565b601280546001600160a01b0319166001600160a01b039390931692909217909155601455565b60175460ff166127565760405162461bcd60e51b815260206004820152600f60248201526e4e6f20647261772070656e64696e6760881b6044820152606401610a45565b61275e612f14565b60008383600081811061277357612773613557565b90506020020135905060005b60058160ff161015612874576000612798603284613691565b6127a390600161352b565b90506000805b8360ff168110156127f2578260ff168682600581106127ca576127ca613557565b602002015160ff16036127e057600191506127f2565b806127ea8161353e565b9150506127a9565b50806128295781858460ff166005811061280e5761280e613557565b60ff90921660209290920201528261282581613672565b9350505b838360405160200161285292919091825260f81b6001600160f81b031916602082015260210190565b6040516020818303038152906040528051906020012060001c9350505061277f565b6007546000908152600e6020526040902061289490600201846005612f32565b506007546000908152600e6020526040902042908190556128b790610e1061352b565b60095560405186907f27f7a4cfb91dd4db4b9c99df04f38bd5bf8effa9b1ef1dc67f92c0d087029cd5906128ec908690613392565b60405180910390a2505050505050565b6000546001600160a01b031633146111335760405162461bcd60e51b815260206004820152601660248201527527b7363c9031b0b63630b1363290313c9037bbb732b960511b6044820152606401610a45565b60178054600160ff19918216811790925560058054600090815260106020908152604080832080549095168617909455915460078190558152600e82528290204790840155600254825160c081018452601454815260135481840152601554640100000000810461ffff168286015263ffffffff8082166060840152660100000000000090910416608082015283519283019093529281526001600160a01b0390921691639b1c385e919060a0820190612a0890612e40565b8152506040518263ffffffff1660e01b8152600401612a2791906136a5565b6020604051808303816000875af1158015612a46573d6000803e3d6000fd5b505050506040513d601f19601f82011682018060405250810190612a6a9190613702565b601681815560009182526018602052604080832080546001600160a01b031916331790559054905190917fdad2a728ac67e726695710e743bce88ea2aaf66ef5795abda5e24fa7b7750d5f91a26007546040517fe4873708e4fc11619230dd3506a5f7cb96ece9d6d7b1c2ea9e7c46dac3f10baa90600090a2565b6002601a5403612b375760405162461bcd60e51b815260206004820152601f60248201527f5265656e7472616e637947756172643a207265656e7472616e742063616c6c006044820152606401610a45565b6002601a55565b6000805b6005811015612c0d576001838260058110612b5f57612b5f613557565b602002015160ff161080612b8c57506032838260058110612b8257612b82613557565b602002015160ff16115b15612b9a5750600092915050565b60005b81811015612bfa57838160058110612bb757612bb7613557565b602002015160ff16848360058110612bd157612bd1613557565b602002015160ff1603612be8575060009392505050565b80612bf28161353e565b915050612b9d565b5080612c058161353e565b915050612b42565b50600192915050565b612c1e612f14565b6000804233601954604051602001612c5b9392919092835260609190911b6bffffffffffffffffffffffff19166020830152603482015260540190565b60408051601f198184030181529190528051602090910120601980549192506000612c858361353e565b91905055505b60058260ff161015612d92576000612ca4603283613691565b612caf90600161352b565b90506000805b8460ff168160ff161015612d04578260ff16868260ff1660058110612cdc57612cdc613557565b602002015160ff1603612cf25760019150612d04565b80612cfc81613672565b915050612cb5565b5080612d3b5781858560ff1660058110612d2057612d20613557565b60ff909216602092909202015283612d3781613672565b9450505b8284601954604051602001612d709392919092835260f89190911b6001600160f81b0319166020830152602182015260410190565b6040516020818303038152906040528051906020012060001c92505050612c8b565b505090565b336001600160a01b03821603612def5760405162461bcd60e51b815260206004820152601760248201527f43616e6e6f74207472616e7366657220746f2073656c660000000000000000006044820152606401610a45565b600180546001600160a01b0319166001600160a01b0383811691821790925560008054604051929316917fed8889f560326eb138920d842192f0eb3dd22b4f139c87a2c57538e05bae12789190a350565b60607f92fd13387c7fe7befbc38d303d6468778fb9731bc4583f17d92989c6fcfdeaaa82604051602401612e7991511515815260200190565b60408051601f198184030181529190526020810180516001600160e01b03166001600160e01b03199093169290921790915292915050565b828054828255906000526020600020908101928215612f04579160200282015b82811115612f045781546001600160a01b0319166001600160a01b03843516178255602090920191600190910190612ed1565b50612f10929150612fbc565b5090565b6040518060a001604052806005906020820280368337509192915050565b600183019183908215612f045791602002820160005b83821115612f8657835183826101000a81548160ff021916908360ff1602179055509260200192600101602081600001049283019260010302612f48565b8015612fb35782816101000a81549060ff0219169055600101602081600001049283019260010302612f86565b5050612f109291505b5b80821115612f105760008155600101612fbd565b600060208284031215612fe357600080fd5b5035919050565b60008083601f840112612ffc57600080fd5b50813567ffffffffffffffff81111561301457600080fd5b6020830191508360208260051b850101111561124257600080fd5b60008060006040848603121561304457600080fd5b83359250602084013567ffffffffffffffff81111561306257600080fd5b61306e86828701612fea565b9497909650939450505050565b60006020828403121561308d57600080fd5b8135801515811461309d57600080fd5b9392505050565b600080602083850312156130b757600080fd5b823567ffffffffffffffff808211156130cf57600080fd5b818501915085601f8301126130e357600080fd5b8135818111156130f257600080fd5b86602082850101111561310457600080fd5b60209290920196919550909350505050565b60008060008060008060006080888a03121561313157600080fd5b87359650602088013567ffffffffffffffff8082111561315057600080fd5b61315c8b838c01612fea565b909850965060408a013591508082111561317557600080fd5b6131818b838c01612fea565b909650945060608a013591508082111561319a57600080fd5b506131a78a828b01612fea565b989b979a50959850939692959293505050565b80356001600160a01b03811681146131d157600080fd5b919050565b6000602082840312156131e857600080fd5b61309d826131ba565b803560ff811681146131d157600080fd5b60006020828403121561321457600080fd5b61309d826131f1565b6000815180845260005b8181101561324357602081850181015186830182015201613227565b506000602082860101526020601f19601f83011685010191505092915050565b8215158152604060208201526000611220604083018461321d565b600081518084526020808501945080840160005b838110156132b75781516001600160a01b031687529582019590820190600101613292565b509495945050505050565b6060815260006132d5606083018661327e565b82810360208401526132e7818661327e565b905082810360408401526132fb818561327e565b9695505050505050565b8060005b600581101561332b57815160ff16845260209384019390910190600101613309565b50505050565b604081526000613344604083018561327e565b82810360208481019190915284518083528582019282019060005b8181101561338557613372838651613305565b9383019360a0929092019160010161335f565b5090979650505050505050565b60a081016133a08284613305565b92915050565b6000602082840312156133b857600080fd5b813563ffffffff8116811461309d57600080fd5b634e487b7160e01b600052604160045260246000fd5b600060a082840312156133f457600080fd5b82601f83011261340357600080fd5b60405160a0810181811067ffffffffffffffff8211171561343457634e487b7160e01b600052604160045260246000fd5b6040528060a084018581111561344957600080fd5b845b8181101561346a5761345c816131f1565b83526020928301920161344b565b509195945050505050565b60008060006060848603121561348a57600080fd5b8335925061349a602085016131ba565b9150604084013590509250925092565b600080604083850312156134bd57600080fd5b6134c6836131ba565b946020939093013593505050565b634e487b7160e01b600052601160045260246000fd5b80820281158282048414176133a0576133a06134d4565b634e487b7160e01b600052601260045260246000fd5b60008261352657613526613501565b500490565b808201808211156133a0576133a06134d4565b600060018201613550576135506134d4565b5060010190565b634e487b7160e01b600052603260045260246000fd5b805169ffffffffffffffffffff811681146131d157600080fd5b600080600080600060a0868803121561359f57600080fd5b6135a88661356d565b94506020860151935060408601519250606086015191506135cb6080870161356d565b90509295509295909350565b60208082526012908201527110dbdb9d1c9858dd081a5cc81c185d5cd95960721b604082015260600190565b6020808252600c908201526b149bdd5b99081b1bd8dad95960a21b604082015260600190565b602080825260149082015273125b98dbdc9c9958dd0810939088185b5bdd5b9d60621b604082015260600190565b60c081016136658285613305565b8260a08301529392505050565b600060ff821660ff8103613688576136886134d4565b60010192915050565b6000826136a0576136a0613501565b500690565b60208152815160208201526020820151604082015261ffff60408301511660608201526000606083015163ffffffff80821660808501528060808601511660a0850152505060a083015160c08084015261122060e084018261321d565b60006020828403121561371457600080fd5b505191905056fea26469706673582212201bfdfd4a21ec08aa0aa66f64606075f34536beb6132a6169c7d6c343fe7b62c564736f6c63430008130033",
			"opcodes": "PUSH1 0x80 PUSH1 0x40 MSTORE PUSH4 0x3B9ACA00 PUSH1 0x3 SSTORE PUSH1 0x12 DUP1 SLOAD PUSH1 0x1 PUSH1 0x1 PUSH1 0xA0 SHL SUB NOT AND PUSH20 0xDA3B641D438362C440AC5458C57E00A712B66700 OR SWAP1 SSTORE PUSH32 0x8596B430971AC45BDF6088665B9AD8E8630C9D5049AB54B14DFF711BEE7C0E26 PUSH1 0x14 SSTORE PUSH1 0x15 DUP1 SLOAD PUSH7 0x100030007A120 PUSH1 0x1 PUSH1 0x1 PUSH1 0x50 SHL SUB NOT SWAP1 SWAP2 AND OR SWAP1 SSTORE CALLVALUE DUP1 ISZERO PUSH3 0x7E JUMPI PUSH1 0x0 DUP1 REVERT JUMPDEST POP PUSH1 0x40 MLOAD PUSH3 0x39EC CODESIZE SUB DUP1 PUSH3 0x39EC DUP4 CODECOPY DUP2 ADD PUSH1 0x40 DUP2 SWAP1 MSTORE PUSH3 0xA1 SWAP2 PUSH3 0x271 JUMP JUMPDEST PUSH1 0x12 SLOAD DUP2 SWAP1 PUSH1 0x1 PUSH1 0x1 PUSH1 0xA0 SHL SUB AND CALLER DUP1 PUSH1 0x0 DUP2 PUSH3 0x106 JUMPI PUSH1 0x40 MLOAD PUSH3 0x461BCD PUSH1 0xE5 SHL DUP2 MSTORE PUSH1 0x20 PUSH1 0x4 DUP3 ADD MSTORE PUSH1 0x18 PUSH1 0x24 DUP3 ADD MSTORE PUSH32 0x43616E6E6F7420736574206F776E657220746F207A65726F0000000000000000 PUSH1 0x44 DUP3 ADD MSTORE PUSH1 0x64 ADD JUMPDEST PUSH1 0x40 MLOAD DUP1 SWAP2 SUB SWAP1 REVERT JUMPDEST PUSH1 0x0 DUP1 SLOAD PUSH1 0x1 PUSH1 0x1 PUSH1 0xA0 SHL SUB NOT AND PUSH1 0x1 PUSH1 0x1 PUSH1 0xA0 SHL SUB DUP5 DUP2 AND SWAP2 SWAP1 SWAP2 OR SWAP1 SWAP2 SSTORE DUP2 AND ISZERO PUSH3 0x139 JUMPI PUSH3 0x139 DUP2 PUSH3 0x1C6 JUMP JUMPDEST POP POP POP PUSH1 0x1 PUSH1 0x1 PUSH1 0xA0 SHL SUB DUP2 AND PUSH3 0x164 JUMPI PUSH1 0x40 MLOAD PUSH4 0xD92E233D PUSH1 0xE0 SHL DUP2 MSTORE PUSH1 0x4 ADD PUSH1 0x40 MLOAD DUP1 SWAP2 SUB SWAP1 REVERT JUMPDEST PUSH1 0x2 DUP1 SLOAD PUSH1 0x1 PUSH1 0x1 PUSH1 0xA0 SHL SUB SWAP1 SWAP3 AND PUSH1 0x1 PUSH1 0x1 PUSH1 0xA0 SHL SUB NOT SWAP3 DUP4 AND OR SWAP1 SSTORE PUSH1 0x11 DUP1 SLOAD SWAP1 SWAP2 AND PUSH20 0x2514895C72F50D8BD4B4F9B1110F0D6BD2C97526 OR SWAP1 SSTORE TIMESTAMP PUSH1 0x4 SSTORE PUSH1 0x1 PUSH1 0x5 DUP2 SWAP1 SSTORE PUSH1 0x6 DUP1 SLOAD PUSH1 0xFF NOT AND SWAP1 SSTORE PUSH1 0x13 SWAP2 SWAP1 SWAP2 SSTORE PUSH1 0x1A SSTORE POP PUSH3 0x28B JUMP JUMPDEST CALLER PUSH1 0x1 PUSH1 0x1 PUSH1 0xA0 SHL SUB DUP3 AND SUB PUSH3 0x220 JUMPI PUSH1 0x40 MLOAD PUSH3 0x461BCD PUSH1 0xE5 SHL DUP2 MSTORE PUSH1 0x20 PUSH1 0x4 DUP3 ADD MSTORE PUSH1 0x17 PUSH1 0x24 DUP3 ADD MSTORE PUSH32 0x43616E6E6F74207472616E7366657220746F2073656C66000000000000000000 PUSH1 0x44 DUP3 ADD MSTORE PUSH1 0x64 ADD PUSH3 0xFD JUMP JUMPDEST PUSH1 0x1 DUP1 SLOAD PUSH1 0x1 PUSH1 0x1 PUSH1 0xA0 SHL SUB NOT AND PUSH1 0x1 PUSH1 0x1 PUSH1 0xA0 SHL SUB DUP4 DUP2 AND SWAP2 DUP3 OR SWAP1 SWAP3 SSTORE PUSH1 0x0 DUP1 SLOAD PUSH1 0x40 MLOAD SWAP3 SWAP4 AND SWAP2 PUSH32 0xED8889F560326EB138920D842192F0EB3DD22B4F139C87A2C57538E05BAE1278 SWAP2 SWAP1 LOG3 POP JUMP JUMPDEST PUSH1 0x0 PUSH1 0x20 DUP3 DUP5 SUB SLT ISZERO PUSH3 0x284 JUMPI PUSH1 0x0 DUP1 REVERT JUMPDEST POP MLOAD SWAP2 SWAP1 POP JUMP JUMPDEST PUSH2 0x3751 DUP1 PUSH3 0x29B PUSH1 0x0 CODECOPY PUSH1 0x0 RETURN INVALID PUSH1 0x80 PUSH1 0x40 MSTORE PUSH1 0x4 CALLDATASIZE LT PUSH2 0x31A JUMPI PUSH1 0x0 CALLDATALOAD PUSH1 0xE0 SHR DUP1 PUSH4 0x88ED5D64 GT PUSH2 0x1AB JUMPI DUP1 PUSH4 0xB933DCBA GT PUSH2 0xF7 JUMPI DUP1 PUSH4 0xDC65C843 GT PUSH2 0x95 JUMPI DUP1 PUSH4 0xEA5AB0BA GT PUSH2 0x6F JUMPI DUP1 PUSH4 0xEA5AB0BA EQ PUSH2 0x99D JUMPI DUP1 PUSH4 0xF2FDE38B EQ PUSH2 0x9B3 JUMPI DUP1 PUSH4 0xF664E752 EQ PUSH2 0x9D3 JUMPI DUP1 PUSH4 0xFC2A88C3 EQ PUSH2 0x9F3 JUMPI PUSH1 0x0 DUP1 REVERT JUMPDEST DUP1 PUSH4 0xDC65C843 EQ PUSH2 0x8D3 JUMPI DUP1 PUSH4 0xDC7FE6A5 EQ PUSH2 0x8E6 JUMPI DUP1 PUSH4 0xE1BF07B7 EQ PUSH2 0x906 JUMPI PUSH1 0x0 DUP1 REVERT JUMPDEST DUP1 PUSH4 0xC81D9217 GT PUSH2 0xD1 JUMPI DUP1 PUSH4 0xC81D9217 EQ PUSH2 0x876 JUMPI DUP1 PUSH4 0xCC957F28 EQ PUSH2 0x896 JUMPI DUP1 PUSH4 0xD11532B7 EQ PUSH2 0x8A9 JUMPI DUP1 PUSH4 0xDB2E21BC EQ PUSH2 0x8BE JUMPI PUSH1 0x0 DUP1 REVERT JUMPDEST DUP1 PUSH4 0xB933DCBA EQ PUSH2 0x821 JUMPI DUP1 PUSH4 0xBC076F52 EQ PUSH2 0x829 JUMPI DUP1 PUSH4 0xC3279F8F EQ PUSH2 0x849 JUMPI PUSH1 0x0 DUP1 REVERT JUMPDEST DUP1 PUSH4 0x95877F78 GT PUSH2 0x164 JUMPI DUP1 PUSH4 0xA4EB718C GT PUSH2 0x13E JUMPI DUP1 PUSH4 0xA4EB718C EQ PUSH2 0x791 JUMPI DUP1 PUSH4 0xA9ECBF69 EQ PUSH2 0x7B1 JUMPI DUP1 PUSH4 0xB0FB162F EQ PUSH2 0x7CB JUMPI DUP1 PUSH4 0xB2189CAC EQ PUSH2 0x801 JUMPI PUSH1 0x0 DUP1 REVERT JUMPDEST DUP1 PUSH4 0x95877F78 EQ PUSH2 0x724 JUMPI DUP1 PUSH4 0x9D5C35AE EQ PUSH2 0x744 JUMPI DUP1 PUSH4 0x9ECCACF6 EQ PUSH2 0x771 JUMPI PUSH1 0x0 DUP1 REVERT JUMPDEST DUP1 PUSH4 0x88ED5D64 EQ PUSH2 0x68A JUMPI DUP1 PUSH4 0x8A19C8BC EQ PUSH2 0x6A4 JUMPI DUP1 PUSH4 0x8AC00021 EQ PUSH2 0x6BA JUMPI DUP1 PUSH4 0x8DA5CB5B EQ PUSH2 0x6D0 JUMPI DUP1 PUSH4 0x8EA2D9EF EQ PUSH2 0x6EE JUMPI DUP1 PUSH4 0x8EA98117 EQ PUSH2 0x704 JUMPI PUSH1 0x0 DUP1 REVERT JUMPDEST DUP1 PUSH4 0x61EDF9B2 GT PUSH2 0x26A JUMPI DUP1 PUSH4 0x75B26D21 GT PUSH2 0x223 JUMPI DUP1 PUSH4 0x8456CB59 GT PUSH2 0x1FD JUMPI DUP1 PUSH4 0x8456CB59 EQ PUSH2 0x612 JUMPI DUP1 PUSH4 0x85705AD3 EQ PUSH2 0x627 JUMPI DUP1 PUSH4 0x87CC17B1 EQ PUSH2 0x655 JUMPI DUP1 PUSH4 0x88B2F7C3 EQ PUSH2 0x682 JUMPI PUSH1 0x0 DUP1 REVERT JUMPDEST DUP1 PUSH4 0x75B26D21 EQ PUSH2 0x5A7 JUMPI DUP1 PUSH4 0x79BA5097 EQ PUSH2 0x5D6 JUMPI DUP1 PUSH4 0x7CCFD7FC EQ PUSH2 0x5EB JUMPI PUSH1 0x0 DUP1 REVERT JUMPDEST DUP1 PUSH4 0x61EDF9B2 EQ PUSH2 0x4F9 JUMPI DUP1 PUSH4 0x63ECD0C3 EQ PUSH2 0x519 JUMPI DUP1 PUSH4 0x667640EB EQ PUSH2 0x52F JUMPI DUP1 PUSH4 0x676C902F EQ PUSH2 0x54F JUMPI DUP1 PUSH4 0x6A91DA2B EQ PUSH2 0x564 JUMPI DUP1 PUSH4 0x6E04FF0D EQ PUSH2 0x579 JUMPI PUSH1 0x0 DUP1 REVERT JUMPDEST DUP1 PUSH4 0x4585E33B GT PUSH2 0x2D7 JUMPI DUP1 PUSH4 0x5C975ABB GT PUSH2 0x2B1 JUMPI DUP1 PUSH4 0x5C975ABB EQ PUSH2 0x471 JUMPI DUP1 PUSH4 0x5CBBD635 EQ PUSH2 0x48B JUMPI DUP1 PUSH4 0x5DC228A0 EQ PUSH2 0x4A1 JUMPI DUP1 PUSH4 0x5FF2D2AA EQ PUSH2 0x4D9 JUMPI PUSH1 0x0 DUP1 REVERT JUMPDEST DUP1 PUSH4 0x4585E33B EQ PUSH2 0x40D JUMPI DUP1 PUSH4 0x45BB327B EQ PUSH2 0x42D JUMPI DUP1 PUSH4 0x4AC2A741 EQ PUSH2 0x451 JUMPI PUSH1 0x0 DUP1 REVERT JUMPDEST DUP1 PUSH4 0x1706672A EQ PUSH2 0x31F JUMPI DUP1 PUSH4 0x1FE543E3 EQ PUSH2 0x364 JUMPI DUP1 PUSH4 0x24F74697 EQ PUSH2 0x386 JUMPI DUP1 PUSH4 0x25D75795 EQ PUSH2 0x3B8 JUMPI DUP1 PUSH4 0x2B09D310 EQ PUSH2 0x3D8 JUMPI DUP1 PUSH4 0x3F4BA83A EQ PUSH2 0x3F8 JUMPI JUMPDEST PUSH1 0x0 DUP1 REVERT JUMPDEST CALLVALUE DUP1 ISZERO PUSH2 0x32B JUMPI PUSH1 0x0 DUP1 REVERT JUMPDEST POP PUSH2 0x34F PUSH2 0x33A CALLDATASIZE PUSH1 0x4 PUSH2 0x2FD1 JUMP JUMPDEST PUSH1 0x10 PUSH1 0x20 MSTORE PUSH1 0x0 SWAP1 DUP2 MSTORE PUSH1 0x40 SWAP1 KECCAK256 SLOAD PUSH1 0xFF AND DUP2 JUMP JUMPDEST PUSH1 0x40 MLOAD SWAP1 ISZERO ISZERO DUP2 MSTORE PUSH1 0x20 ADD JUMPDEST PUSH1 0x40 MLOAD DUP1 SWAP2 SUB SWAP1 RETURN JUMPDEST CALLVALUE DUP1 ISZERO PUSH2 0x370 JUMPI PUSH1 0x0 DUP1 REVERT JUMPDEST POP PUSH2 0x384 PUSH2 0x37F CALLDATASIZE PUSH1 0x4 PUSH2 0x302F JUMP JUMPDEST PUSH2 0xA09 JUMP JUMPDEST STOP JUMPDEST CALLVALUE DUP1 ISZERO PUSH2 0x392 JUMPI PUSH1 0x0 DUP1 REVERT JUMPDEST POP PUSH1 0x15 SLOAD PUSH2 0x3A3 SWAP1 PUSH4 0xFFFFFFFF AND DUP2 JUMP JUMPDEST PUSH1 0x40 MLOAD PUSH4 0xFFFFFFFF SWAP1 SWAP2 AND DUP2 MSTORE PUSH1 0x20 ADD PUSH2 0x35B JUMP JUMPDEST CALLVALUE DUP1 ISZERO PUSH2 0x3C4 JUMPI PUSH1 0x0 DUP1 REVERT JUMPDEST POP PUSH2 0x384 PUSH2 0x3D3 CALLDATASIZE PUSH1 0x4 PUSH2 0x307B JUMP JUMPDEST PUSH2 0xA5E JUMP JUMPDEST CALLVALUE DUP1 ISZERO PUSH2 0x3E4 JUMPI PUSH1 0x0 DUP1 REVERT JUMPDEST POP PUSH2 0x384 PUSH2 0x3F3 CALLDATASIZE PUSH1 0x4 PUSH2 0x2FD1 JUMP JUMPDEST PUSH2 0xA79 JUMP JUMPDEST CALLVALUE DUP1 ISZERO PUSH2 0x404 JUMPI PUSH1 0x0 DUP1 REVERT JUMPDEST POP PUSH2 0x384 PUSH2 0xAD6 JUMP JUMPDEST CALLVALUE DUP1 ISZERO PUSH2 0x419 JUMPI PUSH1 0x0 DUP1 REVERT JUMPDEST POP PUSH2 0x384 PUSH2 0x428 CALLDATASIZE PUSH1 0x4 PUSH2 0x30A4 JUMP JUMPDEST PUSH2 0xAEA JUMP JUMPDEST CALLVALUE DUP1 ISZERO PUSH2 0x439 JUMPI PUSH1 0x0 DUP1 REVERT JUMPDEST POP PUSH2 0x443 PUSH1 0x14 SLOAD DUP2 JUMP JUMPDEST PUSH1 0x40 MLOAD SWAP1 DUP2 MSTORE PUSH1 0x20 ADD PUSH2 0x35B JUMP JUMPDEST CALLVALUE DUP1 ISZERO PUSH2 0x45D JUMPI PUSH1 0x0 DUP1 REVERT JUMPDEST POP PUSH2 0x384 PUSH2 0x46C CALLDATASIZE PUSH1 0x4 PUSH2 0x3116 JUMP JUMPDEST PUSH2 0xBA0 JUMP JUMPDEST CALLVALUE DUP1 ISZERO PUSH2 0x47D JUMPI PUSH1 0x0 DUP1 REVERT JUMPDEST POP PUSH1 0x6 SLOAD PUSH2 0x34F SWAP1 PUSH1 0xFF AND DUP2 JUMP JUMPDEST CALLVALUE DUP1 ISZERO PUSH2 0x497 JUMPI PUSH1 0x0 DUP1 REVERT JUMPDEST POP PUSH2 0x443 PUSH1 0x4 SLOAD DUP2 JUMP JUMPDEST CALLVALUE DUP1 ISZERO PUSH2 0x4AD JUMPI PUSH1 0x0 DUP1 REVERT JUMPDEST POP PUSH1 0xA SLOAD PUSH2 0x4C1 SWAP1 PUSH1 0x1 PUSH1 0x1 PUSH1 0xA0 SHL SUB AND DUP2 JUMP JUMPDEST PUSH1 0x40 MLOAD PUSH1 0x1 PUSH1 0x1 PUSH1 0xA0 SHL SUB SWAP1 SWAP2 AND DUP2 MSTORE PUSH1 0x20 ADD PUSH2 0x35B JUMP JUMPDEST CALLVALUE DUP1 ISZERO PUSH2 0x4E5 JUMPI PUSH1 0x0 DUP1 REVERT JUMPDEST POP PUSH2 0x384 PUSH2 0x4F4 CALLDATASIZE PUSH1 0x4 PUSH2 0x31D6 JUMP JUMPDEST PUSH2 0xDEB JUMP JUMPDEST CALLVALUE DUP1 ISZERO PUSH2 0x505 JUMPI PUSH1 0x0 DUP1 REVERT JUMPDEST POP PUSH2 0x384 PUSH2 0x514 CALLDATASIZE PUSH1 0x4 PUSH2 0x3202 JUMP JUMPDEST PUSH2 0xE5D JUMP JUMPDEST CALLVALUE DUP1 ISZERO PUSH2 0x525 JUMPI PUSH1 0x0 DUP1 REVERT JUMPDEST POP PUSH2 0x443 PUSH1 0x3 SLOAD DUP2 JUMP JUMPDEST CALLVALUE DUP1 ISZERO PUSH2 0x53B JUMPI PUSH1 0x0 DUP1 REVERT JUMPDEST POP PUSH2 0x384 PUSH2 0x54A CALLDATASIZE PUSH1 0x4 PUSH2 0x307B JUMP JUMPDEST PUSH2 0x1108 JUMP JUMPDEST CALLVALUE DUP1 ISZERO PUSH2 0x55B JUMPI PUSH1 0x0 DUP1 REVERT JUMPDEST POP PUSH2 0x384 PUSH2 0x1123 JUMP JUMPDEST CALLVALUE DUP1 ISZERO PUSH2 0x570 JUMPI PUSH1 0x0 DUP1 REVERT JUMPDEST POP PUSH2 0x443 PUSH2 0x1135 JUMP JUMPDEST CALLVALUE DUP1 ISZERO PUSH2 0x585 JUMPI PUSH1 0x0 DUP1 REVERT JUMPDEST POP PUSH2 0x599 PUSH2 0x594 CALLDATASIZE PUSH1 0x4 PUSH2 0x30A4 JUMP JUMPDEST PUSH2 0x1228 JUMP JUMPDEST PUSH1 0x40 MLOAD PUSH2 0x35B SWAP3 SWAP2 SWAP1 PUSH2 0x3263 JUMP JUMPDEST CALLVALUE DUP1 ISZERO PUSH2 0x5B3 JUMPI PUSH1 0x0 DUP1 REVERT JUMPDEST POP PUSH2 0x5C7 PUSH2 0x5C2 CALLDATASIZE PUSH1 0x4 PUSH2 0x2FD1 JUMP JUMPDEST PUSH2 0x1249 JUMP JUMPDEST PUSH1 0x40 MLOAD PUSH2 0x35B SWAP4 SWAP3 SWAP2 SWAP1 PUSH2 0x32C2 JUMP JUMPDEST CALLVALUE DUP1 ISZERO PUSH2 0x5E2 JUMPI PUSH1 0x0 DUP1 REVERT JUMPDEST POP PUSH2 0x384 PUSH2 0x1393 JUMP JUMPDEST CALLVALUE DUP1 ISZERO PUSH2 0x5F7 JUMPI PUSH1 0x0 DUP1 REVERT JUMPDEST POP PUSH1 0x15 SLOAD PUSH2 0x3A3 SWAP1 PUSH7 0x1000000000000 SWAP1 DIV PUSH4 0xFFFFFFFF AND DUP2 JUMP JUMPDEST CALLVALUE DUP1 ISZERO PUSH2 0x61E JUMPI PUSH1 0x0 DUP1 REVERT JUMPDEST POP PUSH2 0x384 PUSH2 0x143D JUMP JUMPDEST CALLVALUE DUP1 ISZERO PUSH2 0x633 JUMPI PUSH1 0x0 DUP1 REVERT JUMPDEST POP PUSH2 0x647 PUSH2 0x642 CALLDATASIZE PUSH1 0x4 PUSH2 0x2FD1 JUMP JUMPDEST PUSH2 0x1454 JUMP JUMPDEST PUSH1 0x40 MLOAD PUSH2 0x35B SWAP3 SWAP2 SWAP1 PUSH2 0x3331 JUMP JUMPDEST CALLVALUE DUP1 ISZERO PUSH2 0x661 JUMPI PUSH1 0x0 DUP1 REVERT JUMPDEST POP PUSH2 0x443 PUSH2 0x670 CALLDATASIZE PUSH1 0x4 PUSH2 0x2FD1 JUMP JUMPDEST PUSH1 0xB PUSH1 0x20 MSTORE PUSH1 0x0 SWAP1 DUP2 MSTORE PUSH1 0x40 SWAP1 KECCAK256 SLOAD DUP2 JUMP JUMPDEST PUSH2 0x384 PUSH2 0x15FA JUMP JUMPDEST CALLVALUE DUP1 ISZERO PUSH2 0x696 JUMPI PUSH1 0x0 DUP1 REVERT JUMPDEST POP PUSH1 0x17 SLOAD PUSH2 0x34F SWAP1 PUSH1 0xFF AND DUP2 JUMP JUMPDEST CALLVALUE DUP1 ISZERO PUSH2 0x6B0 JUMPI PUSH1 0x0 DUP1 REVERT JUMPDEST POP PUSH2 0x443 PUSH1 0x5 SLOAD DUP2 JUMP JUMPDEST CALLVALUE DUP1 ISZERO PUSH2 0x6C6 JUMPI PUSH1 0x0 DUP1 REVERT JUMPDEST POP PUSH2 0x443 PUSH1 0x13 SLOAD DUP2 JUMP JUMPDEST CALLVALUE DUP1 ISZERO PUSH2 0x6DC JUMPI PUSH1 0x0 DUP1 REVERT JUMPDEST POP PUSH1 0x0 SLOAD PUSH1 0x1 PUSH1 0x1 PUSH1 0xA0 SHL SUB AND PUSH2 0x4C1 JUMP JUMPDEST CALLVALUE DUP1 ISZERO PUSH2 0x6FA JUMPI PUSH1 0x0 DUP1 REVERT JUMPDEST POP PUSH2 0x443 PUSH1 0x9 SLOAD DUP2 JUMP JUMPDEST CALLVALUE DUP1 ISZERO PUSH2 0x710 JUMPI PUSH1 0x0 DUP1 REVERT JUMPDEST POP PUSH2 0x384 PUSH2 0x71F CALLDATASIZE PUSH1 0x4 PUSH2 0x31D6 JUMP JUMPDEST PUSH2 0x1679 JUMP JUMPDEST CALLVALUE DUP1 ISZERO PUSH2 0x730 JUMPI PUSH1 0x0 DUP1 REVERT JUMPDEST POP PUSH2 0x384 PUSH2 0x73F CALLDATASIZE PUSH1 0x4 PUSH2 0x31D6 JUMP JUMPDEST PUSH2 0x176B JUMP JUMPDEST CALLVALUE DUP1 ISZERO PUSH2 0x750 JUMPI PUSH1 0x0 DUP1 REVERT JUMPDEST POP PUSH2 0x764 PUSH2 0x75F CALLDATASIZE PUSH1 0x4 PUSH2 0x2FD1 JUMP JUMPDEST PUSH2 0x17EB JUMP JUMPDEST PUSH1 0x40 MLOAD PUSH2 0x35B SWAP2 SWAP1 PUSH2 0x3392 JUMP JUMPDEST CALLVALUE DUP1 ISZERO PUSH2 0x77D JUMPI PUSH1 0x0 DUP1 REVERT JUMPDEST POP PUSH1 0x2 SLOAD PUSH2 0x4C1 SWAP1 PUSH1 0x1 PUSH1 0x1 PUSH1 0xA0 SHL SUB AND DUP2 JUMP JUMPDEST CALLVALUE DUP1 ISZERO PUSH2 0x79D JUMPI PUSH1 0x0 DUP1 REVERT JUMPDEST POP PUSH2 0x384 PUSH2 0x7AC CALLDATASIZE PUSH1 0x4 PUSH2 0x33A6 JUMP JUMPDEST PUSH2 0x1853 JUMP JUMPDEST CALLVALUE DUP1 ISZERO PUSH2 0x7BD JUMPI PUSH1 0x0 DUP1 REVERT JUMPDEST POP PUSH1 0x8 SLOAD PUSH2 0x34F SWAP1 PUSH1 0xFF AND DUP2 JUMP JUMPDEST CALLVALUE DUP1 ISZERO PUSH2 0x7D7 JUMPI PUSH1 0x0 DUP1 REVERT JUMPDEST POP PUSH1 0x15 SLOAD PUSH2 0x7EE SWAP1 PUSH5 0x100000000 SWAP1 DIV PUSH2 0xFFFF AND DUP2 JUMP JUMPDEST PUSH1 0x40 MLOAD PUSH2 0xFFFF SWAP1 SWAP2 AND DUP2 MSTORE PUSH1 0x20 ADD PUSH2 0x35B JUMP JUMPDEST CALLVALUE DUP1 ISZERO PUSH2 0x80D JUMPI PUSH1 0x0 DUP1 REVERT JUMPDEST POP PUSH2 0x384 PUSH2 0x81C CALLDATASIZE PUSH1 0x4 PUSH2 0x33E2 JUMP JUMPDEST PUSH2 0x18BA JUMP JUMPDEST PUSH2 0x384 PUSH2 0x1A08 JUMP JUMPDEST CALLVALUE DUP1 ISZERO PUSH2 0x835 JUMPI PUSH1 0x0 DUP1 REVERT JUMPDEST POP PUSH2 0x384 PUSH2 0x844 CALLDATASIZE PUSH1 0x4 PUSH2 0x2FD1 JUMP JUMPDEST PUSH2 0x1CF8 JUMP JUMPDEST CALLVALUE DUP1 ISZERO PUSH2 0x855 JUMPI PUSH1 0x0 DUP1 REVERT JUMPDEST POP PUSH2 0x443 PUSH2 0x864 CALLDATASIZE PUSH1 0x4 PUSH2 0x2FD1 JUMP JUMPDEST PUSH1 0xD PUSH1 0x20 MSTORE PUSH1 0x0 SWAP1 DUP2 MSTORE PUSH1 0x40 SWAP1 KECCAK256 SLOAD DUP2 JUMP JUMPDEST CALLVALUE DUP1 ISZERO PUSH2 0x882 JUMPI PUSH1 0x0 DUP1 REVERT JUMPDEST POP PUSH2 0x647 PUSH2 0x891 CALLDATASIZE PUSH1 0x4 PUSH2 0x2FD1 JUMP JUMPDEST PUSH2 0x1D55 JUMP JUMPDEST PUSH2 0x384 PUSH2 0x8A4 CALLDATASIZE PUSH1 0x4 PUSH2 0x33E2 JUMP JUMPDEST PUSH2 0x1F3B JUMP JUMPDEST CALLVALUE DUP1 ISZERO PUSH2 0x8B5 JUMPI PUSH1 0x0 DUP1 REVERT JUMPDEST POP PUSH2 0x443 PUSH2 0x202C JUMP JUMPDEST CALLVALUE DUP1 ISZERO PUSH2 0x8CA JUMPI PUSH1 0x0 DUP1 REVERT JUMPDEST POP PUSH2 0x384 PUSH2 0x211A JUMP JUMPDEST PUSH2 0x384 PUSH2 0x8E1 CALLDATASIZE PUSH1 0x4 PUSH2 0x3202 JUMP JUMPDEST PUSH2 0x2254 JUMP JUMPDEST CALLVALUE DUP1 ISZERO PUSH2 0x8F2 JUMPI PUSH1 0x0 DUP1 REVERT JUMPDEST POP PUSH2 0x4C1 PUSH2 0x901 CALLDATASIZE PUSH1 0x4 PUSH2 0x3475 JUMP JUMPDEST PUSH2 0x25F3 JUMP JUMPDEST CALLVALUE DUP1 ISZERO PUSH2 0x912 JUMPI PUSH1 0x0 DUP1 REVERT JUMPDEST POP PUSH2 0x962 PUSH2 0x921 CALLDATASIZE PUSH1 0x4 PUSH2 0x2FD1 JUMP JUMPDEST PUSH1 0xE PUSH1 0x20 MSTORE PUSH1 0x0 SWAP1 DUP2 MSTORE PUSH1 0x40 SWAP1 KECCAK256 DUP1 SLOAD PUSH1 0x1 DUP3 ADD SLOAD PUSH1 0x7 DUP4 ADD SLOAD PUSH1 0x8 DUP5 ADD SLOAD PUSH1 0x9 DUP6 ADD SLOAD PUSH1 0xA DUP7 ADD SLOAD PUSH1 0xB SWAP1 SWAP7 ADD SLOAD SWAP5 SWAP6 SWAP4 SWAP5 PUSH1 0xFF SWAP1 SWAP4 AND SWAP4 SWAP2 SWAP3 SWAP1 SWAP2 SWAP1 DUP8 JUMP JUMPDEST PUSH1 0x40 DUP1 MLOAD SWAP8 DUP9 MSTORE PUSH1 0x20 DUP9 ADD SWAP7 SWAP1 SWAP7 MSTORE SWAP4 ISZERO ISZERO SWAP5 DUP7 ADD SWAP5 SWAP1 SWAP5 MSTORE PUSH1 0x60 DUP6 ADD SWAP2 SWAP1 SWAP2 MSTORE PUSH1 0x80 DUP5 ADD MSTORE PUSH1 0xA0 DUP4 ADD SWAP2 SWAP1 SWAP2 MSTORE PUSH1 0xC0 DUP3 ADD MSTORE PUSH1 0xE0 ADD PUSH2 0x35B JUMP JUMPDEST CALLVALUE DUP1 ISZERO PUSH2 0x9A9 JUMPI PUSH1 0x0 DUP1 REVERT JUMPDEST POP PUSH2 0x443 PUSH1 0x7 SLOAD DUP2 JUMP JUMPDEST CALLVALUE DUP1 ISZERO PUSH2 0x9BF JUMPI PUSH1 0x0 DUP1 REVERT JUMPDEST POP PUSH2 0x384 PUSH2 0x9CE CALLDATASIZE PUSH1 0x4 PUSH2 0x31D6 JUMP JUMPDEST PUSH2 0x263D JUMP JUMPDEST CALLVALUE DUP1 ISZERO PUSH2 0x9DF JUMPI PUSH1 0x0 DUP1 REVERT JUMPDEST POP PUSH2 0x384 PUSH2 0x9EE CALLDATASIZE PUSH1 0x4 PUSH2 0x34AA JUMP JUMPDEST PUSH2 0x264E JUMP JUMPDEST CALLVALUE DUP1 ISZERO PUSH2 0x9FF JUMPI PUSH1 0x0 DUP1 REVERT JUMPDEST POP PUSH2 0x443 PUSH1 0x16 SLOAD DUP2 JUMP JUMPDEST PUSH1 0x2 SLOAD PUSH1 0x1 PUSH1 0x1 PUSH1 0xA0 SHL SUB AND CALLER EQ PUSH2 0xA4E JUMPI PUSH1 0x2 SLOAD PUSH1 0x40 MLOAD PUSH4 0x73E64FD PUSH1 0xE2 SHL DUP2 MSTORE CALLER PUSH1 0x4 DUP3 ADD MSTORE PUSH1 0x1 PUSH1 0x1 PUSH1 0xA0 SHL SUB SWAP1 SWAP2 AND PUSH1 0x24 DUP3 ADD MSTORE PUSH1 0x44 ADD JUMPDEST PUSH1 0x40 MLOAD DUP1 SWAP2 SUB SWAP1 REVERT JUMPDEST PUSH2 0xA59 DUP4 DUP4 DUP4 PUSH2 0x2712 JUMP JUMPDEST POP POP POP JUMP JUMPDEST PUSH2 0xA66 PUSH2 0x28FC JUMP JUMPDEST PUSH1 0x8 DUP1 SLOAD PUSH1 0xFF NOT AND SWAP2 ISZERO ISZERO SWAP2 SWAP1 SWAP2 OR SWAP1 SSTORE JUMP JUMPDEST PUSH2 0xA81 PUSH2 0x28FC JUMP JUMPDEST PUSH1 0x0 DUP2 GT PUSH2 0xAD1 JUMPI PUSH1 0x40 MLOAD PUSH3 0x461BCD PUSH1 0xE5 SHL DUP2 MSTORE PUSH1 0x20 PUSH1 0x4 DUP3 ADD MSTORE PUSH1 0x17 PUSH1 0x24 DUP3 ADD MSTORE PUSH32 0x496E76616C696420737562736372697074696F6E204944000000000000000000 PUSH1 0x44 DUP3 ADD MSTORE PUSH1 0x64 ADD PUSH2 0xA45 JUMP JUMPDEST PUSH1 0x13 SSTORE JUMP JUMPDEST PUSH2 0xADE PUSH2 0x28FC JUMP JUMPDEST PUSH1 0x6 DUP1 SLOAD PUSH1 0xFF NOT AND SWAP1 SSTORE JUMP JUMPDEST PUSH1 0xA SLOAD PUSH1 0x1 PUSH1 0x1 PUSH1 0xA0 SHL SUB AND CALLER EQ PUSH2 0xB35 JUMPI PUSH1 0x40 MLOAD PUSH3 0x461BCD PUSH1 0xE5 SHL DUP2 MSTORE PUSH1 0x20 PUSH1 0x4 DUP3 ADD MSTORE PUSH1 0xE PUSH1 0x24 DUP3 ADD MSTORE PUSH14 0x139BDD08185D5D1A1BDC9A5E9959 PUSH1 0x92 SHL PUSH1 0x44 DUP3 ADD MSTORE PUSH1 0x64 ADD PUSH2 0xA45 JUMP JUMPDEST PUSH1 0x17 SLOAD PUSH1 0xFF AND ISZERO PUSH2 0xB94 JUMPI PUSH1 0x40 MLOAD PUSH3 0x461BCD PUSH1 0xE5 SHL DUP2 MSTORE PUSH1 0x20 PUSH1 0x4 DUP3 ADD MSTORE PUSH1 0x23 PUSH1 0x24 DUP3 ADD MSTORE PUSH32 0x4472617720616C726561647920696E2070726F6772657373206F722070656E64 PUSH1 0x44 DUP3 ADD MSTORE PUSH3 0x696E67 PUSH1 0xE8 SHL PUSH1 0x64 DUP3 ADD MSTORE PUSH1 0x84 ADD PUSH2 0xA45 JUMP JUMPDEST PUSH2 0xB9C PUSH2 0x294F JUMP JUMPDEST POP POP JUMP JUMPDEST PUSH2 0xBA8 PUSH2 0x28FC JUMP JUMPDEST PUSH1 0x7 SLOAD DUP8 EQ PUSH2 0xBE9 JUMPI PUSH1 0x40 MLOAD PUSH3 0x461BCD PUSH1 0xE5 SHL DUP2 MSTORE PUSH1 0x20 PUSH1 0x4 DUP3 ADD MSTORE PUSH1 0xD PUSH1 0x24 DUP3 ADD MSTORE PUSH13 0x125B9D985B1A59081C9BDD5B99 PUSH1 0x9A SHL PUSH1 0x44 DUP3 ADD MSTORE PUSH1 0x64 ADD PUSH2 0xA45 JUMP JUMPDEST PUSH1 0x8 SLOAD PUSH1 0xFF AND ISZERO PUSH2 0xC3C JUMPI PUSH1 0x40 MLOAD PUSH3 0x461BCD PUSH1 0xE5 SHL DUP2 MSTORE PUSH1 0x20 PUSH1 0x4 DUP3 ADD MSTORE PUSH1 0x19 PUSH1 0x24 DUP3 ADD MSTORE PUSH32 0x57696E6E65727320616C7265616479207375626D697474656400000000000000 PUSH1 0x44 DUP3 ADD MSTORE PUSH1 0x64 ADD PUSH2 0xA45 JUMP JUMPDEST PUSH1 0x9 SLOAD TIMESTAMP GT ISZERO PUSH2 0xC8E JUMPI PUSH1 0x40 MLOAD PUSH3 0x461BCD PUSH1 0xE5 SHL DUP2 MSTORE PUSH1 0x20 PUSH1 0x4 DUP3 ADD MSTORE PUSH1 0x1A PUSH1 0x24 DUP3 ADD MSTORE PUSH32 0x5375626D697373696F6E20646561646C696E6520706173736564000000000000 PUSH1 0x44 DUP3 ADD MSTORE PUSH1 0x64 ADD PUSH2 0xA45 JUMP JUMPDEST PUSH1 0x0 DUP8 DUP2 MSTORE PUSH1 0xE PUSH1 0x20 MSTORE PUSH1 0x40 SWAP1 KECCAK256 PUSH2 0xCAA PUSH1 0x4 DUP3 ADD DUP9 DUP9 PUSH2 0x2EB1 JUMP JUMPDEST POP PUSH2 0xCB9 PUSH1 0x5 DUP3 ADD DUP7 DUP7 PUSH2 0x2EB1 JUMP JUMPDEST POP PUSH2 0xCC8 PUSH1 0x6 DUP3 ADD DUP5 DUP5 PUSH2 0x2EB1 JUMP JUMPDEST POP PUSH1 0x64 DUP2 PUSH1 0x1 ADD SLOAD PUSH1 0xA PUSH2 0xCDC SWAP2 SWAP1 PUSH2 0x34EA JUMP JUMPDEST PUSH2 0xCE6 SWAP2 SWAP1 PUSH2 0x3517 JUMP JUMPDEST PUSH1 0x9 DUP3 ADD SSTORE PUSH1 0x1 DUP2 ADD SLOAD PUSH1 0x64 SWAP1 PUSH2 0xCFE SWAP1 PUSH1 0x14 PUSH2 0x34EA JUMP JUMPDEST PUSH2 0xD08 SWAP2 SWAP1 PUSH2 0x3517 JUMP JUMPDEST PUSH1 0xA DUP3 ADD SSTORE PUSH1 0x1 DUP2 ADD SLOAD PUSH1 0x64 SWAP1 PUSH2 0xD20 SWAP1 PUSH1 0x41 PUSH2 0x34EA JUMP JUMPDEST PUSH2 0xD2A SWAP2 SWAP1 PUSH2 0x3517 JUMP JUMPDEST PUSH1 0xB DUP3 ADD SSTORE PUSH1 0x1 DUP2 ADD SLOAD PUSH1 0x0 SWAP1 PUSH1 0x64 SWAP1 PUSH2 0xD45 SWAP1 PUSH1 0x5 PUSH2 0x34EA JUMP JUMPDEST PUSH2 0xD4F SWAP2 SWAP1 PUSH2 0x3517 JUMP JUMPDEST SWAP1 POP PUSH1 0x0 DUP8 SWAP1 SUB PUSH2 0xD6C JUMPI PUSH1 0x9 DUP3 ADD SLOAD PUSH2 0xD69 SWAP1 DUP3 PUSH2 0x352B JUMP JUMPDEST SWAP1 POP JUMPDEST PUSH1 0x0 DUP6 SWAP1 SUB PUSH2 0xD87 JUMPI PUSH1 0xA DUP3 ADD SLOAD PUSH2 0xD84 SWAP1 DUP3 PUSH2 0x352B JUMP JUMPDEST SWAP1 POP JUMPDEST PUSH1 0x0 DUP4 SWAP1 SUB PUSH2 0xDA2 JUMPI PUSH1 0xB DUP3 ADD SLOAD PUSH2 0xD9F SWAP1 DUP3 PUSH2 0x352B JUMP JUMPDEST SWAP1 POP JUMPDEST PUSH1 0x8 DUP1 DUP4 ADD DUP3 SWAP1 SSTORE DUP1 SLOAD PUSH1 0xFF NOT AND PUSH1 0x1 OR SWAP1 SSTORE PUSH1 0x40 MLOAD DUP10 SWAP1 PUSH32 0xEE48F9A28712E5F0F17433FB01BF7F28C8C6A79EAF04A7F405EB34FA36B694F9 SWAP1 PUSH1 0x0 SWAP1 LOG2 POP POP POP POP POP POP POP POP POP JUMP JUMPDEST PUSH2 0xDF3 PUSH2 0x28FC JUMP JUMPDEST PUSH1 0x1 PUSH1 0x1 PUSH1 0xA0 SHL SUB DUP2 AND PUSH2 0xE3B JUMPI PUSH1 0x40 MLOAD PUSH3 0x461BCD PUSH1 0xE5 SHL DUP2 MSTORE PUSH1 0x20 PUSH1 0x4 DUP3 ADD MSTORE PUSH1 0xF PUSH1 0x24 DUP3 ADD MSTORE PUSH15 0x496E76616C69642061646472657373 PUSH1 0x88 SHL PUSH1 0x44 DUP3 ADD MSTORE PUSH1 0x64 ADD PUSH2 0xA45 JUMP JUMPDEST PUSH1 0xA DUP1 SLOAD PUSH1 0x1 PUSH1 0x1 PUSH1 0xA0 SHL SUB NOT AND PUSH1 0x1 PUSH1 0x1 PUSH1 0xA0 SHL SUB SWAP3 SWAP1 SWAP3 AND SWAP2 SWAP1 SWAP2 OR SWAP1 SSTORE JUMP JUMPDEST PUSH2 0xE65 PUSH2 0x28FC JUMP JUMPDEST PUSH2 0xE6D PUSH2 0x2AE5 JUMP JUMPDEST PUSH1 0x1B SLOAD PUSH1 0xFF AND ISZERO PUSH2 0xEC0 JUMPI PUSH1 0x40 MLOAD PUSH3 0x461BCD PUSH1 0xE5 SHL DUP2 MSTORE PUSH1 0x20 PUSH1 0x4 DUP3 ADD MSTORE PUSH1 0x18 PUSH1 0x24 DUP3 ADD MSTORE PUSH32 0x446973747269627574696F6E20696E2070726F67726573730000000000000000 PUSH1 0x44 DUP3 ADD MSTORE PUSH1 0x64 ADD PUSH2 0xA45 JUMP JUMPDEST PUSH1 0x1B DUP1 SLOAD PUSH1 0xFF NOT AND PUSH1 0x1 OR SWAP1 SSTORE PUSH1 0x8 SLOAD PUSH1 0xFF AND PUSH2 0xF17 JUMPI PUSH1 0x40 MLOAD PUSH3 0x461BCD PUSH1 0xE5 SHL DUP2 MSTORE PUSH1 0x20 PUSH1 0x4 DUP3 ADD MSTORE PUSH1 0x15 PUSH1 0x24 DUP3 ADD MSTORE PUSH21 0x15DA5B9B995C9CC81B9BDD081CDD589B5A5D1D1959 PUSH1 0x5A SHL PUSH1 0x44 DUP3 ADD MSTORE PUSH1 0x64 ADD PUSH2 0xA45 JUMP JUMPDEST PUSH1 0x7 DUP1 SLOAD PUSH1 0x0 SWAP1 DUP2 MSTORE PUSH1 0xE PUSH1 0x20 MSTORE PUSH1 0x40 SWAP1 KECCAK256 SWAP1 DUP2 ADD SLOAD PUSH1 0xFF AND ISZERO PUSH2 0xF7D JUMPI PUSH1 0x40 MLOAD PUSH3 0x461BCD PUSH1 0xE5 SHL DUP2 MSTORE PUSH1 0x20 PUSH1 0x4 DUP3 ADD MSTORE PUSH1 0x1A PUSH1 0x24 DUP3 ADD MSTORE PUSH32 0x5072697A657320616C7265616479206469737472696275746564000000000000 PUSH1 0x44 DUP3 ADD MSTORE PUSH1 0x64 ADD PUSH2 0xA45 JUMP JUMPDEST PUSH1 0x0 DUP3 PUSH1 0xFF AND PUSH1 0x3 EQ PUSH2 0xFA7 JUMPI DUP3 PUSH1 0xFF AND PUSH1 0x4 EQ PUSH2 0xF9E JUMPI DUP2 PUSH1 0x6 ADD PUSH2 0xFAC JUMP JUMPDEST DUP2 PUSH1 0x5 ADD PUSH2 0xFAC JUMP JUMPDEST DUP2 PUSH1 0x4 ADD JUMPDEST SWAP1 POP PUSH1 0x0 DUP4 PUSH1 0xFF AND PUSH1 0x3 SUB PUSH2 0xFC6 JUMPI POP PUSH1 0x9 DUP3 ADD SLOAD PUSH2 0xFE3 JUMP JUMPDEST DUP4 PUSH1 0xFF AND PUSH1 0x4 SUB PUSH2 0xFDC JUMPI POP PUSH1 0xA DUP3 ADD SLOAD PUSH2 0xFE3 JUMP JUMPDEST POP PUSH1 0xB DUP3 ADD SLOAD JUMPDEST DUP4 PUSH1 0xFF AND PUSH1 0x5 SUB PUSH2 0x1029 JUMPI PUSH1 0x7 DUP4 ADD DUP1 SLOAD PUSH1 0xFF NOT AND PUSH1 0x1 OR SWAP1 SSTORE PUSH1 0x5 DUP1 SLOAD SWAP1 PUSH1 0x0 PUSH2 0x100D DUP4 PUSH2 0x353E JUMP JUMPDEST SWAP1 SWAP2 SSTORE POP POP PUSH1 0x8 DUP1 SLOAD PUSH1 0xFF NOT SWAP1 DUP2 AND SWAP1 SWAP2 SSTORE PUSH1 0x17 DUP1 SLOAD SWAP1 SWAP2 AND SWAP1 SSTORE JUMPDEST DUP2 SLOAD ISZERO PUSH2 0x10B5 JUMPI DUP2 SLOAD PUSH1 0x0 SWAP1 PUSH2 0x103F SWAP1 DUP4 PUSH2 0x3517 JUMP JUMPDEST SWAP1 POP PUSH1 0x0 JUMPDEST DUP4 SLOAD DUP2 LT ISZERO PUSH2 0x10B2 JUMPI DUP4 DUP2 DUP2 SLOAD DUP2 LT PUSH2 0x105F JUMPI PUSH2 0x105F PUSH2 0x3557 JUMP JUMPDEST PUSH1 0x0 SWAP2 DUP3 MSTORE PUSH1 0x20 DUP3 KECCAK256 ADD SLOAD PUSH1 0x40 MLOAD PUSH1 0x1 PUSH1 0x1 PUSH1 0xA0 SHL SUB SWAP1 SWAP2 AND SWAP2 DUP5 ISZERO PUSH2 0x8FC MUL SWAP2 DUP6 SWAP2 DUP2 DUP2 DUP2 DUP6 DUP9 DUP9 CALL SWAP4 POP POP POP POP ISZERO DUP1 ISZERO PUSH2 0x109F JUMPI RETURNDATASIZE PUSH1 0x0 DUP1 RETURNDATACOPY RETURNDATASIZE PUSH1 0x0 REVERT JUMPDEST POP DUP1 PUSH2 0x10AA DUP2 PUSH2 0x353E JUMP JUMPDEST SWAP2 POP POP PUSH2 0x1044 JUMP JUMPDEST POP POP JUMPDEST PUSH1 0x1B DUP1 SLOAD PUSH1 0xFF NOT AND SWAP1 SSTORE PUSH1 0x7 SLOAD PUSH1 0x40 MLOAD PUSH1 0xFF DUP7 AND DUP2 MSTORE PUSH32 0x7579876CF141B70E3BEF48886191F214AA1AB0B2F1ECDBC8DCCA466312AED7E SWAP1 PUSH1 0x20 ADD PUSH1 0x40 MLOAD DUP1 SWAP2 SUB SWAP1 LOG2 POP POP POP PUSH2 0x1105 PUSH1 0x1 PUSH1 0x1A SSTORE JUMP JUMPDEST POP JUMP JUMPDEST PUSH2 0x1110 PUSH2 0x28FC JUMP JUMPDEST PUSH1 0x17 DUP1 SLOAD PUSH1 0xFF NOT AND SWAP2 ISZERO ISZERO SWAP2 SWAP1 SWAP2 OR SWAP1 SSTORE JUMP JUMPDEST PUSH2 0x112B PUSH2 0x28FC JUMP JUMPDEST PUSH2 0x1133 PUSH2 0x294F JUMP JUMPDEST JUMP JUMPDEST PUSH1 0x0 DUP1 PUSH1 0x11 PUSH1 0x0 SWAP1 SLOAD SWAP1 PUSH2 0x100 EXP SWAP1 DIV PUSH1 0x1 PUSH1 0x1 PUSH1 0xA0 SHL SUB AND PUSH1 0x1 PUSH1 0x1 PUSH1 0xA0 SHL SUB AND PUSH4 0xFEAF968C PUSH1 0x40 MLOAD DUP2 PUSH4 0xFFFFFFFF AND PUSH1 0xE0 SHL DUP2 MSTORE PUSH1 0x4 ADD PUSH1 0xA0 PUSH1 0x40 MLOAD DUP1 DUP4 SUB DUP2 DUP7 GAS STATICCALL ISZERO DUP1 ISZERO PUSH2 0x118B JUMPI RETURNDATASIZE PUSH1 0x0 DUP1 RETURNDATACOPY RETURNDATASIZE PUSH1 0x0 REVERT JUMPDEST POP POP POP POP PUSH1 0x40 MLOAD RETURNDATASIZE PUSH1 0x1F NOT PUSH1 0x1F DUP3 ADD AND DUP3 ADD DUP1 PUSH1 0x40 MSTORE POP DUP2 ADD SWAP1 PUSH2 0x11AF SWAP2 SWAP1 PUSH2 0x3587 JUMP JUMPDEST POP POP POP SWAP2 POP POP PUSH1 0x0 DUP2 SGT PUSH2 0x11FD JUMPI PUSH1 0x40 MLOAD PUSH3 0x461BCD PUSH1 0xE5 SHL DUP2 MSTORE PUSH1 0x20 PUSH1 0x4 DUP3 ADD MSTORE PUSH1 0x15 PUSH1 0x24 DUP3 ADD MSTORE PUSH21 0x496E76616C696420424E422F555344207072696365 PUSH1 0x58 SHL PUSH1 0x44 DUP3 ADD MSTORE PUSH1 0x64 ADD PUSH2 0xA45 JUMP JUMPDEST DUP1 PUSH1 0x0 PUSH11 0x52B7D2DCC80CD2E4000000 PUSH2 0x1216 DUP4 SELFBALANCE PUSH2 0x34EA JUMP JUMPDEST PUSH2 0x1220 SWAP2 SWAP1 PUSH2 0x3517 JUMP JUMPDEST SWAP5 SWAP4 POP POP POP POP JUMP JUMPDEST PUSH1 0x17 SLOAD PUSH1 0x40 DUP1 MLOAD PUSH1 0x20 DUP2 ADD SWAP1 SWAP2 MSTORE PUSH1 0x0 DUP2 MSTORE PUSH1 0xFF SWAP1 SWAP2 AND ISZERO SWAP1 JUMPDEST SWAP3 POP SWAP3 SWAP1 POP JUMP JUMPDEST PUSH1 0x60 DUP1 PUSH1 0x60 PUSH1 0x0 PUSH1 0xE PUSH1 0x0 DUP7 DUP2 MSTORE PUSH1 0x20 ADD SWAP1 DUP2 MSTORE PUSH1 0x20 ADD PUSH1 0x0 KECCAK256 SWAP1 POP DUP1 PUSH1 0x4 ADD DUP2 PUSH1 0x5 ADD DUP3 PUSH1 0x6 ADD DUP3 DUP1 SLOAD DUP1 PUSH1 0x20 MUL PUSH1 0x20 ADD PUSH1 0x40 MLOAD SWAP1 DUP2 ADD PUSH1 0x40 MSTORE DUP1 SWAP3 SWAP2 SWAP1 DUP2 DUP2 MSTORE PUSH1 0x20 ADD DUP3 DUP1 SLOAD DUP1 ISZERO PUSH2 0x12C6 JUMPI PUSH1 0x20 MUL DUP3 ADD SWAP2 SWAP1 PUSH1 0x0 MSTORE PUSH1 0x20 PUSH1 0x0 KECCAK256 SWAP1 JUMPDEST DUP2 SLOAD PUSH1 0x1 PUSH1 0x1 PUSH1 0xA0 SHL SUB AND DUP2 MSTORE PUSH1 0x1 SWAP1 SWAP2 ADD SWAP1 PUSH1 0x20 ADD DUP1 DUP4 GT PUSH2 0x12A8 JUMPI JUMPDEST POP POP POP POP POP SWAP3 POP DUP2 DUP1 SLOAD DUP1 PUSH1 0x20 MUL PUSH1 0x20 ADD PUSH1 0x40 MLOAD SWAP1 DUP2 ADD PUSH1 0x40 MSTORE DUP1 SWAP3 SWAP2 SWAP1 DUP2 DUP2 MSTORE PUSH1 0x20 ADD DUP3 DUP1 SLOAD DUP1 ISZERO PUSH2 0x1322 JUMPI PUSH1 0x20 MUL DUP3 ADD SWAP2 SWAP1 PUSH1 0x0 MSTORE PUSH1 0x20 PUSH1 0x0 KECCAK256 SWAP1 JUMPDEST DUP2 SLOAD PUSH1 0x1 PUSH1 0x1 PUSH1 0xA0 SHL SUB AND DUP2 MSTORE PUSH1 0x1 SWAP1 SWAP2 ADD SWAP1 PUSH1 0x20 ADD DUP1 DUP4 GT PUSH2 0x1304 JUMPI JUMPDEST POP POP POP POP POP SWAP2 POP DUP1 DUP1 SLOAD DUP1 PUSH1 0x20 MUL PUSH1 0x20 ADD PUSH1 0x40 MLOAD SWAP1 DUP2 ADD PUSH1 0x40 MSTORE DUP1 SWAP3 SWAP2 SWAP1 DUP2 DUP2 MSTORE PUSH1 0x20 ADD DUP3 DUP1 SLOAD DUP1 ISZERO PUSH2 0x137E JUMPI PUSH1 0x20 MUL DUP3 ADD SWAP2 SWAP1 PUSH1 0x0 MSTORE PUSH1 0x20 PUSH1 0x0 KECCAK256 SWAP1 JUMPDEST DUP2 SLOAD PUSH1 0x1 PUSH1 0x1 PUSH1 0xA0 SHL SUB AND DUP2 MSTORE PUSH1 0x1 SWAP1 SWAP2 ADD SWAP1 PUSH1 0x20 ADD DUP1 DUP4 GT PUSH2 0x1360 JUMPI JUMPDEST POP POP POP POP POP SWAP1 POP SWAP4 POP SWAP4 POP SWAP4 POP POP SWAP2 SWAP4 SWAP1 SWAP3 POP JUMP JUMPDEST PUSH1 0x1 SLOAD PUSH1 0x1 PUSH1 0x1 PUSH1 0xA0 SHL SUB AND CALLER EQ PUSH2 0x13E6 JUMPI PUSH1 0x40 MLOAD PUSH3 0x461BCD PUSH1 0xE5 SHL DUP2 MSTORE PUSH1 0x20 PUSH1 0x4 DUP3 ADD MSTORE PUSH1 0x16 PUSH1 0x24 DUP3 ADD MSTORE PUSH22 0x26BAB9BA10313290383937B837B9B2B21037BBB732B9 PUSH1 0x51 SHL PUSH1 0x44 DUP3 ADD MSTORE PUSH1 0x64 ADD PUSH2 0xA45 JUMP JUMPDEST PUSH1 0x0 DUP1 SLOAD CALLER PUSH1 0x1 PUSH1 0x1 PUSH1 0xA0 SHL SUB NOT DUP1 DUP4 AND DUP3 OR DUP5 SSTORE PUSH1 0x1 DUP1 SLOAD SWAP1 SWAP2 AND SWAP1 SSTORE PUSH1 0x40 MLOAD PUSH1 0x1 PUSH1 0x1 PUSH1 0xA0 SHL SUB SWAP1 SWAP3 AND SWAP3 SWAP1 SWAP2 DUP4 SWAP2 PUSH32 0x8BE0079C531659141344CD1FD0A4F28419497F9722A3DAAFE3B4186F6B6457E0 SWAP2 LOG3 POP JUMP JUMPDEST PUSH2 0x1445 PUSH2 0x28FC JUMP JUMPDEST PUSH1 0x6 DUP1 SLOAD PUSH1 0xFF NOT AND PUSH1 0x1 OR SWAP1 SSTORE JUMP JUMPDEST PUSH1 0x0 DUP2 DUP2 MSTORE PUSH1 0xE PUSH1 0x20 MSTORE PUSH1 0x40 SWAP1 KECCAK256 PUSH1 0x3 DUP2 ADD SLOAD PUSH1 0x60 SWAP2 DUP3 SWAP2 DUP1 PUSH8 0xFFFFFFFFFFFFFFFF DUP2 GT ISZERO PUSH2 0x1485 JUMPI PUSH2 0x1485 PUSH2 0x33CC JUMP JUMPDEST PUSH1 0x40 MLOAD SWAP1 DUP1 DUP3 MSTORE DUP1 PUSH1 0x20 MUL PUSH1 0x20 ADD DUP3 ADD PUSH1 0x40 MSTORE DUP1 ISZERO PUSH2 0x14AE JUMPI DUP2 PUSH1 0x20 ADD PUSH1 0x20 DUP3 MUL DUP1 CALLDATASIZE DUP4 CALLDATACOPY ADD SWAP1 POP JUMPDEST POP SWAP4 POP DUP1 PUSH8 0xFFFFFFFFFFFFFFFF DUP2 GT ISZERO PUSH2 0x14CA JUMPI PUSH2 0x14CA PUSH2 0x33CC JUMP JUMPDEST PUSH1 0x40 MLOAD SWAP1 DUP1 DUP3 MSTORE DUP1 PUSH1 0x20 MUL PUSH1 0x20 ADD DUP3 ADD PUSH1 0x40 MSTORE DUP1 ISZERO PUSH2 0x1503 JUMPI DUP2 PUSH1 0x20 ADD JUMPDEST PUSH2 0x14F0 PUSH2 0x2F14 JUMP JUMPDEST DUP2 MSTORE PUSH1 0x20 ADD SWAP1 PUSH1 0x1 SWAP1 SUB SWAP1 DUP2 PUSH2 0x14E8 JUMPI SWAP1 POP JUMPDEST POP SWAP3 POP PUSH1 0x0 JUMPDEST DUP2 DUP2 LT ISZERO PUSH2 0x15F2 JUMPI PUSH1 0x0 DUP4 PUSH1 0x3 ADD DUP3 DUP2 SLOAD DUP2 LT PUSH2 0x1528 JUMPI PUSH2 0x1528 PUSH2 0x3557 JUMP JUMPDEST PUSH1 0x0 SWAP2 DUP3 MSTORE PUSH1 0x20 SWAP1 SWAP2 KECCAK256 PUSH1 0x2 SWAP1 SWAP2 MUL ADD DUP1 SLOAD DUP8 MLOAD SWAP2 SWAP3 POP PUSH1 0x1 PUSH1 0x1 PUSH1 0xA0 SHL SUB AND SWAP1 DUP8 SWAP1 DUP5 SWAP1 DUP2 LT PUSH2 0x155B JUMPI PUSH2 0x155B PUSH2 0x3557 JUMP JUMPDEST PUSH1 0x1 PUSH1 0x1 PUSH1 0xA0 SHL SUB SWAP3 SWAP1 SWAP3 AND PUSH1 0x20 SWAP3 DUP4 MUL SWAP2 SWAP1 SWAP2 ADD SWAP1 SWAP2 ADD MSTORE PUSH1 0x40 DUP1 MLOAD PUSH1 0xA0 DUP2 ADD SWAP2 DUP3 SWAP1 MSTORE SWAP1 PUSH1 0x1 DUP4 ADD SWAP1 PUSH1 0x5 SWAP1 DUP3 PUSH1 0x0 DUP6 JUMPDEST DUP3 SLOAD PUSH2 0x100 DUP4 SWAP1 EXP SWAP1 DIV PUSH1 0xFF AND DUP2 MSTORE PUSH1 0x20 PUSH1 0x1 SWAP3 DUP4 ADD DUP2 DUP2 DIV SWAP5 DUP6 ADD SWAP5 SWAP1 SWAP4 SUB SWAP1 SWAP3 MUL SWAP2 ADD DUP1 DUP5 GT PUSH2 0x158E JUMPI SWAP1 POP POP POP POP POP POP DUP6 DUP4 DUP2 MLOAD DUP2 LT PUSH2 0x15D3 JUMPI PUSH2 0x15D3 PUSH2 0x3557 JUMP JUMPDEST PUSH1 0x20 MUL PUSH1 0x20 ADD ADD DUP2 SWAP1 MSTORE POP POP DUP1 DUP1 PUSH2 0x15EA SWAP1 PUSH2 0x353E JUMP JUMPDEST SWAP2 POP POP PUSH2 0x1509 JUMP JUMPDEST POP POP POP SWAP2 POP SWAP2 JUMP JUMPDEST PUSH2 0x1602 PUSH2 0x28FC JUMP JUMPDEST PUSH1 0x0 CALLVALUE GT PUSH2 0x1642 JUMPI PUSH1 0x40 MLOAD PUSH3 0x461BCD PUSH1 0xE5 SHL DUP2 MSTORE PUSH1 0x20 PUSH1 0x4 DUP3 ADD MSTORE PUSH1 0xD PUSH1 0x24 DUP3 ADD MSTORE PUSH13 0x26BAB9BA1039B2B73210212721 PUSH1 0x99 SHL PUSH1 0x44 DUP3 ADD MSTORE PUSH1 0x64 ADD PUSH2 0xA45 JUMP JUMPDEST PUSH1 0x40 MLOAD CALLVALUE DUP2 MSTORE CALLER SWAP1 PUSH32 0xD3DA04B9295B0265DA4CD8D1D9EA4F3BB84775E17288A007301F7193865B1818 SWAP1 PUSH1 0x20 ADD PUSH1 0x40 MLOAD DUP1 SWAP2 SUB SWAP1 LOG2 JUMP JUMPDEST PUSH1 0x0 SLOAD PUSH1 0x1 PUSH1 0x1 PUSH1 0xA0 SHL SUB AND CALLER EQ DUP1 ISZERO SWAP1 PUSH2 0x169F JUMPI POP PUSH1 0x2 SLOAD PUSH1 0x1 PUSH1 0x1 PUSH1 0xA0 SHL SUB AND CALLER EQ ISZERO JUMPDEST ISZERO PUSH2 0x16F0 JUMPI CALLER PUSH2 0x16B7 PUSH1 0x0 SLOAD PUSH1 0x1 PUSH1 0x1 PUSH1 0xA0 SHL SUB AND SWAP1 JUMP JUMPDEST PUSH1 0x2 SLOAD PUSH1 0x40 MLOAD PUSH4 0x61DB9C1 PUSH1 0xE0 SHL DUP2 MSTORE PUSH1 0x1 PUSH1 0x1 PUSH1 0xA0 SHL SUB SWAP4 DUP5 AND PUSH1 0x4 DUP3 ADD MSTORE SWAP2 DUP4 AND PUSH1 0x24 DUP4 ADD MSTORE SWAP2 SWAP1 SWAP2 AND PUSH1 0x44 DUP3 ADD MSTORE PUSH1 0x64 ADD PUSH2 0xA45 JUMP JUMPDEST PUSH1 0x1 PUSH1 0x1 PUSH1 0xA0 SHL SUB DUP2 AND PUSH2 0x1717 JUMPI PUSH1 0x40 MLOAD PUSH4 0xD92E233D PUSH1 0xE0 SHL DUP2 MSTORE PUSH1 0x4 ADD PUSH1 0x40 MLOAD DUP1 SWAP2 SUB SWAP1 REVERT JUMPDEST PUSH1 0x2 DUP1 SLOAD PUSH1 0x1 PUSH1 0x1 PUSH1 0xA0 SHL SUB NOT AND PUSH1 0x1 PUSH1 0x1 PUSH1 0xA0 SHL SUB DUP4 AND SWAP1 DUP2 OR SWAP1 SWAP2 SSTORE PUSH1 0x40 MLOAD SWAP1 DUP2 MSTORE PUSH32 0xD1A6A14209A385A964D036E404CB5CFB71F4000CDB03C9366292430787261BE6 SWAP1 PUSH1 0x20 ADD PUSH1 0x40 MLOAD DUP1 SWAP2 SUB SWAP1 LOG1 POP JUMP JUMPDEST PUSH2 0x1773 PUSH2 0x28FC JUMP JUMPDEST PUSH1 0x1 PUSH1 0x1 PUSH1 0xA0 SHL SUB DUP2 AND PUSH2 0x17C9 JUMPI PUSH1 0x40 MLOAD PUSH3 0x461BCD PUSH1 0xE5 SHL DUP2 MSTORE PUSH1 0x20 PUSH1 0x4 DUP3 ADD MSTORE PUSH1 0x1A PUSH1 0x24 DUP3 ADD MSTORE PUSH32 0x496E76616C696420707269636520666565642061646472657373000000000000 PUSH1 0x44 DUP3 ADD MSTORE PUSH1 0x64 ADD PUSH2 0xA45 JUMP JUMPDEST PUSH1 0x11 DUP1 SLOAD PUSH1 0x1 PUSH1 0x1 PUSH1 0xA0 SHL SUB NOT AND PUSH1 0x1 PUSH1 0x1 PUSH1 0xA0 SHL SUB SWAP3 SWAP1 SWAP3 AND SWAP2 SWAP1 SWAP2 OR SWAP1 SSTORE JUMP JUMPDEST PUSH2 0x17F3 PUSH2 0x2F14 JUMP JUMPDEST PUSH1 0x0 DUP3 DUP2 MSTORE PUSH1 0xE PUSH1 0x20 MSTORE PUSH1 0x40 DUP1 DUP3 KECCAK256 DUP2 MLOAD PUSH1 0xA0 DUP2 ADD SWAP3 DUP4 SWAP1 MSTORE SWAP3 PUSH1 0x2 SWAP1 SWAP2 ADD SWAP2 PUSH1 0x5 SWAP2 DUP4 SWAP1 DUP6 JUMPDEST DUP3 SLOAD PUSH2 0x100 DUP4 SWAP1 EXP SWAP1 DIV PUSH1 0xFF AND DUP2 MSTORE PUSH1 0x20 PUSH1 0x1 SWAP3 DUP4 ADD DUP2 DUP2 DIV SWAP5 DUP6 ADD SWAP5 SWAP1 SWAP4 SUB SWAP1 SWAP3 MUL SWAP2 ADD DUP1 DUP5 GT PUSH2 0x181A JUMPI POP SWAP5 SWAP8 SWAP7 POP POP POP POP POP POP POP JUMP JUMPDEST PUSH2 0x185B PUSH2 0x28FC JUMP JUMPDEST PUSH3 0x186A0 DUP2 PUSH4 0xFFFFFFFF AND LT ISZERO PUSH2 0x189E JUMPI PUSH1 0x40 MLOAD PUSH3 0x461BCD PUSH1 0xE5 SHL DUP2 MSTORE PUSH1 0x20 PUSH1 0x4 DUP3 ADD MSTORE PUSH1 0x7 PUSH1 0x24 DUP3 ADD MSTORE PUSH7 0x546F6F206C6F77 PUSH1 0xC8 SHL PUSH1 0x44 DUP3 ADD MSTORE PUSH1 0x64 ADD PUSH2 0xA45 JUMP JUMPDEST PUSH1 0x15 DUP1 SLOAD PUSH4 0xFFFFFFFF NOT AND PUSH4 0xFFFFFFFF SWAP3 SWAP1 SWAP3 AND SWAP2 SWAP1 SWAP2 OR SWAP1 SSTORE JUMP JUMPDEST PUSH2 0x18C2 PUSH2 0x28FC JUMP JUMPDEST PUSH2 0x18CB DUP2 PUSH2 0x2B3E JUMP JUMPDEST PUSH2 0x1917 JUMPI PUSH1 0x40 MLOAD PUSH3 0x461BCD PUSH1 0xE5 SHL DUP2 MSTORE PUSH1 0x20 PUSH1 0x4 DUP3 ADD MSTORE PUSH1 0x17 PUSH1 0x24 DUP3 ADD MSTORE PUSH32 0x496E76616C69642077696E6E696E67206E756D62657273000000000000000000 PUSH1 0x44 DUP3 ADD MSTORE PUSH1 0x64 ADD PUSH2 0xA45 JUMP JUMPDEST PUSH1 0x17 DUP1 SLOAD PUSH1 0x1 PUSH1 0xFF NOT SWAP2 DUP3 AND DUP2 OR SWAP1 SWAP3 SSTORE PUSH1 0x5 DUP1 SLOAD PUSH1 0x0 SWAP1 DUP2 MSTORE PUSH1 0x10 PUSH1 0x20 SWAP1 DUP2 MSTORE PUSH1 0x40 DUP1 DUP4 KECCAK256 DUP1 SLOAD SWAP1 SWAP6 AND DUP7 OR SWAP1 SWAP5 SSTORE DUP3 SLOAD PUSH1 0x7 DUP2 SWAP1 SSTORE DUP3 MSTORE PUSH1 0xE SWAP1 MSTORE DUP3 DUP2 KECCAK256 SELFBALANCE SWAP5 ADD SWAP4 SWAP1 SWAP4 SSTORE DUP1 SLOAD DUP4 MSTORE SWAP2 KECCAK256 PUSH2 0x1975 SWAP2 PUSH1 0x2 SWAP1 SWAP2 ADD SWAP1 DUP4 SWAP1 PUSH2 0x2F32 JUMP JUMPDEST POP PUSH1 0x5 SLOAD PUSH1 0x0 SWAP1 DUP2 MSTORE PUSH1 0xE PUSH1 0x20 MSTORE PUSH1 0x40 SWAP1 KECCAK256 TIMESTAMP SWAP1 DUP2 SWAP1 SSTORE PUSH2 0x1998 SWAP1 PUSH2 0xE10 PUSH2 0x352B JUMP JUMPDEST PUSH1 0x9 SSTORE TIMESTAMP PUSH1 0x4 SSTORE PUSH1 0x5 SLOAD PUSH1 0x40 MLOAD PUSH32 0xE4873708E4FC11619230DD3506A5F7CB96ECE9D6D7B1C2EA9E7C46DAC3F10BAA SWAP1 PUSH1 0x0 SWAP1 LOG2 PUSH2 0x4D2 PUSH32 0x27F7A4CFB91DD4DB4B9C99DF04F38BD5BF8EFFA9B1EF1DC67F92C0D087029CD5 DUP3 PUSH1 0x40 MLOAD PUSH2 0x19FD SWAP2 SWAP1 PUSH2 0x3392 JUMP JUMPDEST PUSH1 0x40 MLOAD DUP1 SWAP2 SUB SWAP1 LOG2 POP JUMP JUMPDEST PUSH1 0x6 SLOAD PUSH1 0xFF AND ISZERO PUSH2 0x1A2B JUMPI PUSH1 0x40 MLOAD PUSH3 0x461BCD PUSH1 0xE5 SHL DUP2 MSTORE PUSH1 0x4 ADD PUSH2 0xA45 SWAP1 PUSH2 0x35D7 JUMP JUMPDEST PUSH1 0x5 SLOAD PUSH1 0x0 SWAP1 DUP2 MSTORE PUSH1 0x10 PUSH1 0x20 MSTORE PUSH1 0x40 SWAP1 KECCAK256 SLOAD PUSH1 0xFF AND ISZERO PUSH2 0x1A5D JUMPI PUSH1 0x40 MLOAD PUSH3 0x461BCD PUSH1 0xE5 SHL DUP2 MSTORE PUSH1 0x4 ADD PUSH2 0xA45 SWAP1 PUSH2 0x3603 JUMP JUMPDEST PUSH2 0x1A65 PUSH2 0x202C JUMP JUMPDEST CALLVALUE EQ PUSH2 0x1A83 JUMPI PUSH1 0x40 MLOAD PUSH3 0x461BCD PUSH1 0xE5 SHL DUP2 MSTORE PUSH1 0x4 ADD PUSH2 0xA45 SWAP1 PUSH2 0x3629 JUMP JUMPDEST PUSH1 0x0 PUSH2 0x1A8D PUSH2 0x2C16 JUMP JUMPDEST SWAP1 POP PUSH1 0x0 PUSH2 0x1A9C PUSH1 0xA CALLVALUE PUSH2 0x3517 JUMP JUMPDEST SWAP1 POP PUSH1 0x0 PUSH2 0x1AB2 PUSH1 0x0 SLOAD PUSH1 0x1 PUSH1 0x1 PUSH1 0xA0 SHL SUB AND SWAP1 JUMP JUMPDEST PUSH1 0x1 PUSH1 0x1 PUSH1 0xA0 SHL SUB AND DUP3 PUSH1 0x40 MLOAD PUSH1 0x0 PUSH1 0x40 MLOAD DUP1 DUP4 SUB DUP2 DUP6 DUP8 GAS CALL SWAP3 POP POP POP RETURNDATASIZE DUP1 PUSH1 0x0 DUP2 EQ PUSH2 0x1AFC JUMPI PUSH1 0x40 MLOAD SWAP2 POP PUSH1 0x1F NOT PUSH1 0x3F RETURNDATASIZE ADD AND DUP3 ADD PUSH1 0x40 MSTORE RETURNDATASIZE DUP3 MSTORE RETURNDATASIZE PUSH1 0x0 PUSH1 0x20 DUP5 ADD RETURNDATACOPY PUSH2 0x1B01 JUMP JUMPDEST PUSH1 0x60 SWAP2 POP JUMPDEST POP POP SWAP1 POP DUP1 PUSH2 0x1B4D JUMPI PUSH1 0x40 MLOAD PUSH3 0x461BCD PUSH1 0xE5 SHL DUP2 MSTORE PUSH1 0x20 PUSH1 0x4 DUP3 ADD MSTORE PUSH1 0x18 PUSH1 0x24 DUP3 ADD MSTORE PUSH24 0x151C985B9CD9995C881D1BC81BDDDB995C8819985A5B1959 PUSH1 0x42 SHL PUSH1 0x44 DUP3 ADD MSTORE PUSH1 0x64 ADD PUSH2 0xA45 JUMP JUMPDEST PUSH1 0x40 DUP1 MLOAD DUP1 DUP3 ADD DUP3 MSTORE CALLER DUP2 MSTORE PUSH1 0x20 DUP1 DUP3 ADD DUP7 DUP2 MSTORE PUSH1 0x5 DUP1 SLOAD PUSH1 0x0 SWAP1 DUP2 MSTORE PUSH1 0xE DUP5 MSTORE SWAP5 DUP6 KECCAK256 PUSH1 0x3 ADD DUP1 SLOAD PUSH1 0x1 DUP1 DUP3 ADD DUP4 SSTORE SWAP2 DUP8 MSTORE SWAP4 SWAP1 SWAP6 KECCAK256 DUP5 MLOAD PUSH1 0x2 SWAP1 SWAP5 MUL ADD DUP1 SLOAD PUSH1 0x1 PUSH1 0x1 PUSH1 0xA0 SHL SUB NOT AND PUSH1 0x1 PUSH1 0x1 PUSH1 0xA0 SHL SUB SWAP1 SWAP5 AND SWAP4 SWAP1 SWAP4 OR DUP4 SSTORE SWAP1 MLOAD SWAP3 SWAP4 DUP5 SWAP4 PUSH2 0x1BBC SWAP3 SWAP2 DUP5 ADD SWAP2 PUSH2 0x2F32 JUMP JUMPDEST POP POP PUSH1 0x5 DUP1 SLOAD PUSH1 0x0 SWAP1 DUP2 MSTORE PUSH1 0xF PUSH1 0x20 SWAP1 DUP2 MSTORE PUSH1 0x40 DUP1 DUP4 KECCAK256 CALLER DUP5 MSTORE DUP3 MSTORE DUP3 KECCAK256 DUP1 SLOAD PUSH1 0x1 DUP1 DUP3 ADD DUP4 SSTORE SWAP2 DUP5 MSTORE SWAP3 DUP3 SWAP1 KECCAK256 DUP7 MLOAD PUSH1 0x2 SWAP1 SWAP5 MUL ADD DUP1 SLOAD PUSH1 0x1 PUSH1 0x1 PUSH1 0xA0 SHL SUB NOT AND PUSH1 0x1 PUSH1 0x1 PUSH1 0xA0 SHL SUB SWAP1 SWAP5 AND SWAP4 SWAP1 SWAP4 OR DUP4 SSTORE SWAP1 DUP6 ADD MLOAD DUP6 SWAP5 POP SWAP2 SWAP3 PUSH2 0x1C26 SWAP3 SWAP2 DUP5 ADD SWAP2 SWAP1 PUSH2 0x2F32 JUMP JUMPDEST POP POP PUSH1 0x5 SLOAD PUSH1 0x0 SWAP1 DUP2 MSTORE PUSH1 0xB PUSH1 0x20 MSTORE PUSH1 0x40 DUP2 KECCAK256 DUP1 SLOAD SWAP3 POP SWAP1 PUSH2 0x1C47 DUP4 PUSH2 0x353E JUMP JUMPDEST SWAP1 SWAP2 SSTORE POP POP PUSH1 0x5 SLOAD PUSH1 0x0 SWAP1 DUP2 MSTORE PUSH1 0xC PUSH1 0x20 SWAP1 DUP2 MSTORE PUSH1 0x40 DUP1 DUP4 KECCAK256 CALLER DUP5 MSTORE SWAP1 SWAP2 MSTORE SWAP1 KECCAK256 SLOAD PUSH1 0xFF AND PUSH2 0x1CB5 JUMPI PUSH1 0x5 DUP1 SLOAD PUSH1 0x0 SWAP1 DUP2 MSTORE PUSH1 0xC PUSH1 0x20 SWAP1 DUP2 MSTORE PUSH1 0x40 DUP1 DUP4 KECCAK256 CALLER DUP5 MSTORE DUP3 MSTORE DUP1 DUP4 KECCAK256 DUP1 SLOAD PUSH1 0xFF NOT AND PUSH1 0x1 OR SWAP1 SSTORE SWAP3 SLOAD DUP3 MSTORE PUSH1 0xD SWAP1 MSTORE SWAP1 DUP2 KECCAK256 DUP1 SLOAD SWAP2 PUSH2 0x1CAF DUP4 PUSH2 0x353E JUMP JUMPDEST SWAP2 SWAP1 POP SSTORE POP JUMPDEST PUSH1 0x5 SLOAD PUSH1 0x40 MLOAD CALLER SWAP2 PUSH32 0x3898084B2129DD1EEFB522DB8ED9FB6801A5B24DD6656F98DDFFCF157174AE45 SWAP2 PUSH2 0x1CEA SWAP2 DUP9 SWAP2 PUSH2 0x3657 JUMP JUMPDEST PUSH1 0x40 MLOAD DUP1 SWAP2 SUB SWAP1 LOG2 POP POP POP POP JUMP JUMPDEST PUSH2 0x1D00 PUSH2 0x28FC JUMP JUMPDEST PUSH1 0x0 DUP2 GT PUSH2 0x1D50 JUMPI PUSH1 0x40 MLOAD PUSH3 0x461BCD PUSH1 0xE5 SHL DUP2 MSTORE PUSH1 0x20 PUSH1 0x4 DUP3 ADD MSTORE PUSH1 0x1C PUSH1 0x24 DUP3 ADD MSTORE PUSH32 0x5072696365206D7573742062652067726561746572207468616E203000000000 PUSH1 0x44 DUP3 ADD MSTORE PUSH1 0x64 ADD PUSH2 0xA45 JUMP JUMPDEST PUSH1 0x3 SSTORE JUMP JUMPDEST PUSH1 0x0 DUP2 DUP2 MSTORE PUSH1 0xF PUSH1 0x20 SWAP1 DUP2 MSTORE PUSH1 0x40 DUP1 DUP4 KECCAK256 CALLER DUP5 MSTORE SWAP1 SWAP2 MSTORE SWAP1 KECCAK256 SLOAD PUSH1 0x60 SWAP1 DUP2 SWAP1 DUP1 PUSH8 0xFFFFFFFFFFFFFFFF DUP2 GT ISZERO PUSH2 0x1D8D JUMPI PUSH2 0x1D8D PUSH2 0x33CC JUMP JUMPDEST PUSH1 0x40 MLOAD SWAP1 DUP1 DUP3 MSTORE DUP1 PUSH1 0x20 MUL PUSH1 0x20 ADD DUP3 ADD PUSH1 0x40 MSTORE DUP1 ISZERO PUSH2 0x1DB6 JUMPI DUP2 PUSH1 0x20 ADD PUSH1 0x20 DUP3 MUL DUP1 CALLDATASIZE DUP4 CALLDATACOPY ADD SWAP1 POP JUMPDEST POP SWAP3 POP DUP1 PUSH8 0xFFFFFFFFFFFFFFFF DUP2 GT ISZERO PUSH2 0x1DD2 JUMPI PUSH2 0x1DD2 PUSH2 0x33CC JUMP JUMPDEST PUSH1 0x40 MLOAD SWAP1 DUP1 DUP3 MSTORE DUP1 PUSH1 0x20 MUL PUSH1 0x20 ADD DUP3 ADD PUSH1 0x40 MSTORE DUP1 ISZERO PUSH2 0x1E0B JUMPI DUP2 PUSH1 0x20 ADD JUMPDEST PUSH2 0x1DF8 PUSH2 0x2F14 JUMP JUMPDEST DUP2 MSTORE PUSH1 0x20 ADD SWAP1 PUSH1 0x1 SWAP1 SUB SWAP1 DUP2 PUSH2 0x1DF0 JUMPI SWAP1 POP JUMPDEST POP SWAP2 POP PUSH1 0x0 JUMPDEST DUP2 DUP2 LT ISZERO PUSH2 0x1F34 JUMPI PUSH1 0x0 DUP6 DUP2 MSTORE PUSH1 0xF PUSH1 0x20 SWAP1 DUP2 MSTORE PUSH1 0x40 DUP1 DUP4 KECCAK256 CALLER DUP5 MSTORE SWAP1 SWAP2 MSTORE DUP2 KECCAK256 DUP1 SLOAD DUP4 SWAP1 DUP2 LT PUSH2 0x1E44 JUMPI PUSH2 0x1E44 PUSH2 0x3557 JUMP JUMPDEST PUSH1 0x0 SWAP2 DUP3 MSTORE PUSH1 0x20 SWAP2 DUP3 SWAP1 KECCAK256 PUSH1 0x40 DUP1 MLOAD DUP1 DUP3 ADD DUP3 MSTORE PUSH1 0x2 SWAP1 SWAP4 MUL SWAP1 SWAP2 ADD DUP1 SLOAD PUSH1 0x1 PUSH1 0x1 PUSH1 0xA0 SHL SUB AND DUP4 MSTORE DUP2 MLOAD PUSH1 0xA0 DUP2 ADD SWAP1 SWAP3 MSTORE SWAP2 SWAP3 DUP4 ADD SWAP1 PUSH1 0x1 DUP4 ADD PUSH1 0x5 DUP3 DUP3 DUP3 PUSH1 0x20 MUL DUP3 ADD SWAP2 PUSH1 0x0 SWAP1 JUMPDEST DUP3 SLOAD PUSH2 0x100 DUP4 SWAP1 EXP SWAP1 DIV PUSH1 0xFF AND DUP2 MSTORE PUSH1 0x20 PUSH1 0x1 SWAP3 DUP4 ADD DUP2 DUP2 DIV SWAP5 DUP6 ADD SWAP5 SWAP1 SWAP4 SUB SWAP1 SWAP3 MUL SWAP2 ADD DUP1 DUP5 GT PUSH2 0x1E8E JUMPI SWAP1 POP POP POP POP POP POP DUP2 MSTORE POP POP SWAP1 POP DUP1 PUSH1 0x0 ADD MLOAD DUP6 DUP4 DUP2 MLOAD DUP2 LT PUSH2 0x1EDE JUMPI PUSH2 0x1EDE PUSH2 0x3557 JUMP JUMPDEST PUSH1 0x20 MUL PUSH1 0x20 ADD ADD SWAP1 PUSH1 0x1 PUSH1 0x1 PUSH1 0xA0 SHL SUB AND SWAP1 DUP2 PUSH1 0x1 PUSH1 0x1 PUSH1 0xA0 SHL SUB AND DUP2 MSTORE POP POP DUP1 PUSH1 0x20 ADD MLOAD DUP5 DUP4 DUP2 MLOAD DUP2 LT PUSH2 0x1F15 JUMPI PUSH2 0x1F15 PUSH2 0x3557 JUMP JUMPDEST PUSH1 0x20 MUL PUSH1 0x20 ADD ADD DUP2 SWAP1 MSTORE POP POP DUP1 DUP1 PUSH2 0x1F2C SWAP1 PUSH2 0x353E JUMP JUMPDEST SWAP2 POP POP PUSH2 0x1E11 JUMP JUMPDEST POP POP SWAP2 POP SWAP2 JUMP JUMPDEST PUSH1 0x6 SLOAD PUSH1 0xFF AND ISZERO PUSH2 0x1F5E JUMPI PUSH1 0x40 MLOAD PUSH3 0x461BCD PUSH1 0xE5 SHL DUP2 MSTORE PUSH1 0x4 ADD PUSH2 0xA45 SWAP1 PUSH2 0x35D7 JUMP JUMPDEST PUSH1 0x5 SLOAD PUSH1 0x0 SWAP1 DUP2 MSTORE PUSH1 0x10 PUSH1 0x20 MSTORE PUSH1 0x40 SWAP1 KECCAK256 SLOAD PUSH1 0xFF AND ISZERO PUSH2 0x1F90 JUMPI PUSH1 0x40 MLOAD PUSH3 0x461BCD PUSH1 0xE5 SHL DUP2 MSTORE PUSH1 0x4 ADD PUSH2 0xA45 SWAP1 PUSH2 0x3603 JUMP JUMPDEST PUSH2 0x1F98 PUSH2 0x202C JUMP JUMPDEST CALLVALUE EQ PUSH2 0x1FB6 JUMPI PUSH1 0x40 MLOAD PUSH3 0x461BCD PUSH1 0xE5 SHL DUP2 MSTORE PUSH1 0x4 ADD PUSH2 0xA45 SWAP1 PUSH2 0x3629 JUMP JUMPDEST PUSH2 0x1FBF DUP2 PUSH2 0x2B3E JUMP JUMPDEST PUSH2 0x201F JUMPI PUSH1 0x40 MLOAD PUSH3 0x461BCD PUSH1 0xE5 SHL DUP2 MSTORE PUSH1 0x20 PUSH1 0x4 DUP3 ADD MSTORE PUSH1 0x2B PUSH1 0x24 DUP3 ADD MSTORE PUSH32 0x4E756D62657273206D75737420626520756E6971756520616E64206265747765 PUSH1 0x44 DUP3 ADD MSTORE PUSH11 0x656E203120616E6420353 PUSH1 0xAC SHL PUSH1 0x64 DUP3 ADD MSTORE PUSH1 0x84 ADD PUSH2 0xA45 JUMP JUMPDEST PUSH1 0x0 PUSH2 0x1A9C PUSH1 0xA CALLVALUE PUSH2 0x3517 JUMP JUMPDEST PUSH1 0x0 DUP1 PUSH1 0x11 PUSH1 0x0 SWAP1 SLOAD SWAP1 PUSH2 0x100 EXP SWAP1 DIV PUSH1 0x1 PUSH1 0x1 PUSH1 0xA0 SHL SUB AND PUSH1 0x1 PUSH1 0x1 PUSH1 0xA0 SHL SUB AND PUSH4 0xFEAF968C PUSH1 0x40 MLOAD DUP2 PUSH4 0xFFFFFFFF AND PUSH1 0xE0 SHL DUP2 MSTORE PUSH1 0x4 ADD PUSH1 0xA0 PUSH1 0x40 MLOAD DUP1 DUP4 SUB DUP2 DUP7 GAS STATICCALL ISZERO DUP1 ISZERO PUSH2 0x2082 JUMPI RETURNDATASIZE PUSH1 0x0 DUP1 RETURNDATACOPY RETURNDATASIZE PUSH1 0x0 REVERT JUMPDEST POP POP POP POP PUSH1 0x40 MLOAD RETURNDATASIZE PUSH1 0x1F NOT PUSH1 0x1F DUP3 ADD AND DUP3 ADD DUP1 PUSH1 0x40 MSTORE POP DUP2 ADD SWAP1 PUSH2 0x20A6 SWAP2 SWAP1 PUSH2 0x3587 JUMP JUMPDEST POP POP POP SWAP2 POP POP PUSH1 0x0 DUP2 SGT PUSH2 0x20F0 JUMPI PUSH1 0x40 MLOAD PUSH3 0x461BCD PUSH1 0xE5 SHL DUP2 MSTORE PUSH1 0x20 PUSH1 0x4 DUP3 ADD MSTORE PUSH1 0x11 PUSH1 0x24 DUP3 ADD MSTORE PUSH17 0x496E76616C696420424E42207072696365 PUSH1 0x78 SHL PUSH1 0x44 DUP3 ADD MSTORE PUSH1 0x64 ADD PUSH2 0xA45 JUMP JUMPDEST PUSH1 0x3 SLOAD DUP2 SWAP1 DUP2 SWAP1 PUSH2 0x2109 SWAP1 PUSH8 0xDE0B6B3A7640000 PUSH2 0x34EA JUMP JUMPDEST PUSH2 0x2113 SWAP2 SWAP1 PUSH2 0x3517 JUMP JUMPDEST SWAP3 POP POP POP SWAP1 JUMP JUMPDEST PUSH2 0x2122 PUSH2 0x28FC JUMP JUMPDEST SELFBALANCE DUP1 PUSH2 0x2167 JUMPI PUSH1 0x40 MLOAD PUSH3 0x461BCD PUSH1 0xE5 SHL DUP2 MSTORE PUSH1 0x20 PUSH1 0x4 DUP3 ADD MSTORE PUSH1 0x14 PUSH1 0x24 DUP3 ADD MSTORE PUSH20 0x4E6F2066756E647320746F207769746864726177 PUSH1 0x60 SHL PUSH1 0x44 DUP3 ADD MSTORE PUSH1 0x64 ADD PUSH2 0xA45 JUMP JUMPDEST PUSH1 0x0 DUP1 SLOAD PUSH1 0x40 MLOAD PUSH1 0x1 PUSH1 0x1 PUSH1 0xA0 SHL SUB SWAP1 SWAP2 AND SWAP1 DUP4 SWAP1 DUP4 DUP2 DUP2 DUP2 DUP6 DUP8 GAS CALL SWAP3 POP POP POP RETURNDATASIZE DUP1 PUSH1 0x0 DUP2 EQ PUSH2 0x21B4 JUMPI PUSH1 0x40 MLOAD SWAP2 POP PUSH1 0x1F NOT PUSH1 0x3F RETURNDATASIZE ADD AND DUP3 ADD PUSH1 0x40 MSTORE RETURNDATASIZE DUP3 MSTORE RETURNDATASIZE PUSH1 0x0 PUSH1 0x20 DUP5 ADD RETURNDATACOPY PUSH2 0x21B9 JUMP JUMPDEST PUSH1 0x60 SWAP2 POP JUMPDEST POP POP SWAP1 POP DUP1 PUSH2 0x21FC JUMPI PUSH1 0x40 MLOAD PUSH3 0x461BCD PUSH1 0xE5 SHL DUP2 MSTORE PUSH1 0x20 PUSH1 0x4 DUP3 ADD MSTORE PUSH1 0xF PUSH1 0x24 DUP3 ADD MSTORE PUSH15 0x151C985B9CD9995C8819985A5B1959 PUSH1 0x8A SHL PUSH1 0x44 DUP3 ADD MSTORE PUSH1 0x64 ADD PUSH2 0xA45 JUMP JUMPDEST PUSH32 0x418AAE9DE8F7AB4DF1C137475770FF373EB33FD62A060544E9F4FC90F3CDB1A4 DUP3 PUSH2 0x2230 PUSH1 0x0 SLOAD PUSH1 0x1 PUSH1 0x1 PUSH1 0xA0 SHL SUB AND SWAP1 JUMP JUMPDEST PUSH1 0x40 DUP1 MLOAD SWAP3 DUP4 MSTORE PUSH1 0x1 PUSH1 0x1 PUSH1 0xA0 SHL SUB SWAP1 SWAP2 AND PUSH1 0x20 DUP4 ADD MSTORE ADD PUSH1 0x40 MLOAD DUP1 SWAP2 SUB SWAP1 LOG1 POP POP JUMP JUMPDEST PUSH1 0x6 SLOAD PUSH1 0xFF AND ISZERO PUSH2 0x2277 JUMPI PUSH1 0x40 MLOAD PUSH3 0x461BCD PUSH1 0xE5 SHL DUP2 MSTORE PUSH1 0x4 ADD PUSH2 0xA45 SWAP1 PUSH2 0x35D7 JUMP JUMPDEST PUSH1 0x5 SLOAD PUSH1 0x0 SWAP1 DUP2 MSTORE PUSH1 0x10 PUSH1 0x20 MSTORE PUSH1 0x40 SWAP1 KECCAK256 SLOAD PUSH1 0xFF AND ISZERO PUSH2 0x22A9 JUMPI PUSH1 0x40 MLOAD PUSH3 0x461BCD PUSH1 0xE5 SHL DUP2 MSTORE PUSH1 0x4 ADD PUSH2 0xA45 SWAP1 PUSH2 0x3603 JUMP JUMPDEST PUSH1 0x1 DUP2 PUSH1 0xFF AND LT ISZERO DUP1 ISZERO PUSH2 0x22C1 JUMPI POP PUSH1 0xA DUP2 PUSH1 0xFF AND GT ISZERO JUMPDEST PUSH2 0x2317 JUMPI PUSH1 0x40 MLOAD PUSH3 0x461BCD PUSH1 0xE5 SHL DUP2 MSTORE PUSH1 0x20 PUSH1 0x4 DUP3 ADD MSTORE PUSH1 0x21 PUSH1 0x24 DUP3 ADD MSTORE PUSH32 0x4D75737420627579206265747765656E203120616E64203130207469636B6574 PUSH1 0x44 DUP3 ADD MSTORE PUSH1 0x73 PUSH1 0xF8 SHL PUSH1 0x64 DUP3 ADD MSTORE PUSH1 0x84 ADD PUSH2 0xA45 JUMP JUMPDEST PUSH1 0x0 PUSH2 0x2321 PUSH2 0x202C JUMP JUMPDEST SWAP1 POP PUSH1 0x0 PUSH2 0x2332 PUSH1 0xFF DUP5 AND DUP4 PUSH2 0x34EA JUMP JUMPDEST SWAP1 POP DUP1 CALLVALUE EQ PUSH2 0x2353 JUMPI PUSH1 0x40 MLOAD PUSH3 0x461BCD PUSH1 0xE5 SHL DUP2 MSTORE PUSH1 0x4 ADD PUSH2 0xA45 SWAP1 PUSH2 0x3629 JUMP JUMPDEST PUSH1 0x0 PUSH2 0x2360 PUSH1 0xA CALLVALUE PUSH2 0x3517 JUMP JUMPDEST SWAP1 POP PUSH1 0x0 PUSH2 0x2376 PUSH1 0x0 SLOAD PUSH1 0x1 PUSH1 0x1 PUSH1 0xA0 SHL SUB AND SWAP1 JUMP JUMPDEST PUSH1 0x1 PUSH1 0x1 PUSH1 0xA0 SHL SUB AND DUP3 PUSH1 0x40 MLOAD PUSH1 0x0 PUSH1 0x40 MLOAD DUP1 DUP4 SUB DUP2 DUP6 DUP8 GAS CALL SWAP3 POP POP POP RETURNDATASIZE DUP1 PUSH1 0x0 DUP2 EQ PUSH2 0x23C0 JUMPI PUSH1 0x40 MLOAD SWAP2 POP PUSH1 0x1F NOT PUSH1 0x3F RETURNDATASIZE ADD AND DUP3 ADD PUSH1 0x40 MSTORE RETURNDATASIZE DUP3 MSTORE RETURNDATASIZE PUSH1 0x0 PUSH1 0x20 DUP5 ADD RETURNDATACOPY PUSH2 0x23C5 JUMP JUMPDEST PUSH1 0x60 SWAP2 POP JUMPDEST POP POP SWAP1 POP DUP1 PUSH2 0x2411 JUMPI PUSH1 0x40 MLOAD PUSH3 0x461BCD PUSH1 0xE5 SHL DUP2 MSTORE PUSH1 0x20 PUSH1 0x4 DUP3 ADD MSTORE PUSH1 0x18 PUSH1 0x24 DUP3 ADD MSTORE PUSH24 0x151C985B9CD9995C881D1BC81BDDDB995C8819985A5B1959 PUSH1 0x42 SHL PUSH1 0x44 DUP3 ADD MSTORE PUSH1 0x64 ADD PUSH2 0xA45 JUMP JUMPDEST PUSH1 0x0 JUMPDEST DUP6 PUSH1 0xFF AND DUP2 PUSH1 0xFF AND LT ISZERO PUSH2 0x2582 JUMPI PUSH1 0x0 PUSH2 0x242C PUSH2 0x2C16 JUMP JUMPDEST PUSH1 0x40 DUP1 MLOAD DUP1 DUP3 ADD DUP3 MSTORE CALLER DUP2 MSTORE PUSH1 0x20 DUP1 DUP3 ADD DUP5 DUP2 MSTORE PUSH1 0x5 DUP1 SLOAD PUSH1 0x0 SWAP1 DUP2 MSTORE PUSH1 0xE DUP5 MSTORE SWAP5 DUP6 KECCAK256 PUSH1 0x3 ADD DUP1 SLOAD PUSH1 0x1 DUP1 DUP3 ADD DUP4 SSTORE SWAP2 DUP8 MSTORE SWAP4 SWAP1 SWAP6 KECCAK256 DUP5 MLOAD PUSH1 0x2 SWAP1 SWAP5 MUL ADD DUP1 SLOAD PUSH1 0x1 PUSH1 0x1 PUSH1 0xA0 SHL SUB NOT AND PUSH1 0x1 PUSH1 0x1 PUSH1 0xA0 SHL SUB SWAP1 SWAP5 AND SWAP4 SWAP1 SWAP4 OR DUP4 SSTORE SWAP1 MLOAD SWAP5 SWAP6 POP SWAP2 SWAP4 DUP5 SWAP4 SWAP2 SWAP3 PUSH2 0x24A0 SWAP3 DUP5 ADD SWAP2 SWAP1 PUSH2 0x2F32 JUMP JUMPDEST POP POP PUSH1 0x5 DUP1 SLOAD PUSH1 0x0 SWAP1 DUP2 MSTORE PUSH1 0xF PUSH1 0x20 SWAP1 DUP2 MSTORE PUSH1 0x40 DUP1 DUP4 KECCAK256 CALLER DUP5 MSTORE DUP3 MSTORE DUP3 KECCAK256 DUP1 SLOAD PUSH1 0x1 DUP1 DUP3 ADD DUP4 SSTORE SWAP2 DUP5 MSTORE SWAP3 DUP3 SWAP1 KECCAK256 DUP7 MLOAD PUSH1 0x2 SWAP1 SWAP5 MUL ADD DUP1 SLOAD PUSH1 0x1 PUSH1 0x1 PUSH1 0xA0 SHL SUB NOT AND PUSH1 0x1 PUSH1 0x1 PUSH1 0xA0 SHL SUB SWAP1 SWAP5 AND SWAP4 SWAP1 SWAP4 OR DUP4 SSTORE SWAP1 DUP6 ADD MLOAD DUP6 SWAP5 POP SWAP2 SWAP3 PUSH2 0x250A SWAP3 SWAP2 DUP5 ADD SWAP2 SWAP1 PUSH2 0x2F32 JUMP JUMPDEST POP POP PUSH1 0x5 SLOAD PUSH1 0x0 SWAP1 DUP2 MSTORE PUSH1 0xB PUSH1 0x20 MSTORE PUSH1 0x40 DUP2 KECCAK256 DUP1 SLOAD SWAP3 POP SWAP1 PUSH2 0x252B DUP4 PUSH2 0x353E JUMP JUMPDEST SWAP1 SWAP2 SSTORE POP POP PUSH1 0x5 SLOAD PUSH1 0x40 MLOAD CALLER SWAP2 PUSH32 0x3898084B2129DD1EEFB522DB8ED9FB6801A5B24DD6656F98DDFFCF157174AE45 SWAP2 PUSH2 0x2565 SWAP2 DUP7 SWAP2 PUSH2 0x3657 JUMP JUMPDEST PUSH1 0x40 MLOAD DUP1 SWAP2 SUB SWAP1 LOG2 POP POP DUP1 DUP1 PUSH2 0x257A SWAP1 PUSH2 0x3672 JUMP JUMPDEST SWAP2 POP POP PUSH2 0x2414 JUMP JUMPDEST POP PUSH1 0x5 SLOAD PUSH1 0x0 SWAP1 DUP2 MSTORE PUSH1 0xC PUSH1 0x20 SWAP1 DUP2 MSTORE PUSH1 0x40 DUP1 DUP4 KECCAK256 CALLER DUP5 MSTORE SWAP1 SWAP2 MSTORE SWAP1 KECCAK256 SLOAD PUSH1 0xFF AND PUSH2 0x25EC JUMPI PUSH1 0x5 DUP1 SLOAD PUSH1 0x0 SWAP1 DUP2 MSTORE PUSH1 0xC PUSH1 0x20 SWAP1 DUP2 MSTORE PUSH1 0x40 DUP1 DUP4 KECCAK256 CALLER DUP5 MSTORE DUP3 MSTORE DUP1 DUP4 KECCAK256 DUP1 SLOAD PUSH1 0xFF NOT AND PUSH1 0x1 OR SWAP1 SSTORE SWAP3 SLOAD DUP3 MSTORE PUSH1 0xD SWAP1 MSTORE SWAP1 DUP2 KECCAK256 DUP1 SLOAD SWAP2 PUSH2 0x25E6 DUP4 PUSH2 0x353E JUMP JUMPDEST SWAP2 SWAP1 POP SSTORE POP JUMPDEST POP POP POP POP POP JUMP JUMPDEST PUSH1 0xF PUSH1 0x20 MSTORE DUP3 PUSH1 0x0 MSTORE PUSH1 0x40 PUSH1 0x0 KECCAK256 PUSH1 0x20 MSTORE DUP2 PUSH1 0x0 MSTORE PUSH1 0x40 PUSH1 0x0 KECCAK256 DUP2 DUP2 SLOAD DUP2 LT PUSH2 0x261B JUMPI PUSH1 0x0 DUP1 REVERT JUMPDEST PUSH1 0x0 SWAP2 DUP3 MSTORE PUSH1 0x20 SWAP1 SWAP2 KECCAK256 PUSH1 0x2 SWAP1 SWAP2 MUL ADD SLOAD PUSH1 0x1 PUSH1 0x1 PUSH1 0xA0 SHL SUB AND SWAP3 POP DUP4 SWAP2 POP POP JUMP JUMPDEST PUSH2 0x2645 PUSH2 0x28FC JUMP JUMPDEST PUSH2 0x1105 DUP2 PUSH2 0x2D97 JUMP JUMPDEST PUSH2 0x2656 PUSH2 0x28FC JUMP JUMPDEST PUSH1 0x1 PUSH1 0x1 PUSH1 0xA0 SHL SUB DUP3 AND PUSH2 0x26AC JUMPI PUSH1 0x40 MLOAD PUSH3 0x461BCD PUSH1 0xE5 SHL DUP2 MSTORE PUSH1 0x20 PUSH1 0x4 DUP3 ADD MSTORE PUSH1 0x1B PUSH1 0x24 DUP3 ADD MSTORE PUSH32 0x496E76616C696420636F6F7264696E61746F7220616464726573730000000000 PUSH1 0x44 DUP3 ADD MSTORE PUSH1 0x64 ADD PUSH2 0xA45 JUMP JUMPDEST DUP1 PUSH2 0x26EC JUMPI PUSH1 0x40 MLOAD PUSH3 0x461BCD PUSH1 0xE5 SHL DUP2 MSTORE PUSH1 0x20 PUSH1 0x4 DUP3 ADD MSTORE PUSH1 0x10 PUSH1 0x24 DUP3 ADD MSTORE PUSH16 0x92DCECC2D8D2C840D6CAF240D0C2E6D PUSH1 0x83 SHL PUSH1 0x44 DUP3 ADD MSTORE PUSH1 0x64 ADD PUSH2 0xA45 JUMP JUMPDEST PUSH1 0x12 DUP1 SLOAD PUSH1 0x1 PUSH1 0x1 PUSH1 0xA0 SHL SUB NOT AND PUSH1 0x1 PUSH1 0x1 PUSH1 0xA0 SHL SUB SWAP4 SWAP1 SWAP4 AND SWAP3 SWAP1 SWAP3 OR SWAP1 SWAP2 SSTORE PUSH1 0x14 SSTORE JUMP JUMPDEST PUSH1 0x17 SLOAD PUSH1 0xFF AND PUSH2 0x2756 JUMPI PUSH1 0x40 MLOAD PUSH3 0x461BCD PUSH1 0xE5 SHL DUP2 MSTORE PUSH1 0x20 PUSH1 0x4 DUP3 ADD MSTORE PUSH1 0xF PUSH1 0x24 DUP3 ADD MSTORE PUSH15 0x4E6F20647261772070656E64696E67 PUSH1 0x88 SHL PUSH1 0x44 DUP3 ADD MSTORE PUSH1 0x64 ADD PUSH2 0xA45 JUMP JUMPDEST PUSH2 0x275E PUSH2 0x2F14 JUMP JUMPDEST PUSH1 0x0 DUP4 DUP4 PUSH1 0x0 DUP2 DUP2 LT PUSH2 0x2773 JUMPI PUSH2 0x2773 PUSH2 0x3557 JUMP JUMPDEST SWAP1 POP PUSH1 0x20 MUL ADD CALLDATALOAD SWAP1 POP PUSH1 0x0 JUMPDEST PUSH1 0x5 DUP2 PUSH1 0xFF AND LT ISZERO PUSH2 0x2874 JUMPI PUSH1 0x0 PUSH2 0x2798 PUSH1 0x32 DUP5 PUSH2 0x3691 JUMP JUMPDEST PUSH2 0x27A3 SWAP1 PUSH1 0x1 PUSH2 0x352B JUMP JUMPDEST SWAP1 POP PUSH1 0x0 DUP1 JUMPDEST DUP4 PUSH1 0xFF AND DUP2 LT ISZERO PUSH2 0x27F2 JUMPI DUP3 PUSH1 0xFF AND DUP7 DUP3 PUSH1 0x5 DUP2 LT PUSH2 0x27CA JUMPI PUSH2 0x27CA PUSH2 0x3557 JUMP JUMPDEST PUSH1 0x20 MUL ADD MLOAD PUSH1 0xFF AND SUB PUSH2 0x27E0 JUMPI PUSH1 0x1 SWAP2 POP PUSH2 0x27F2 JUMP JUMPDEST DUP1 PUSH2 0x27EA DUP2 PUSH2 0x353E JUMP JUMPDEST SWAP2 POP POP PUSH2 0x27A9 JUMP JUMPDEST POP DUP1 PUSH2 0x2829 JUMPI DUP2 DUP6 DUP5 PUSH1 0xFF AND PUSH1 0x5 DUP2 LT PUSH2 0x280E JUMPI PUSH2 0x280E PUSH2 0x3557 JUMP JUMPDEST PUSH1 0xFF SWAP1 SWAP3 AND PUSH1 0x20 SWAP3 SWAP1 SWAP3 MUL ADD MSTORE DUP3 PUSH2 0x2825 DUP2 PUSH2 0x3672 JUMP JUMPDEST SWAP4 POP POP JUMPDEST DUP4 DUP4 PUSH1 0x40 MLOAD PUSH1 0x20 ADD PUSH2 0x2852 SWAP3 SWAP2 SWAP1 SWAP2 DUP3 MSTORE PUSH1 0xF8 SHL PUSH1 0x1 PUSH1 0x1 PUSH1 0xF8 SHL SUB NOT AND PUSH1 0x20 DUP3 ADD MSTORE PUSH1 0x21 ADD SWAP1 JUMP JUMPDEST PUSH1 0x40 MLOAD PUSH1 0x20 DUP2 DUP4 SUB SUB DUP2 MSTORE SWAP1 PUSH1 0x40 MSTORE DUP1 MLOAD SWAP1 PUSH1 0x20 ADD KECCAK256 PUSH1 0x0 SHR SWAP4 POP POP POP PUSH2 0x277F JUMP JUMPDEST PUSH1 0x7 SLOAD PUSH1 0x0 SWAP1 DUP2 MSTORE PUSH1 0xE PUSH1 0x20 MSTORE PUSH1 0x40 SWAP1 KECCAK256 PUSH2 0x2894 SWAP1 PUSH1 0x2 ADD DUP5 PUSH1 0x5 PUSH2 0x2F32 JUMP JUMPDEST POP PUSH1 0x7 SLOAD PUSH1 0x0 SWAP1 DUP2 MSTORE PUSH1 0xE PUSH1 0x20 MSTORE PUSH1 0x40 SWAP1 KECCAK256 TIMESTAMP SWAP1 DUP2 SWAP1 SSTORE PUSH2 0x28B7 SWAP1 PUSH2 0xE10 PUSH2 0x352B JUMP JUMPDEST PUSH1 0x9 SSTORE PUSH1 0x40 MLOAD DUP7 SWAP1 PUSH32 0x27F7A4CFB91DD4DB4B9C99DF04F38BD5BF8EFFA9B1EF1DC67F92C0D087029CD5 SWAP1 PUSH2 0x28EC SWAP1 DUP7 SWAP1 PUSH2 0x3392 JUMP JUMPDEST PUSH1 0x40 MLOAD DUP1 SWAP2 SUB SWAP1 LOG2 POP POP POP POP POP POP JUMP JUMPDEST PUSH1 0x0 SLOAD PUSH1 0x1 PUSH1 0x1 PUSH1 0xA0 SHL SUB AND CALLER EQ PUSH2 0x1133 JUMPI PUSH1 0x40 MLOAD PUSH3 0x461BCD PUSH1 0xE5 SHL DUP2 MSTORE PUSH1 0x20 PUSH1 0x4 DUP3 ADD MSTORE PUSH1 0x16 PUSH1 0x24 DUP3 ADD MSTORE PUSH22 0x27B7363C9031B0B63630B1363290313C9037BBB732B9 PUSH1 0x51 SHL PUSH1 0x44 DUP3 ADD MSTORE PUSH1 0x64 ADD PUSH2 0xA45 JUMP JUMPDEST PUSH1 0x17 DUP1 SLOAD PUSH1 0x1 PUSH1 0xFF NOT SWAP2 DUP3 AND DUP2 OR SWAP1 SWAP3 SSTORE PUSH1 0x5 DUP1 SLOAD PUSH1 0x0 SWAP1 DUP2 MSTORE PUSH1 0x10 PUSH1 0x20 SWAP1 DUP2 MSTORE PUSH1 0x40 DUP1 DUP4 KECCAK256 DUP1 SLOAD SWAP1 SWAP6 AND DUP7 OR SWAP1 SWAP5 SSTORE SWAP2 SLOAD PUSH1 0x7 DUP2 SWAP1 SSTORE DUP2 MSTORE PUSH1 0xE DUP3 MSTORE DUP3 SWAP1 KECCAK256 SELFBALANCE SWAP1 DUP5 ADD SSTORE PUSH1 0x2 SLOAD DUP3 MLOAD PUSH1 0xC0 DUP2 ADD DUP5 MSTORE PUSH1 0x14 SLOAD DUP2 MSTORE PUSH1 0x13 SLOAD DUP2 DUP5 ADD MSTORE PUSH1 0x15 SLOAD PUSH5 0x100000000 DUP2 DIV PUSH2 0xFFFF AND DUP3 DUP7 ADD MSTORE PUSH4 0xFFFFFFFF DUP1 DUP3 AND PUSH1 0x60 DUP5 ADD MSTORE PUSH7 0x1000000000000 SWAP1 SWAP2 DIV AND PUSH1 0x80 DUP3 ADD MSTORE DUP4 MLOAD SWAP3 DUP4 ADD SWAP1 SWAP4 MSTORE SWAP3 DUP2 MSTORE PUSH1 0x1 PUSH1 0x1 PUSH1 0xA0 SHL SUB SWAP1 SWAP3 AND SWAP2 PUSH4 0x9B1C385E SWAP2 SWAP1 PUSH1 0xA0 DUP3 ADD SWAP1 PUSH2 0x2A08 SWAP1 PUSH2 0x2E40 JUMP JUMPDEST DUP2 MSTORE POP PUSH1 0x40 MLOAD DUP3 PUSH4 0xFFFFFFFF AND PUSH1 0xE0 SHL DUP2 MSTORE PUSH1 0x4 ADD PUSH2 0x2A27 SWAP2 SWAP1 PUSH2 0x36A5 JUMP JUMPDEST PUSH1 0x20 PUSH1 0x40 MLOAD DUP1 DUP4 SUB DUP2 PUSH1 0x0 DUP8 GAS CALL ISZERO DUP1 ISZERO PUSH2 0x2A46 JUMPI RETURNDATASIZE PUSH1 0x0 DUP1 RETURNDATACOPY RETURNDATASIZE PUSH1 0x0 REVERT JUMPDEST POP POP POP POP PUSH1 0x40 MLOAD RETURNDATASIZE PUSH1 0x1F NOT PUSH1 0x1F DUP3 ADD AND DUP3 ADD DUP1 PUSH1 0x40 MSTORE POP DUP2 ADD SWAP1 PUSH2 0x2A6A SWAP2 SWAP1 PUSH2 0x3702 JUMP JUMPDEST PUSH1 0x16 DUP2 DUP2 SSTORE PUSH1 0x0 SWAP2 DUP3 MSTORE PUSH1 0x18 PUSH1 0x20 MSTORE PUSH1 0x40 DUP1 DUP4 KECCAK256 DUP1 SLOAD PUSH1 0x1 PUSH1 0x1 PUSH1 0xA0 SHL SUB NOT AND CALLER OR SWAP1 SSTORE SWAP1 SLOAD SWAP1 MLOAD SWAP1 SWAP2 PUSH32 0xDAD2A728AC67E726695710E743BCE88EA2AAF66EF5795ABDA5E24FA7B7750D5F SWAP2 LOG2 PUSH1 0x7 SLOAD PUSH1 0x40 MLOAD PUSH32 0xE4873708E4FC11619230DD3506A5F7CB96ECE9D6D7B1C2EA9E7C46DAC3F10BAA SWAP1 PUSH1 0x0 SWAP1 LOG2 JUMP JUMPDEST PUSH1 0x2 PUSH1 0x1A SLOAD SUB PUSH2 0x2B37 JUMPI PUSH1 0x40 MLOAD PUSH3 0x461BCD PUSH1 0xE5 SHL DUP2 MSTORE PUSH1 0x20 PUSH1 0x4 DUP3 ADD MSTORE PUSH1 0x1F PUSH1 0x24 DUP3 ADD MSTORE PUSH32 0x5265656E7472616E637947756172643A207265656E7472616E742063616C6C00 PUSH1 0x44 DUP3 ADD MSTORE PUSH1 0x64 ADD PUSH2 0xA45 JUMP JUMPDEST PUSH1 0x2 PUSH1 0x1A SSTORE JUMP JUMPDEST PUSH1 0x0 DUP1 JUMPDEST PUSH1 0x5 DUP2 LT ISZERO PUSH2 0x2C0D JUMPI PUSH1 0x1 DUP4 DUP3 PUSH1 0x5 DUP2 LT PUSH2 0x2B5F JUMPI PUSH2 0x2B5F PUSH2 0x3557 JUMP JUMPDEST PUSH1 0x20 MUL ADD MLOAD PUSH1 0xFF AND LT DUP1 PUSH2 0x2B8C JUMPI POP PUSH1 0x32 DUP4 DUP3 PUSH1 0x5 DUP2 LT PUSH2 0x2B82 JUMPI PUSH2 0x2B82 PUSH2 0x3557 JUMP JUMPDEST PUSH1 0x20 MUL ADD MLOAD PUSH1 0xFF AND GT JUMPDEST ISZERO PUSH2 0x2B9A JUMPI POP PUSH1 0x0 SWAP3 SWAP2 POP POP JUMP JUMPDEST PUSH1 0x0 JUMPDEST DUP2 DUP2 LT ISZERO PUSH2 0x2BFA JUMPI DUP4 DUP2 PUSH1 0x5 DUP2 LT PUSH2 0x2BB7 JUMPI PUSH2 0x2BB7 PUSH2 0x3557 JUMP JUMPDEST PUSH1 0x20 MUL ADD MLOAD PUSH1 0xFF AND DUP5 DUP4 PUSH1 0x5 DUP2 LT PUSH2 0x2BD1 JUMPI PUSH2 0x2BD1 PUSH2 0x3557 JUMP JUMPDEST PUSH1 0x20 MUL ADD MLOAD PUSH1 0xFF AND SUB PUSH2 0x2BE8 JUMPI POP PUSH1 0x0 SWAP4 SWAP3 POP POP POP JUMP JUMPDEST DUP1 PUSH2 0x2BF2 DUP2 PUSH2 0x353E JUMP JUMPDEST SWAP2 POP POP PUSH2 0x2B9D JUMP JUMPDEST POP DUP1 PUSH2 0x2C05 DUP2 PUSH2 0x353E JUMP JUMPDEST SWAP2 POP POP PUSH2 0x2B42 JUMP JUMPDEST POP PUSH1 0x1 SWAP3 SWAP2 POP POP JUMP JUMPDEST PUSH2 0x2C1E PUSH2 0x2F14 JUMP JUMPDEST PUSH1 0x0 DUP1 TIMESTAMP CALLER PUSH1 0x19 SLOAD PUSH1 0x40 MLOAD PUSH1 0x20 ADD PUSH2 0x2C5B SWAP4 SWAP3 SWAP2 SWAP1 SWAP3 DUP4 MSTORE PUSH1 0x60 SWAP2 SWAP1 SWAP2 SHL PUSH12 0xFFFFFFFFFFFFFFFFFFFFFFFF NOT AND PUSH1 0x20 DUP4 ADD MSTORE PUSH1 0x34 DUP3 ADD MSTORE PUSH1 0x54 ADD SWAP1 JUMP JUMPDEST PUSH1 0x40 DUP1 MLOAD PUSH1 0x1F NOT DUP2 DUP5 SUB ADD DUP2 MSTORE SWAP2 SWAP1 MSTORE DUP1 MLOAD PUSH1 0x20 SWAP1 SWAP2 ADD KECCAK256 PUSH1 0x19 DUP1 SLOAD SWAP2 SWAP3 POP PUSH1 0x0 PUSH2 0x2C85 DUP4 PUSH2 0x353E JUMP JUMPDEST SWAP2 SWAP1 POP SSTORE POP JUMPDEST PUSH1 0x5 DUP3 PUSH1 0xFF AND LT ISZERO PUSH2 0x2D92 JUMPI PUSH1 0x0 PUSH2 0x2CA4 PUSH1 0x32 DUP4 PUSH2 0x3691 JUMP JUMPDEST PUSH2 0x2CAF SWAP1 PUSH1 0x1 PUSH2 0x352B JUMP JUMPDEST SWAP1 POP PUSH1 0x0 DUP1 JUMPDEST DUP5 PUSH1 0xFF AND DUP2 PUSH1 0xFF AND LT ISZERO PUSH2 0x2D04 JUMPI DUP3 PUSH1 0xFF AND DUP7 DUP3 PUSH1 0xFF AND PUSH1 0x5 DUP2 LT PUSH2 0x2CDC JUMPI PUSH2 0x2CDC PUSH2 0x3557 JUMP JUMPDEST PUSH1 0x20 MUL ADD MLOAD PUSH1 0xFF AND SUB PUSH2 0x2CF2 JUMPI PUSH1 0x1 SWAP2 POP PUSH2 0x2D04 JUMP JUMPDEST DUP1 PUSH2 0x2CFC DUP2 PUSH2 0x3672 JUMP JUMPDEST SWAP2 POP POP PUSH2 0x2CB5 JUMP JUMPDEST POP DUP1 PUSH2 0x2D3B JUMPI DUP2 DUP6 DUP6 PUSH1 0xFF AND PUSH1 0x5 DUP2 LT PUSH2 0x2D20 JUMPI PUSH2 0x2D20 PUSH2 0x3557 JUMP JUMPDEST PUSH1 0xFF SWAP1 SWAP3 AND PUSH1 0x20 SWAP3 SWAP1 SWAP3 MUL ADD MSTORE DUP4 PUSH2 0x2D37 DUP2 PUSH2 0x3672 JUMP JUMPDEST SWAP5 POP POP JUMPDEST DUP3 DUP5 PUSH1 0x19 SLOAD PUSH1 0x40 MLOAD PUSH1 0x20 ADD PUSH2 0x2D70 SWAP4 SWAP3 SWAP2 SWAP1 SWAP3 DUP4 MSTORE PUSH1 0xF8 SWAP2 SWAP1 SWAP2 SHL PUSH1 0x1 PUSH1 0x1 PUSH1 0xF8 SHL SUB NOT AND PUSH1 0x20 DUP4 ADD MSTORE PUSH1 0x21 DUP3 ADD MSTORE PUSH1 0x41 ADD SWAP1 JUMP JUMPDEST PUSH1 0x40 MLOAD PUSH1 0x20 DUP2 DUP4 SUB SUB DUP2 MSTORE SWAP1 PUSH1 0x40 MSTORE DUP1 MLOAD SWAP1 PUSH1 0x20 ADD KECCAK256 PUSH1 0x0 SHR SWAP3 POP POP POP PUSH2 0x2C8B JUMP JUMPDEST POP POP SWAP1 JUMP JUMPDEST CALLER PUSH1 0x1 PUSH1 0x1 PUSH1 0xA0 SHL SUB DUP3 AND SUB PUSH2 0x2DEF JUMPI PUSH1 0x40 MLOAD PUSH3 0x461BCD PUSH1 0xE5 SHL DUP2 MSTORE PUSH1 0x20 PUSH1 0x4 DUP3 ADD MSTORE PUSH1 0x17 PUSH1 0x24 DUP3 ADD MSTORE PUSH32 0x43616E6E6F74207472616E7366657220746F2073656C66000000000000000000 PUSH1 0x44 DUP3 ADD MSTORE PUSH1 0x64 ADD PUSH2 0xA45 JUMP JUMPDEST PUSH1 0x1 DUP1 SLOAD PUSH1 0x1 PUSH1 0x1 PUSH1 0xA0 SHL SUB NOT AND PUSH1 0x1 PUSH1 0x1 PUSH1 0xA0 SHL SUB DUP4 DUP2 AND SWAP2 DUP3 OR SWAP1 SWAP3 SSTORE PUSH1 0x0 DUP1 SLOAD PUSH1 0x40 MLOAD SWAP3 SWAP4 AND SWAP2 PUSH32 0xED8889F560326EB138920D842192F0EB3DD22B4F139C87A2C57538E05BAE1278 SWAP2 SWAP1 LOG3 POP JUMP JUMPDEST PUSH1 0x60 PUSH32 0x92FD13387C7FE7BEFBC38D303D6468778FB9731BC4583F17D92989C6FCFDEAAA DUP3 PUSH1 0x40 MLOAD PUSH1 0x24 ADD PUSH2 0x2E79 SWAP2 MLOAD ISZERO ISZERO DUP2 MSTORE PUSH1 0x20 ADD SWAP1 JUMP JUMPDEST PUSH1 0x40 DUP1 MLOAD PUSH1 0x1F NOT DUP2 DUP5 SUB ADD DUP2 MSTORE SWAP2 SWAP1 MSTORE PUSH1 0x20 DUP2 ADD DUP1 MLOAD PUSH1 0x1 PUSH1 0x1 PUSH1 0xE0 SHL SUB AND PUSH1 0x1 PUSH1 0x1 PUSH1 0xE0 SHL SUB NOT SWAP1 SWAP4 AND SWAP3 SWAP1 SWAP3 OR SWAP1 SWAP2 MSTORE SWAP3 SWAP2 POP POP JUMP JUMPDEST DUP3 DUP1 SLOAD DUP3 DUP3 SSTORE SWAP1 PUSH1 0x0 MSTORE PUSH1 0x20 PUSH1 0x0 KECCAK256 SWAP1 DUP2 ADD SWAP3 DUP3 ISZERO PUSH2 0x2F04 JUMPI SWAP2 PUSH1 0x20 MUL DUP3 ADD JUMPDEST DUP3 DUP2 GT ISZERO PUSH2 0x2F04 JUMPI DUP2 SLOAD PUSH1 0x1 PUSH1 0x1 PUSH1 0xA0 SHL SUB NOT AND PUSH1 0x1 PUSH1 0x1 PUSH1 0xA0 SHL SUB DUP5 CALLDATALOAD AND OR DUP3 SSTORE PUSH1 0x20 SWAP1 SWAP3 ADD SWAP2 PUSH1 0x1 SWAP1 SWAP2 ADD SWAP1 PUSH2 0x2ED1 JUMP JUMPDEST POP PUSH2 0x2F10 SWAP3 SWAP2 POP PUSH2 0x2FBC JUMP JUMPDEST POP SWAP1 JUMP JUMPDEST PUSH1 0x40 MLOAD DUP1 PUSH1 0xA0 ADD PUSH1 0x40 MSTORE DUP1 PUSH1 0x5 SWAP1 PUSH1 0x20 DUP3 MUL DUP1 CALLDATASIZE DUP4 CALLDATACOPY POP SWAP2 SWAP3 SWAP2 POP POP JUMP JUMPDEST PUSH1 0x1 DUP4 ADD SWAP2 DUP4 SWAP1 DUP3 ISZERO PUSH2 0x2F04 JUMPI SWAP2 PUSH1 0x20 MUL DUP3 ADD PUSH1 0x0 JUMPDEST DUP4 DUP3 GT ISZERO PUSH2 0x2F86 JUMPI DUP4 MLOAD DUP4 DUP3 PUSH2 0x100 EXP DUP2 SLOAD DUP2 PUSH1 0xFF MUL NOT AND SWAP1 DUP4 PUSH1 0xFF AND MUL OR SWAP1 SSTORE POP SWAP3 PUSH1 0x20 ADD SWAP3 PUSH1 0x1 ADD PUSH1 0x20 DUP2 PUSH1 0x0 ADD DIV SWAP3 DUP4 ADD SWAP3 PUSH1 0x1 SUB MUL PUSH2 0x2F48 JUMP JUMPDEST DUP1 ISZERO PUSH2 0x2FB3 JUMPI DUP3 DUP2 PUSH2 0x100 EXP DUP2 SLOAD SWAP1 PUSH1 0xFF MUL NOT AND SWAP1 SSTORE PUSH1 0x1 ADD PUSH1 0x20 DUP2 PUSH1 0x0 ADD DIV SWAP3 DUP4 ADD SWAP3 PUSH1 0x1 SUB MUL PUSH2 0x2F86 JUMP JUMPDEST POP POP PUSH2 0x2F10 SWAP3 SWAP2 POP JUMPDEST JUMPDEST DUP1 DUP3 GT ISZERO PUSH2 0x2F10 JUMPI PUSH1 0x0 DUP2 SSTORE PUSH1 0x1 ADD PUSH2 0x2FBD JUMP JUMPDEST PUSH1 0x0 PUSH1 0x20 DUP3 DUP5 SUB SLT ISZERO PUSH2 0x2FE3 JUMPI PUSH1 0x0 DUP1 REVERT JUMPDEST POP CALLDATALOAD SWAP2 SWAP1 POP JUMP JUMPDEST PUSH1 0x0 DUP1 DUP4 PUSH1 0x1F DUP5 ADD SLT PUSH2 0x2FFC JUMPI PUSH1 0x0 DUP1 REVERT JUMPDEST POP DUP2 CALLDATALOAD PUSH8 0xFFFFFFFFFFFFFFFF DUP2 GT ISZERO PUSH2 0x3014 JUMPI PUSH1 0x0 DUP1 REVERT JUMPDEST PUSH1 0x20 DUP4 ADD SWAP2 POP DUP4 PUSH1 0x20 DUP3 PUSH1 0x5 SHL DUP6 ADD ADD GT ISZERO PUSH2 0x1242 JUMPI PUSH1 0x0 DUP1 REVERT JUMPDEST PUSH1 0x0 DUP1 PUSH1 0x0 PUSH1 0x40 DUP5 DUP7 SUB SLT ISZERO PUSH2 0x3044 JUMPI PUSH1 0x0 DUP1 REVERT JUMPDEST DUP4 CALLDATALOAD SWAP3 POP PUSH1 0x20 DUP5 ADD CALLDATALOAD PUSH8 0xFFFFFFFFFFFFFFFF DUP2 GT ISZERO PUSH2 0x3062 JUMPI PUSH1 0x0 DUP1 REVERT JUMPDEST PUSH2 0x306E DUP7 DUP3 DUP8 ADD PUSH2 0x2FEA JUMP JUMPDEST SWAP5 SWAP8 SWAP1 SWAP7 POP SWAP4 SWAP5 POP POP POP POP JUMP JUMPDEST PUSH1 0x0 PUSH1 0x20 DUP3 DUP5 SUB SLT ISZERO PUSH2 0x308D JUMPI PUSH1 0x0 DUP1 REVERT JUMPDEST DUP2 CALLDATALOAD DUP1 ISZERO ISZERO DUP2 EQ PUSH2 0x309D JUMPI PUSH1 0x0 DUP1 REVERT JUMPDEST SWAP4 SWAP3 POP POP POP JUMP JUMPDEST PUSH1 0x0 DUP1 PUSH1 0x20 DUP4 DUP6 SUB SLT ISZERO PUSH2 0x30B7 JUMPI PUSH1 0x0 DUP1 REVERT JUMPDEST DUP3 CALLDATALOAD PUSH8 0xFFFFFFFFFFFFFFFF DUP1 DUP3 GT ISZERO PUSH2 0x30CF JUMPI PUSH1 0x0 DUP1 REVERT JUMPDEST DUP2 DUP6 ADD SWAP2 POP DUP6 PUSH1 0x1F DUP4 ADD SLT PUSH2 0x30E3 JUMPI PUSH1 0x0 DUP1 REVERT JUMPDEST DUP2 CALLDATALOAD DUP2 DUP2 GT ISZERO PUSH2 0x30F2 JUMPI PUSH1 0x0 DUP1 REVERT JUMPDEST DUP7 PUSH1 0x20 DUP3 DUP6 ADD ADD GT ISZERO PUSH2 0x3104 JUMPI PUSH1 0x0 DUP1 REVERT JUMPDEST PUSH1 0x20 SWAP3 SWAP1 SWAP3 ADD SWAP7 SWAP2 SWAP6 POP SWAP1 SWAP4 POP POP POP POP JUMP JUMPDEST PUSH1 0x0 DUP1 PUSH1 0x0 DUP1 PUSH1 0x0 DUP1 PUSH1 0x0 PUSH1 0x80 DUP9 DUP11 SUB SLT ISZERO PUSH2 0x3131 JUMPI PUSH1 0x0 DUP1 REVERT JUMPDEST DUP8 CALLDATALOAD SWAP7 POP PUSH1 0x20 DUP9 ADD CALLDATALOAD PUSH8 0xFFFFFFFFFFFFFFFF DUP1 DUP3 GT ISZERO PUSH2 0x3150 JUMPI PUSH1 0x0 DUP1 REVERT JUMPDEST PUSH2 0x315C DUP12 DUP4 DUP13 ADD PUSH2 0x2FEA JUMP JUMPDEST SWAP1 SWAP9 POP SWAP7 POP PUSH1 0x40 DUP11 ADD CALLDATALOAD SWAP2 POP DUP1 DUP3 GT ISZERO PUSH2 0x3175 JUMPI PUSH1 0x0 DUP1 REVERT JUMPDEST PUSH2 0x3181 DUP12 DUP4 DUP13 ADD PUSH2 0x2FEA JUMP JUMPDEST SWAP1 SWAP7 POP SWAP5 POP PUSH1 0x60 DUP11 ADD CALLDATALOAD SWAP2 POP DUP1 DUP3 GT ISZERO PUSH2 0x319A JUMPI PUSH1 0x0 DUP1 REVERT JUMPDEST POP PUSH2 0x31A7 DUP11 DUP3 DUP12 ADD PUSH2 0x2FEA JUMP JUMPDEST SWAP9 SWAP12 SWAP8 SWAP11 POP SWAP6 SWAP9 POP SWAP4 SWAP7 SWAP3 SWAP6 SWAP3 SWAP4 POP POP POP JUMP JUMPDEST DUP1 CALLDATALOAD PUSH1 0x1 PUSH1 0x1 PUSH1 0xA0 SHL SUB DUP2 AND DUP2 EQ PUSH2 0x31D1 JUMPI PUSH1 0x0 DUP1 REVERT JUMPDEST SWAP2 SWAP1 POP JUMP JUMPDEST PUSH1 0x0 PUSH1 0x20 DUP3 DUP5 SUB SLT ISZERO PUSH2 0x31E8 JUMPI PUSH1 0x0 DUP1 REVERT JUMPDEST PUSH2 0x309D DUP3 PUSH2 0x31BA JUMP JUMPDEST DUP1 CALLDATALOAD PUSH1 0xFF DUP2 AND DUP2 EQ PUSH2 0x31D1 JUMPI PUSH1 0x0 DUP1 REVERT JUMPDEST PUSH1 0x0 PUSH1 0x20 DUP3 DUP5 SUB SLT ISZERO PUSH2 0x3214 JUMPI PUSH1 0x0 DUP1 REVERT JUMPDEST PUSH2 0x309D DUP3 PUSH2 0x31F1 JUMP JUMPDEST PUSH1 0x0 DUP2 MLOAD DUP1 DUP5 MSTORE PUSH1 0x0 JUMPDEST DUP2 DUP2 LT ISZERO PUSH2 0x3243 JUMPI PUSH1 0x20 DUP2 DUP6 ADD DUP2 ADD MLOAD DUP7 DUP4 ADD DUP3 ADD MSTORE ADD PUSH2 0x3227 JUMP JUMPDEST POP PUSH1 0x0 PUSH1 0x20 DUP3 DUP7 ADD ADD MSTORE PUSH1 0x20 PUSH1 0x1F NOT PUSH1 0x1F DUP4 ADD AND DUP6 ADD ADD SWAP2 POP POP SWAP3 SWAP2 POP POP JUMP JUMPDEST DUP3 ISZERO ISZERO DUP2 MSTORE PUSH1 0x40 PUSH1 0x20 DUP3 ADD MSTORE PUSH1 0x0 PUSH2 0x1220 PUSH1 0x40 DUP4 ADD DUP5 PUSH2 0x321D JUMP JUMPDEST PUSH1 0x0 DUP2 MLOAD DUP1 DUP5 MSTORE PUSH1 0x20 DUP1 DUP6 ADD SWAP5 POP DUP1 DUP5 ADD PUSH1 0x0 JUMPDEST DUP4 DUP2 LT ISZERO PUSH2 0x32B7 JUMPI DUP2 MLOAD PUSH1 0x1 PUSH1 0x1 PUSH1 0xA0 SHL SUB AND DUP8 MSTORE SWAP6 DUP3 ADD SWAP6 SWAP1 DUP3 ADD SWAP1 PUSH1 0x1 ADD PUSH2 0x3292 JUMP JUMPDEST POP SWAP5 SWAP6 SWAP5 POP POP POP POP POP JUMP JUMPDEST PUSH1 0x60 DUP2 MSTORE PUSH1 0x0 PUSH2 0x32D5 PUSH1 0x60 DUP4 ADD DUP7 PUSH2 0x327E JUMP JUMPDEST DUP3 DUP2 SUB PUSH1 0x20 DUP5 ADD MSTORE PUSH2 0x32E7 DUP2 DUP7 PUSH2 0x327E JUMP JUMPDEST SWAP1 POP DUP3 DUP2 SUB PUSH1 0x40 DUP5 ADD MSTORE PUSH2 0x32FB DUP2 DUP6 PUSH2 0x327E JUMP JUMPDEST SWAP7 SWAP6 POP POP POP POP POP POP JUMP JUMPDEST DUP1 PUSH1 0x0 JUMPDEST PUSH1 0x5 DUP2 LT ISZERO PUSH2 0x332B JUMPI DUP2 MLOAD PUSH1 0xFF AND DUP5 MSTORE PUSH1 0x20 SWAP4 DUP5 ADD SWAP4 SWAP1 SWAP2 ADD SWAP1 PUSH1 0x1 ADD PUSH2 0x3309 JUMP JUMPDEST POP POP POP POP JUMP JUMPDEST PUSH1 0x40 DUP2 MSTORE PUSH1 0x0 PUSH2 0x3344 PUSH1 0x40 DUP4 ADD DUP6 PUSH2 0x327E JUMP JUMPDEST DUP3 DUP2 SUB PUSH1 0x20 DUP5 DUP2 ADD SWAP2 SWAP1 SWAP2 MSTORE DUP5 MLOAD DUP1 DUP4 MSTORE DUP6 DUP3 ADD SWAP3 DUP3 ADD SWAP1 PUSH1 0x0 JUMPDEST DUP2 DUP2 LT ISZERO PUSH2 0x3385 JUMPI PUSH2 0x3372 DUP4 DUP7 MLOAD PUSH2 0x3305 JUMP JUMPDEST SWAP4 DUP4 ADD SWAP4 PUSH1 0xA0 SWAP3 SWAP1 SWAP3 ADD SWAP2 PUSH1 0x1 ADD PUSH2 0x335F JUMP JUMPDEST POP SWAP1 SWAP8 SWAP7 POP POP POP POP POP POP POP JUMP JUMPDEST PUSH1 0xA0 DUP2 ADD PUSH2 0x33A0 DUP3 DUP5 PUSH2 0x3305 JUMP JUMPDEST SWAP3 SWAP2 POP POP JUMP JUMPDEST PUSH1 0x0 PUSH1 0x20 DUP3 DUP5 SUB SLT ISZERO PUSH2 0x33B8 JUMPI PUSH1 0x0 DUP1 REVERT JUMPDEST DUP2 CALLDATALOAD PUSH4 0xFFFFFFFF DUP2 AND DUP2 EQ PUSH2 0x309D JUMPI PUSH1 0x0 DUP1 REVERT JUMPDEST PUSH4 0x4E487B71 PUSH1 0xE0 SHL PUSH1 0x0 MSTORE PUSH1 0x41 PUSH1 0x4 MSTORE PUSH1 0x24 PUSH1 0x0 REVERT JUMPDEST PUSH1 0x0 PUSH1 0xA0 DUP3 DUP5 SUB SLT ISZERO PUSH2 0x33F4 JUMPI PUSH1 0x0 DUP1 REVERT JUMPDEST DUP3 PUSH1 0x1F DUP4 ADD SLT PUSH2 0x3403 JUMPI PUSH1 0x0 DUP1 REVERT JUMPDEST PUSH1 0x40 MLOAD PUSH1 0xA0 DUP2 ADD DUP2 DUP2 LT PUSH8 0xFFFFFFFFFFFFFFFF DUP3 GT OR ISZERO PUSH2 0x3434 JUMPI PUSH4 0x4E487B71 PUSH1 0xE0 SHL PUSH1 0x0 MSTORE PUSH1 0x41 PUSH1 0x4 MSTORE PUSH1 0x24 PUSH1 0x0 REVERT JUMPDEST PUSH1 0x40 MSTORE DUP1 PUSH1 0xA0 DUP5 ADD DUP6 DUP2 GT ISZERO PUSH2 0x3449 JUMPI PUSH1 0x0 DUP1 REVERT JUMPDEST DUP5 JUMPDEST DUP2 DUP2 LT ISZERO PUSH2 0x346A JUMPI PUSH2 0x345C DUP2 PUSH2 0x31F1 JUMP JUMPDEST DUP4 MSTORE PUSH1 0x20 SWAP3 DUP4 ADD SWAP3 ADD PUSH2 0x344B JUMP JUMPDEST POP SWAP2 SWAP6 SWAP5 POP POP POP POP POP JUMP JUMPDEST PUSH1 0x0 DUP1 PUSH1 0x0 PUSH1 0x60 DUP5 DUP7 SUB SLT ISZERO PUSH2 0x348A JUMPI PUSH1 0x0 DUP1 REVERT JUMPDEST DUP4 CALLDATALOAD SWAP3 POP PUSH2 0x349A PUSH1 0x20 DUP6 ADD PUSH2 0x31BA JUMP JUMPDEST SWAP2 POP PUSH1 0x40 DUP5 ADD CALLDATALOAD SWAP1 POP SWAP3 POP SWAP3 POP SWAP3 JUMP JUMPDEST PUSH1 0x0 DUP1 PUSH1 0x40 DUP4 DUP6 SUB SLT ISZERO PUSH2 0x34BD JUMPI PUSH1 0x0 DUP1 REVERT JUMPDEST PUSH2 0x34C6 DUP4 PUSH2 0x31BA JUMP JUMPDEST SWAP5 PUSH1 0x20 SWAP4 SWAP1 SWAP4 ADD CALLDATALOAD SWAP4 POP POP POP JUMP JUMPDEST PUSH4 0x4E487B71 PUSH1 0xE0 SHL PUSH1 0x0 MSTORE PUSH1 0x11 PUSH1 0x4 MSTORE PUSH1 0x24 PUSH1 0x0 REVERT JUMPDEST DUP1 DUP3 MUL DUP2 ISZERO DUP3 DUP3 DIV DUP5 EQ OR PUSH2 0x33A0 JUMPI PUSH2 0x33A0 PUSH2 0x34D4 JUMP JUMPDEST PUSH4 0x4E487B71 PUSH1 0xE0 SHL PUSH1 0x0 MSTORE PUSH1 0x12 PUSH1 0x4 MSTORE PUSH1 0x24 PUSH1 0x0 REVERT JUMPDEST PUSH1 0x0 DUP3 PUSH2 0x3526 JUMPI PUSH2 0x3526 PUSH2 0x3501 JUMP JUMPDEST POP DIV SWAP1 JUMP JUMPDEST DUP1 DUP3 ADD DUP1 DUP3 GT ISZERO PUSH2 0x33A0 JUMPI PUSH2 0x33A0 PUSH2 0x34D4 JUMP JUMPDEST PUSH1 0x0 PUSH1 0x1 DUP3 ADD PUSH2 0x3550 JUMPI PUSH2 0x3550 PUSH2 0x34D4 JUMP JUMPDEST POP PUSH1 0x1 ADD SWAP1 JUMP JUMPDEST PUSH4 0x4E487B71 PUSH1 0xE0 SHL PUSH1 0x0 MSTORE PUSH1 0x32 PUSH1 0x4 MSTORE PUSH1 0x24 PUSH1 0x0 REVERT JUMPDEST DUP1 MLOAD PUSH10 0xFFFFFFFFFFFFFFFFFFFF DUP2 AND DUP2 EQ PUSH2 0x31D1 JUMPI PUSH1 0x0 DUP1 REVERT JUMPDEST PUSH1 0x0 DUP1 PUSH1 0x0 DUP1 PUSH1 0x0 PUSH1 0xA0 DUP7 DUP9 SUB SLT ISZERO PUSH2 0x359F JUMPI PUSH1 0x0 DUP1 REVERT JUMPDEST PUSH2 0x35A8 DUP7 PUSH2 0x356D JUMP JUMPDEST SWAP5 POP PUSH1 0x20 DUP7 ADD MLOAD SWAP4 POP PUSH1 0x40 DUP7 ADD MLOAD SWAP3 POP PUSH1 0x60 DUP7 ADD MLOAD SWAP2 POP PUSH2 0x35CB PUSH1 0x80 DUP8 ADD PUSH2 0x356D JUMP JUMPDEST SWAP1 POP SWAP3 SWAP6 POP SWAP3 SWAP6 SWAP1 SWAP4 POP JUMP JUMPDEST PUSH1 0x20 DUP1 DUP3 MSTORE PUSH1 0x12 SWAP1 DUP3 ADD MSTORE PUSH18 0x10DBDB9D1C9858DD081A5CC81C185D5CD959 PUSH1 0x72 SHL PUSH1 0x40 DUP3 ADD MSTORE PUSH1 0x60 ADD SWAP1 JUMP JUMPDEST PUSH1 0x20 DUP1 DUP3 MSTORE PUSH1 0xC SWAP1 DUP3 ADD MSTORE PUSH12 0x149BDD5B99081B1BD8DAD959 PUSH1 0xA2 SHL PUSH1 0x40 DUP3 ADD MSTORE PUSH1 0x60 ADD SWAP1 JUMP JUMPDEST PUSH1 0x20 DUP1 DUP3 MSTORE PUSH1 0x14 SWAP1 DUP3 ADD MSTORE PUSH20 0x125B98DBDC9C9958DD0810939088185B5BDD5B9D PUSH1 0x62 SHL PUSH1 0x40 DUP3 ADD MSTORE PUSH1 0x60 ADD SWAP1 JUMP JUMPDEST PUSH1 0xC0 DUP2 ADD PUSH2 0x3665 DUP3 DUP6 PUSH2 0x3305 JUMP JUMPDEST DUP3 PUSH1 0xA0 DUP4 ADD MSTORE SWAP4 SWAP3 POP POP POP JUMP JUMPDEST PUSH1 0x0 PUSH1 0xFF DUP3 AND PUSH1 0xFF DUP2 SUB PUSH2 0x3688 JUMPI PUSH2 0x3688 PUSH2 0x34D4 JUMP JUMPDEST PUSH1 0x1 ADD SWAP3 SWAP2 POP POP JUMP JUMPDEST PUSH1 0x0 DUP3 PUSH2 0x36A0 JUMPI PUSH2 0x36A0 PUSH2 0x3501 JUMP JUMPDEST POP MOD SWAP1 JUMP JUMPDEST PUSH1 0x20 DUP2 MSTORE DUP2 MLOAD PUSH1 0x20 DUP3 ADD MSTORE PUSH1 0x20 DUP3 ADD MLOAD PUSH1 0x40 DUP3 ADD MSTORE PUSH2 0xFFFF PUSH1 0x40 DUP4 ADD MLOAD AND PUSH1 0x60 DUP3 ADD MSTORE PUSH1 0x0 PUSH1 0x60 DUP4 ADD MLOAD PUSH4 0xFFFFFFFF DUP1 DUP3 AND PUSH1 0x80 DUP6 ADD MSTORE DUP1 PUSH1 0x80 DUP7 ADD MLOAD AND PUSH1 0xA0 DUP6 ADD MSTORE POP POP PUSH1 0xA0 DUP4 ADD MLOAD PUSH1 0xC0 DUP1 DUP5 ADD MSTORE PUSH2 0x1220 PUSH1 0xE0 DUP5 ADD DUP3 PUSH2 0x321D JUMP JUMPDEST PUSH1 0x0 PUSH1 0x20 DUP3 DUP5 SUB SLT ISZERO PUSH2 0x3714 JUMPI PUSH1 0x0 DUP1 REVERT JUMPDEST POP MLOAD SWAP2 SWAP1 POP JUMP INVALID LOG2 PUSH5 0x6970667358 0x22 SLT KECCAK256 SHL REVERT REVERT 0x4A 0x21 0xEC ADDMOD 0xAA EXP 0xA6 PUSH16 0x64606075F34536BEB6132A6169C7D6C3 NUMBER INVALID PUSH28 0x62C564736F6C63430008130033000000000000000000000000000000 "
		},
		"gasEstimates": {
			"creation": {
				"codeDepositCost": "2832200",
				"executionCost": "infinite",
				"totalCost": "infinite"
			},
			"external": {
				"acceptOwnership()": "52389",
				"allRounds(uint256)": "15389",
				"automationRegistry()": "2449",
				"bulkTicketsWithRandomNumbers(uint8)": "infinite",
				"buyTicket(uint8[5])": "infinite",
				"buyTicketWithRandomNumbers()": "infinite",
				"callbackGasLimit()": "2404",
				"checkUpkeep(bytes)": "3002",
				"currentRound()": "2363",
				"distributePrizes(uint8)": "infinite",
				"drawNumbers()": "infinite",
				"drawNumbersManually(uint8[5])": "infinite",
				"emergencyWithdraw()": "infinite",
				"fundPrizePool()": "3875",
				"getAllTicketsForRound(uint256)": "infinite",
				"getMyTickets(uint256)": "infinite",
				"getPrizePoolInUSD()": "infinite",
				"getWinningAddresses(uint256)": "infinite",
				"getWinningNumbers(uint256)": "infinite",
				"getusdTicketPriceInBNB()": "infinite",
				"lastDrawTime()": "2385",
				"lastRequestId()": "2427",
				"numWords()": "2436",
				"owner()": "2443",
				"pause()": "26599",
				"paused()": "2367",
				"pendingDraw()": "2345",
				"performUpkeep(bytes)": "infinite",
				"playerTickets(uint256,address,uint256)": "4977",
				"rawFulfillRandomWords(uint256,uint256[])": "infinite",
				"requestConfirmations()": "2435",
				"roundInProgress()": "2361",
				"roundLocked(uint256)": "2486",
				"s_keyHash()": "2386",
				"s_subscriptionId()": "2385",
				"s_vrfCoordinator()": "2449",
				"setAutomationRegistry(address)": "26904",
				"setCallbackGasLimit(uint32)": "26763",
				"setCoordinator(address)": "30112",
				"setPendingDraw(bool)": "26748",
				"setUsdTicketPrice(uint256)": "24601",
				"setWinnersSubmitted(bool)": "26771",
				"submitWinners(uint256,address[],address[],address[])": "infinite",
				"totalTicketsPerDraw(uint256)": "2549",
				"transferOwnership(address)": "30524",
				"uniqueParticipantsPerDraw(uint256)": "2550",
				"unpause()": "26683",
				"updatePriceFeed(address)": "26838",
				"updateSubscriptionId(uint256)": "24646",
				"updateVRFSettings(address,bytes32)": "49024",
				"usdTicketPrice()": "2363",
				"winnerSubmissionDeadline()": "2429",
				"winnersSubmitted()": "2388"
			}
		},
		"methodIdentifiers": {
			"acceptOwnership()": "79ba5097",
			"allRounds(uint256)": "e1bf07b7",
			"automationRegistry()": "5dc228a0",
			"bulkTicketsWithRandomNumbers(uint8)": "dc65c843",
			"buyTicket(uint8[5])": "cc957f28",
			"buyTicketWithRandomNumbers()": "b933dcba",
			"callbackGasLimit()": "24f74697",
			"checkUpkeep(bytes)": "6e04ff0d",
			"currentRound()": "8a19c8bc",
			"distributePrizes(uint8)": "61edf9b2",
			"drawNumbers()": "676c902f",
			"drawNumbersManually(uint8[5])": "b2189cac",
			"emergencyWithdraw()": "db2e21bc",
			"fundPrizePool()": "88b2f7c3",
			"getAllTicketsForRound(uint256)": "85705ad3",
			"getMyTickets(uint256)": "c81d9217",
			"getPrizePoolInUSD()": "6a91da2b",
			"getWinningAddresses(uint256)": "75b26d21",
			"getWinningNumbers(uint256)": "9d5c35ae",
			"getusdTicketPriceInBNB()": "d11532b7",
			"lastDrawTime()": "5cbbd635",
			"lastRequestId()": "fc2a88c3",
			"numWords()": "7ccfd7fc",
			"owner()": "8da5cb5b",
			"pause()": "8456cb59",
			"paused()": "5c975abb",
			"pendingDraw()": "88ed5d64",
			"performUpkeep(bytes)": "4585e33b",
			"playerTickets(uint256,address,uint256)": "dc7fe6a5",
			"rawFulfillRandomWords(uint256,uint256[])": "1fe543e3",
			"requestConfirmations()": "b0fb162f",
			"roundInProgress()": "ea5ab0ba",
			"roundLocked(uint256)": "1706672a",
			"s_keyHash()": "45bb327b",
			"s_subscriptionId()": "8ac00021",
			"s_vrfCoordinator()": "9eccacf6",
			"setAutomationRegistry(address)": "5ff2d2aa",
			"setCallbackGasLimit(uint32)": "a4eb718c",
			"setCoordinator(address)": "8ea98117",
			"setPendingDraw(bool)": "667640eb",
			"setUsdTicketPrice(uint256)": "bc076f52",
			"setWinnersSubmitted(bool)": "25d75795",
			"submitWinners(uint256,address[],address[],address[])": "4ac2a741",
			"totalTicketsPerDraw(uint256)": "87cc17b1",
			"transferOwnership(address)": "f2fde38b",
			"uniqueParticipantsPerDraw(uint256)": "c3279f8f",
			"unpause()": "3f4ba83a",
			"updatePriceFeed(address)": "95877f78",
			"updateSubscriptionId(uint256)": "2b09d310",
			"updateVRFSettings(address,bytes32)": "f664e752",
			"usdTicketPrice()": "63ecd0c3",
			"winnerSubmissionDeadline()": "8ea2d9ef",
			"winnersSubmitted()": "a9ecbf69"
		}
	},
	"abi": [
		{
			"inputs": [
				{
					"internalType": "uint256",
					"name": "subscriptionId",
					"type": "uint256"
				}
			],
			"stateMutability": "nonpayable",
			"type": "constructor"
		},
		{
			"inputs": [
				{
					"internalType": "address",
					"name": "have",
					"type": "address"
				},
				{
					"internalType": "address",
					"name": "want",
					"type": "address"
				}
			],
			"name": "OnlyCoordinatorCanFulfill",
			"type": "error"
		},
		{
			"inputs": [
				{
					"internalType": "address",
					"name": "have",
					"type": "address"
				},
				{
					"internalType": "address",
					"name": "owner",
					"type": "address"
				},
				{
					"internalType": "address",
					"name": "coordinator",
					"type": "address"
				}
			],
			"name": "OnlyOwnerOrCoordinator",
			"type": "error"
		},
		{
			"inputs": [],
			"name": "ZeroAddress",
			"type": "error"
		},
		{
			"anonymous": false,
			"inputs": [
				{
					"indexed": false,
					"internalType": "address",
					"name": "vrfCoordinator",
					"type": "address"
				}
			],
			"name": "CoordinatorSet",
			"type": "event"
		},
		{
			"anonymous": false,
			"inputs": [
				{
					"indexed": true,
					"internalType": "uint256",
					"name": "requestId",
					"type": "uint256"
				},
				{
					"indexed": false,
					"internalType": "uint8[5]",
					"name": "winningNumbers",
					"type": "uint8[5]"
				}
			],
			"name": "DrawFulfilled",
			"type": "event"
		},
		{
			"anonymous": false,
			"inputs": [
				{
					"indexed": true,
					"internalType": "uint256",
					"name": "requestId",
					"type": "uint256"
				}
			],
			"name": "DrawRequested",
			"type": "event"
		},
		{
			"anonymous": false,
			"inputs": [
				{
					"indexed": true,
					"internalType": "uint256",
					"name": "round",
					"type": "uint256"
				}
			],
			"name": "DrawStarted",
			"type": "event"
		},
		{
			"anonymous": false,
			"inputs": [
				{
					"indexed": false,
					"internalType": "uint256",
					"name": "amount",
					"type": "uint256"
				},
				{
					"indexed": false,
					"internalType": "address",
					"name": "recipient",
					"type": "address"
				}
			],
			"name": "EmergencyWithdrawal",
			"type": "event"
		},
		{
			"anonymous": false,
			"inputs": [
				{
					"indexed": true,
					"internalType": "address",
					"name": "from",
					"type": "address"
				},
				{
					"indexed": true,
					"internalType": "address",
					"name": "to",
					"type": "address"
				}
			],
			"name": "OwnershipTransferRequested",
			"type": "event"
		},
		{
			"anonymous": false,
			"inputs": [
				{
					"indexed": true,
					"internalType": "address",
					"name": "from",
					"type": "address"
				},
				{
					"indexed": true,
					"internalType": "address",
					"name": "to",
					"type": "address"
				}
			],
			"name": "OwnershipTransferred",
			"type": "event"
		},
		{
			"anonymous": false,
			"inputs": [
				{
					"indexed": true,
					"internalType": "address",
					"name": "sender",
					"type": "address"
				},
				{
					"indexed": false,
					"internalType": "uint256",
					"name": "amount",
					"type": "uint256"
				}
			],
			"name": "PrizePoolFunded",
			"type": "event"
		},
		{
			"anonymous": false,
			"inputs": [
				{
					"indexed": true,
					"internalType": "uint256",
					"name": "round",
					"type": "uint256"
				},
				{
					"indexed": false,
					"internalType": "uint8",
					"name": "tier",
					"type": "uint8"
				}
			],
			"name": "PrizesDistributed",
			"type": "event"
		},
		{
			"anonymous": false,
			"inputs": [
				{
					"indexed": true,
					"internalType": "address",
					"name": "player",
					"type": "address"
				},
				{
					"indexed": false,
					"internalType": "uint8[5]",
					"name": "numbers",
					"type": "uint8[5]"
				},
				{
					"indexed": false,
					"internalType": "uint256",
					"name": "round",
					"type": "uint256"
				}
			],
			"name": "TicketPurchased",
			"type": "event"
		},
		{
			"anonymous": false,
			"inputs": [
				{
					"indexed": true,
					"internalType": "uint256",
					"name": "round",
					"type": "uint256"
				}
			],
			"name": "WinnersSubmitted",
			"type": "event"
		},
		{
			"inputs": [],
			"name": "acceptOwnership",
			"outputs": [],
			"stateMutability": "nonpayable",
			"type": "function"
		},
		{
			"inputs": [
				{
					"internalType": "uint256",
					"name": "",
					"type": "uint256"
				}
			],
			"name": "allRounds",
			"outputs": [
				{
					"internalType": "uint256",
					"name": "timestamp",
					"type": "uint256"
				},
				{
					"internalType": "uint256",
					"name": "prizePool",
					"type": "uint256"
				},
				{
					"internalType": "bool",
					"name": "prizesDistributed",
					"type": "bool"
				},
				{
					"internalType": "uint256",
					"name": "rollover",
					"type": "uint256"
				},
				{
					"internalType": "uint256",
					"name": "prizeAmount3",
					"type": "uint256"
				},
				{
					"internalType": "uint256",
					"name": "prizeAmount4",
					"type": "uint256"
				},
				{
					"internalType": "uint256",
					"name": "prizeAmount5",
					"type": "uint256"
				}
			],
			"stateMutability": "view",
			"type": "function"
		},
		{
			"inputs": [],
			"name": "automationRegistry",
			"outputs": [
				{
					"internalType": "address",
					"name": "",
					"type": "address"
				}
			],
			"stateMutability": "view",
			"type": "function"
		},
		{
			"inputs": [
				{
					"internalType": "uint8",
					"name": "ticketCount",
					"type": "uint8"
				}
			],
			"name": "bulkTicketsWithRandomNumbers",
			"outputs": [],
			"stateMutability": "payable",
			"type": "function"
		},
		{
			"inputs": [
				{
					"internalType": "uint8[5]",
					"name": "numbers",
					"type": "uint8[5]"
				}
			],
			"name": "buyTicket",
			"outputs": [],
			"stateMutability": "payable",
			"type": "function"
		},
		{
			"inputs": [],
			"name": "buyTicketWithRandomNumbers",
			"outputs": [],
			"stateMutability": "payable",
			"type": "function"
		},
		{
			"inputs": [],
			"name": "callbackGasLimit",
			"outputs": [
				{
					"internalType": "uint32",
					"name": "",
					"type": "uint32"
				}
			],
			"stateMutability": "view",
			"type": "function"
		},
		{
			"inputs": [
				{
					"internalType": "bytes",
					"name": "",
					"type": "bytes"
				}
			],
			"name": "checkUpkeep",
			"outputs": [
				{
					"internalType": "bool",
					"name": "upkeepNeeded",
					"type": "bool"
				},
				{
					"internalType": "bytes",
					"name": "",
					"type": "bytes"
				}
			],
			"stateMutability": "view",
			"type": "function"
		},
		{
			"inputs": [],
			"name": "currentRound",
			"outputs": [
				{
					"internalType": "uint256",
					"name": "",
					"type": "uint256"
				}
			],
			"stateMutability": "view",
			"type": "function"
		},
		{
			"inputs": [
				{
					"internalType": "uint8",
					"name": "tier",
					"type": "uint8"
				}
			],
			"name": "distributePrizes",
			"outputs": [],
			"stateMutability": "nonpayable",
			"type": "function"
		},
		{
			"inputs": [],
			"name": "drawNumbers",
			"outputs": [],
			"stateMutability": "nonpayable",
			"type": "function"
		},
		{
			"inputs": [
				{
					"internalType": "uint8[5]",
					"name": "manualNumbers",
					"type": "uint8[5]"
				}
			],
			"name": "drawNumbersManually",
			"outputs": [],
			"stateMutability": "nonpayable",
			"type": "function"
		},
		{
			"inputs": [],
			"name": "emergencyWithdraw",
			"outputs": [],
			"stateMutability": "nonpayable",
			"type": "function"
		},
		{
			"inputs": [],
			"name": "fundPrizePool",
			"outputs": [],
			"stateMutability": "payable",
			"type": "function"
		},
		{
			"inputs": [
				{
					"internalType": "uint256",
					"name": "round",
					"type": "uint256"
				}
			],
			"name": "getAllTicketsForRound",
			"outputs": [
				{
					"internalType": "address[]",
					"name": "players",
					"type": "address[]"
				},
				{
					"internalType": "uint8[5][]",
					"name": "numbersList",
					"type": "uint8[5][]"
				}
			],
			"stateMutability": "view",
			"type": "function"
		},
		{
			"inputs": [
				{
					"internalType": "uint256",
					"name": "round",
					"type": "uint256"
				}
			],
			"name": "getMyTickets",
			"outputs": [
				{
					"internalType": "address[]",
					"name": "players",
					"type": "address[]"
				},
				{
					"internalType": "uint8[5][]",
					"name": "numbersList",
					"type": "uint8[5][]"
				}
			],
			"stateMutability": "view",
			"type": "function"
		},
		{
			"inputs": [],
			"name": "getPrizePoolInUSD",
			"outputs": [
				{
					"internalType": "uint256",
					"name": "",
					"type": "uint256"
				}
			],
			"stateMutability": "view",
			"type": "function"
		},
		{
			"inputs": [
				{
					"internalType": "uint256",
					"name": "round",
					"type": "uint256"
				}
			],
			"name": "getWinningAddresses",
			"outputs": [
				{
					"internalType": "address[]",
					"name": "winners3",
					"type": "address[]"
				},
				{
					"internalType": "address[]",
					"name": "winners4",
					"type": "address[]"
				},
				{
					"internalType": "address[]",
					"name": "winners5",
					"type": "address[]"
				}
			],
			"stateMutability": "view",
			"type": "function"
		},
		{
			"inputs": [
				{
					"internalType": "uint256",
					"name": "round",
					"type": "uint256"
				}
			],
			"name": "getWinningNumbers",
			"outputs": [
				{
					"internalType": "uint8[5]",
					"name": "",
					"type": "uint8[5]"
				}
			],
			"stateMutability": "view",
			"type": "function"
		},
		{
			"inputs": [],
			"name": "getusdTicketPriceInBNB",
			"outputs": [
				{
					"internalType": "uint256",
					"name": "",
					"type": "uint256"
				}
			],
			"stateMutability": "view",
			"type": "function"
		},
		{
			"inputs": [],
			"name": "lastDrawTime",
			"outputs": [
				{
					"internalType": "uint256",
					"name": "",
					"type": "uint256"
				}
			],
			"stateMutability": "view",
			"type": "function"
		},
		{
			"inputs": [],
			"name": "lastRequestId",
			"outputs": [
				{
					"internalType": "uint256",
					"name": "",
					"type": "uint256"
				}
			],
			"stateMutability": "view",
			"type": "function"
		},
		{
			"inputs": [],
			"name": "numWords",
			"outputs": [
				{
					"internalType": "uint32",
					"name": "",
					"type": "uint32"
				}
			],
			"stateMutability": "view",
			"type": "function"
		},
		{
			"inputs": [],
			"name": "owner",
			"outputs": [
				{
					"internalType": "address",
					"name": "",
					"type": "address"
				}
			],
			"stateMutability": "view",
			"type": "function"
		},
		{
			"inputs": [],
			"name": "pause",
			"outputs": [],
			"stateMutability": "nonpayable",
			"type": "function"
		},
		{
			"inputs": [],
			"name": "paused",
			"outputs": [
				{
					"internalType": "bool",
					"name": "",
					"type": "bool"
				}
			],
			"stateMutability": "view",
			"type": "function"
		},
		{
			"inputs": [],
			"name": "pendingDraw",
			"outputs": [
				{
					"internalType": "bool",
					"name": "",
					"type": "bool"
				}
			],
			"stateMutability": "view",
			"type": "function"
		},
		{
			"inputs": [
				{
					"internalType": "bytes",
					"name": "",
					"type": "bytes"
				}
			],
			"name": "performUpkeep",
			"outputs": [],
			"stateMutability": "nonpayable",
			"type": "function"
		},
		{
			"inputs": [
				{
					"internalType": "uint256",
					"name": "",
					"type": "uint256"
				},
				{
					"internalType": "address",
					"name": "",
					"type": "address"
				},
				{
					"internalType": "uint256",
					"name": "",
					"type": "uint256"
				}
			],
			"name": "playerTickets",
			"outputs": [
				{
					"internalType": "address",
					"name": "player",
					"type": "address"
				}
			],
			"stateMutability": "view",
			"type": "function"
		},
		{
			"inputs": [
				{
					"internalType": "uint256",
					"name": "requestId",
					"type": "uint256"
				},
				{
					"internalType": "uint256[]",
					"name": "randomWords",
					"type": "uint256[]"
				}
			],
			"name": "rawFulfillRandomWords",
			"outputs": [],
			"stateMutability": "nonpayable",
			"type": "function"
		},
		{
			"inputs": [],
			"name": "requestConfirmations",
			"outputs": [
				{
					"internalType": "uint16",
					"name": "",
					"type": "uint16"
				}
			],
			"stateMutability": "view",
			"type": "function"
		},
		{
			"inputs": [],
			"name": "roundInProgress",
			"outputs": [
				{
					"internalType": "uint256",
					"name": "",
					"type": "uint256"
				}
			],
			"stateMutability": "view",
			"type": "function"
		},
		{
			"inputs": [
				{
					"internalType": "uint256",
					"name": "",
					"type": "uint256"
				}
			],
			"name": "roundLocked",
			"outputs": [
				{
					"internalType": "bool",
					"name": "",
					"type": "bool"
				}
			],
			"stateMutability": "view",
			"type": "function"
		},
		{
			"inputs": [],
			"name": "s_keyHash",
			"outputs": [
				{
					"internalType": "bytes32",
					"name": "",
					"type": "bytes32"
				}
			],
			"stateMutability": "view",
			"type": "function"
		},
		{
			"inputs": [],
			"name": "s_subscriptionId",
			"outputs": [
				{
					"internalType": "uint256",
					"name": "",
					"type": "uint256"
				}
			],
			"stateMutability": "view",
			"type": "function"
		},
		{
			"inputs": [],
			"name": "s_vrfCoordinator",
			"outputs": [
				{
					"internalType": "contract IVRFCoordinatorV2Plus",
					"name": "",
					"type": "address"
				}
			],
			"stateMutability": "view",
			"type": "function"
		},
		{
			"inputs": [
				{
					"internalType": "address",
					"name": "_registry",
					"type": "address"
				}
			],
			"name": "setAutomationRegistry",
			"outputs": [],
			"stateMutability": "nonpayable",
			"type": "function"
		},
		{
			"inputs": [
				{
					"internalType": "uint32",
					"name": "_newLimit",
					"type": "uint32"
				}
			],
			"name": "setCallbackGasLimit",
			"outputs": [],
			"stateMutability": "nonpayable",
			"type": "function"
		},
		{
			"inputs": [
				{
					"internalType": "address",
					"name": "_vrfCoordinator",
					"type": "address"
				}
			],
			"name": "setCoordinator",
			"outputs": [],
			"stateMutability": "nonpayable",
			"type": "function"
		},
		{
			"inputs": [
				{
					"internalType": "bool",
					"name": "value",
					"type": "bool"
				}
			],
			"name": "setPendingDraw",
			"outputs": [],
			"stateMutability": "nonpayable",
			"type": "function"
		},
		{
			"inputs": [
				{
					"internalType": "uint256",
					"name": "newPrice",
					"type": "uint256"
				}
			],
			"name": "setUsdTicketPrice",
			"outputs": [],
			"stateMutability": "nonpayable",
			"type": "function"
		},
		{
			"inputs": [
				{
					"internalType": "bool",
					"name": "value",
					"type": "bool"
				}
			],
			"name": "setWinnersSubmitted",
			"outputs": [],
			"stateMutability": "nonpayable",
			"type": "function"
		},
		{
			"inputs": [
				{
					"internalType": "uint256",
					"name": "round",
					"type": "uint256"
				},
				{
					"internalType": "address[]",
					"name": "_winners3",
					"type": "address[]"
				},
				{
					"internalType": "address[]",
					"name": "_winners4",
					"type": "address[]"
				},
				{
					"internalType": "address[]",
					"name": "_winners5",
					"type": "address[]"
				}
			],
			"name": "submitWinners",
			"outputs": [],
			"stateMutability": "nonpayable",
			"type": "function"
		},
		{
			"inputs": [
				{
					"internalType": "uint256",
					"name": "",
					"type": "uint256"
				}
			],
			"name": "totalTicketsPerDraw",
			"outputs": [
				{
					"internalType": "uint256",
					"name": "",
					"type": "uint256"
				}
			],
			"stateMutability": "view",
			"type": "function"
		},
		{
			"inputs": [
				{
					"internalType": "address",
					"name": "to",
					"type": "address"
				}
			],
			"name": "transferOwnership",
			"outputs": [],
			"stateMutability": "nonpayable",
			"type": "function"
		},
		{
			"inputs": [
				{
					"internalType": "uint256",
					"name": "",
					"type": "uint256"
				}
			],
			"name": "uniqueParticipantsPerDraw",
			"outputs": [
				{
					"internalType": "uint256",
					"name": "",
					"type": "uint256"
				}
			],
			"stateMutability": "view",
			"type": "function"
		},
		{
			"inputs": [],
			"name": "unpause",
			"outputs": [],
			"stateMutability": "nonpayable",
			"type": "function"
		},
		{
			"inputs": [
				{
					"internalType": "address",
					"name": "_newFeed",
					"type": "address"
				}
			],
			"name": "updatePriceFeed",
			"outputs": [],
			"stateMutability": "nonpayable",
			"type": "function"
		},
		{
			"inputs": [
				{
					"internalType": "uint256",
					"name": "newSubId",
					"type": "uint256"
				}
			],
			"name": "updateSubscriptionId",
			"outputs": [],
			"stateMutability": "nonpayable",
			"type": "function"
		},
		{
			"inputs": [
				{
					"internalType": "address",
					"name": "_coordinator",
					"type": "address"
				},
				{
					"internalType": "bytes32",
					"name": "_keyHash",
					"type": "bytes32"
				}
			],
			"name": "updateVRFSettings",
			"outputs": [],
			"stateMutability": "nonpayable",
			"type": "function"
		},
		{
			"inputs": [],
			"name": "usdTicketPrice",
			"outputs": [
				{
					"internalType": "uint256",
					"name": "",
					"type": "uint256"
				}
			],
			"stateMutability": "view",
			"type": "function"
		},
		{
			"inputs": [],
			"name": "winnerSubmissionDeadline",
			"outputs": [
				{
					"internalType": "uint256",
					"name": "",
					"type": "uint256"
				}
			],
			"stateMutability": "view",
			"type": "function"
		},
		{
			"inputs": [],
			"name": "winnersSubmitted",
			"outputs": [
				{
					"internalType": "bool",
					"name": "",
					"type": "bool"
				}
			],
			"stateMutability": "view",
			"type": "function"
		}
	]
}