{
	"data": {
		"bytecode": {
			"linkReferences": {},
			"object": "6080604052633b9aca00600355601280546001600160a01b03191673d691f04bc0c9a24edb78af9e005cf85768f694c91790557f130dba50ad435d4ecc214aad0d5820474137bd68e7e77724144f27c3c377d3d460145560158054660100030007a1206001600160501b03199091161790553480156200007e57600080fd5b506040516200386338038062003863833981016040819052620000a19162000271565b60125481906001600160a01b03163380600081620001065760405162461bcd60e51b815260206004820152601860248201527f43616e6e6f7420736574206f776e657220746f207a65726f000000000000000060448201526064015b60405180910390fd5b600080546001600160a01b0319166001600160a01b038481169190911790915581161562000139576200013981620001c6565b5050506001600160a01b038116620001645760405163d92e233d60e01b815260040160405180910390fd5b600280546001600160a01b039092166001600160a01b031992831617905560118054909116730567f2323251f0aab15c8dfb1967e4e8a7d42aee17905542600455600160058190556006805460ff19169055601391909155601a55506200028b565b336001600160a01b03821603620002205760405162461bcd60e51b815260206004820152601760248201527f43616e6e6f74207472616e7366657220746f2073656c660000000000000000006044820152606401620000fd565b600180546001600160a01b0319166001600160a01b0383811691821790925560008054604051929316917fed8889f560326eb138920d842192f0eb3dd22b4f139c87a2c57538e05bae12789190a350565b6000602082840312156200028457600080fd5b5051919050565b6135c8806200029b6000396000f3fe6080604052600436106102ff5760003560e01c806388ed5d6411610190578063bc076f52116100dc578063dc65c84311610095578063ea5ab0ba1161006f578063ea5ab0ba14610962578063f2fde38b14610978578063f664e75214610998578063fc2a88c3146109b857600080fd5b8063dc65c84314610898578063dc7fe6a5146108ab578063e1bf07b7146108cb57600080fd5b8063bc076f52146107ee578063c3279f8f1461080e578063c81d92171461083b578063cc957f281461085b578063d11532b71461086e578063db2e21bc1461088357600080fd5b806395877f7811610149578063a4eb718c11610123578063a4eb718c14610776578063a9ecbf6914610796578063b0fb162f146107b0578063b933dcba146107e657600080fd5b806395877f78146107095780639d5c35ae146107295780639eccacf61461075657600080fd5b806388ed5d641461066f5780638a19c8bc146106895780638ac000211461069f5780638da5cb5b146106b55780638ea2d9ef146106d35780638ea98117146106e957600080fd5b806361edf9b21161024f57806375b26d21116102085780638456cb59116101e25780638456cb59146105f757806385705ad31461060c57806387cc17b11461063a57806388b2f7c31461066757600080fd5b806375b26d211461058c57806379ba5097146105bb5780637ccfd7fc146105d057600080fd5b806361edf9b2146104de57806363ecd0c3146104fe578063667640eb14610514578063676c902f146105345780636a91da2b146105495780636e04ff0d1461055e57600080fd5b80634585e33b116102bc5780635c975abb116102965780635c975abb146104565780635cbbd635146104705780635dc228a0146104865780635ff2d2aa146104be57600080fd5b80634585e33b146103f257806345bb327b146104125780634ac2a7411461043657600080fd5b80631706672a146103045780631fe543e31461034957806324f746971461036b57806325d757951461039d5780632b09d310146103bd5780633f4ba83a146103dd575b600080fd5b34801561031057600080fd5b5061033461031f366004612e48565b60106020526000908152604090205460ff1681565b60405190151581526020015b60405180910390f35b34801561035557600080fd5b50610369610364366004612ea6565b6109ce565b005b34801561037757600080fd5b506015546103889063ffffffff1681565b60405163ffffffff9091168152602001610340565b3480156103a957600080fd5b506103696103b8366004612ef2565b610a23565b3480156103c957600080fd5b506103696103d8366004612e48565b610a3e565b3480156103e957600080fd5b50610369610a9b565b3480156103fe57600080fd5b5061036961040d366004612f1b565b610aaf565b34801561041e57600080fd5b5061042860145481565b604051908152602001610340565b34801561044257600080fd5b50610369610451366004612f8d565b610b65565b34801561046257600080fd5b506006546103349060ff1681565b34801561047c57600080fd5b5061042860045481565b34801561049257600080fd5b50600a546104a6906001600160a01b031681565b6040516001600160a01b039091168152602001610340565b3480156104ca57600080fd5b506103696104d936600461304d565b610db0565b3480156104ea57600080fd5b506103696104f9366004613079565b610e22565b34801561050a57600080fd5b5061042860035481565b34801561052057600080fd5b5061036961052f366004612ef2565b6110cd565b34801561054057600080fd5b506103696110e8565b34801561055557600080fd5b506104286110fa565b34801561056a57600080fd5b5061057e610579366004612f1b565b6111ed565b6040516103409291906130da565b34801561059857600080fd5b506105ac6105a7366004612e48565b61120e565b60405161034093929190613139565b3480156105c757600080fd5b50610369611358565b3480156105dc57600080fd5b50601554610388906601000000000000900463ffffffff1681565b34801561060357600080fd5b50610369611402565b34801561061857600080fd5b5061062c610627366004612e48565b611419565b6040516103409291906131a8565b34801561064657600080fd5b50610428610655366004612e48565b600b6020526000908152604090205481565b6103696115bf565b34801561067b57600080fd5b506017546103349060ff1681565b34801561069557600080fd5b5061042860055481565b3480156106ab57600080fd5b5061042860135481565b3480156106c157600080fd5b506000546001600160a01b03166104a6565b3480156106df57600080fd5b5061042860095481565b3480156106f557600080fd5b5061036961070436600461304d565b61163e565b34801561071557600080fd5b5061036961072436600461304d565b611730565b34801561073557600080fd5b50610749610744366004612e48565b6117b0565b6040516103409190613209565b34801561076257600080fd5b506002546104a6906001600160a01b031681565b34801561078257600080fd5b5061036961079136600461321d565b611818565b3480156107a257600080fd5b506008546103349060ff1681565b3480156107bc57600080fd5b506015546107d390640100000000900461ffff1681565b60405161ffff9091168152602001610340565b61036961187f565b3480156107fa57600080fd5b50610369610809366004612e48565b611b6f565b34801561081a57600080fd5b50610428610829366004612e48565b600d6020526000908152604090205481565b34801561084757600080fd5b5061062c610856366004612e48565b611bcc565b610369610869366004613259565b611db2565b34801561087a57600080fd5b50610428611ea3565b34801561088f57600080fd5b50610369611f91565b6103696108a6366004613079565b6120cb565b3480156108b757600080fd5b506104a66108c63660046132ec565b61246a565b3480156108d757600080fd5b506109276108e6366004612e48565b600e60205260009081526040902080546001820154600783015460088401546009850154600a860154600b909601549495939460ff90931693919290919087565b604080519788526020880196909652931515948601949094526060850191909152608084015260a083019190915260c082015260e001610340565b34801561096e57600080fd5b5061042860075481565b34801561098457600080fd5b5061036961099336600461304d565b6124b4565b3480156109a457600080fd5b506103696109b3366004613321565b6124c5565b3480156109c457600080fd5b5061042860165481565b6002546001600160a01b03163314610a135760025460405163073e64fd60e21b81523360048201526001600160a01b0390911660248201526044015b60405180910390fd5b610a1e838383612589565b505050565b610a2b612773565b6008805460ff1916911515919091179055565b610a46612773565b60008111610a965760405162461bcd60e51b815260206004820152601760248201527f496e76616c696420737562736372697074696f6e2049440000000000000000006044820152606401610a0a565b601355565b610aa3612773565b6006805460ff19169055565b600a546001600160a01b03163314610afa5760405162461bcd60e51b815260206004820152600e60248201526d139bdd08185d5d1a1bdc9a5e995960921b6044820152606401610a0a565b60175460ff1615610b595760405162461bcd60e51b815260206004820152602360248201527f4472617720616c726561647920696e2070726f6772657373206f722070656e64604482015262696e6760e81b6064820152608401610a0a565b610b616127c6565b5050565b610b6d612773565b6007548714610bae5760405162461bcd60e51b815260206004820152600d60248201526c125b9d985b1a59081c9bdd5b99609a1b6044820152606401610a0a565b60085460ff1615610c015760405162461bcd60e51b815260206004820152601960248201527f57696e6e65727320616c7265616479207375626d6974746564000000000000006044820152606401610a0a565b600954421115610c535760405162461bcd60e51b815260206004820152601a60248201527f5375626d697373696f6e20646561646c696e65207061737365640000000000006044820152606401610a0a565b6000878152600e60205260409020610c6f600482018888612d28565b50610c7e600582018686612d28565b50610c8d600682018484612d28565b5060648160010154600a610ca19190613361565b610cab919061338e565b60098201556001810154606490610cc3906014613361565b610ccd919061338e565b600a8201556001810154606490610ce5906041613361565b610cef919061338e565b600b8201556001810154600090606490610d0a906005613361565b610d14919061338e565b90506000879003610d31576009820154610d2e90826133a2565b90505b6000859003610d4c57600a820154610d4990826133a2565b90505b6000839003610d6757600b820154610d6490826133a2565b90505b6008808301829055805460ff1916600117905560405189907fee48f9a28712e5f0f17433fb01bf7f28c8c6a79eaf04a7f405eb34fa36b694f990600090a2505050505050505050565b610db8612773565b6001600160a01b038116610e005760405162461bcd60e51b815260206004820152600f60248201526e496e76616c6964206164647265737360881b6044820152606401610a0a565b600a80546001600160a01b0319166001600160a01b0392909216919091179055565b610e2a612773565b610e3261295c565b601b5460ff1615610e855760405162461bcd60e51b815260206004820152601860248201527f446973747269627574696f6e20696e2070726f677265737300000000000000006044820152606401610a0a565b601b805460ff1916600117905560085460ff16610edc5760405162461bcd60e51b815260206004820152601560248201527415da5b9b995c9cc81b9bdd081cdd589b5a5d1d1959605a1b6044820152606401610a0a565b600780546000908152600e602052604090209081015460ff1615610f425760405162461bcd60e51b815260206004820152601a60248201527f5072697a657320616c72656164792064697374726962757465640000000000006044820152606401610a0a565b60008260ff16600314610f6c578260ff16600414610f635781600601610f71565b81600501610f71565b816004015b905060008360ff16600303610f8b57506009820154610fa8565b8360ff16600403610fa15750600a820154610fa8565b50600b8201545b8360ff16600503610fee5760078301805460ff1916600117905560058054906000610fd2836133b5565b90915550506008805460ff199081169091556017805490911690555b81541561107a578154600090611004908361338e565b905060005b835481101561107757838181548110611024576110246133ce565b60009182526020822001546040516001600160a01b039091169184156108fc02918591818181858888f19350505050158015611064573d6000803e3d6000fd5b508061106f816133b5565b915050611009565b50505b601b805460ff1916905560075460405160ff861681527f07579876cf141b70e3bef48886191f214aa1ab0b2f1ecdbc8dcca466312aed7e9060200160405180910390a25050506110ca6001601a55565b50565b6110d5612773565b6017805460ff1916911515919091179055565b6110f0612773565b6110f86127c6565b565b600080601160009054906101000a90046001600160a01b03166001600160a01b031663feaf968c6040518163ffffffff1660e01b815260040160a060405180830381865afa158015611150573d6000803e3d6000fd5b505050506040513d601f19601f8201168201806040525081019061117491906133fe565b505050915050600081136111c25760405162461bcd60e51b8152602060048201526015602482015274496e76616c696420424e422f55534420707269636560581b6044820152606401610a0a565b8060006a52b7d2dcc80cd2e40000006111db8347613361565b6111e5919061338e565b949350505050565b60175460408051602081019091526000815260ff90911615905b9250929050565b60608060606000600e600086815260200190815260200160002090508060040181600501826006018280548060200260200160405190810160405280929190818152602001828054801561128b57602002820191906000526020600020905b81546001600160a01b0316815260019091019060200180831161126d575b50505050509250818054806020026020016040519081016040528092919081815260200182805480156112e757602002820191906000526020600020905b81546001600160a01b031681526001909101906020018083116112c9575b505050505091508080548060200260200160405190810160405280929190818152602001828054801561134357602002820191906000526020600020905b81546001600160a01b03168152600190910190602001808311611325575b50505050509050935093509350509193909250565b6001546001600160a01b031633146113ab5760405162461bcd60e51b815260206004820152601660248201527526bab9ba10313290383937b837b9b2b21037bbb732b960511b6044820152606401610a0a565b60008054336001600160a01b0319808316821784556001805490911690556040516001600160a01b0390921692909183917f8be0079c531659141344cd1fd0a4f28419497f9722a3daafe3b4186f6b6457e091a350565b61140a612773565b6006805460ff19166001179055565b6000818152600e60205260409020600381015460609182918067ffffffffffffffff81111561144a5761144a613243565b604051908082528060200260200182016040528015611473578160200160208202803683370190505b5093508067ffffffffffffffff81111561148f5761148f613243565b6040519080825280602002602001820160405280156114c857816020015b6114b5612d8b565b8152602001906001900390816114ad5790505b50925060005b818110156115b75760008360030182815481106114ed576114ed6133ce565b60009182526020909120600290910201805487519192506001600160a01b031690879084908110611520576115206133ce565b6001600160a01b0392909216602092830291909101909101526040805160a0810191829052906001830190600590826000855b825461010083900a900460ff168152602060019283018181049485019490930390920291018084116115535790505050505050858381518110611598576115986133ce565b60200260200101819052505080806115af906133b5565b9150506114ce565b505050915091565b6115c7612773565b600034116116075760405162461bcd60e51b815260206004820152600d60248201526c26bab9ba1039b2b7321021272160991b6044820152606401610a0a565b60405134815233907fd3da04b9295b0265da4cd8d1d9ea4f3bb84775e17288a007301f7193865b18189060200160405180910390a2565b6000546001600160a01b0316331480159061166457506002546001600160a01b03163314155b156116b5573361167c6000546001600160a01b031690565b60025460405163061db9c160e01b81526001600160a01b0393841660048201529183166024830152919091166044820152606401610a0a565b6001600160a01b0381166116dc5760405163d92e233d60e01b815260040160405180910390fd5b600280546001600160a01b0319166001600160a01b0383169081179091556040519081527fd1a6a14209a385a964d036e404cb5cfb71f4000cdb03c9366292430787261be69060200160405180910390a150565b611738612773565b6001600160a01b03811661178e5760405162461bcd60e51b815260206004820152601a60248201527f496e76616c6964207072696365206665656420616464726573730000000000006044820152606401610a0a565b601180546001600160a01b0319166001600160a01b0392909216919091179055565b6117b8612d8b565b6000828152600e6020526040808220815160a0810192839052926002909101916005918390855b825461010083900a900460ff168152602060019283018181049485019490930390920291018084116117df575094979650505050505050565b611820612773565b620186a08163ffffffff1610156118635760405162461bcd60e51b8152602060048201526007602482015266546f6f206c6f7760c81b6044820152606401610a0a565b6015805463ffffffff191663ffffffff92909216919091179055565b60065460ff16156118a25760405162461bcd60e51b8152600401610a0a9061344e565b60055460009081526010602052604090205460ff16156118d45760405162461bcd60e51b8152600401610a0a9061347a565b6118dc611ea3565b34146118fa5760405162461bcd60e51b8152600401610a0a906134a0565b60006119046129b5565b90506000611913600a3461338e565b905060006119296000546001600160a01b031690565b6001600160a01b03168260405160006040518083038185875af1925050503d8060008114611973576040519150601f19603f3d011682016040523d82523d6000602084013e611978565b606091505b50509050806119c45760405162461bcd60e51b8152602060048201526018602482015277151c985b9cd9995c881d1bc81bdddb995c8819985a5b195960421b6044820152606401610a0a565b6040805180820182523381526020808201868152600580546000908152600e845294852060030180546001808201835591875293909520845160029094020180546001600160a01b0319166001600160a01b03909416939093178355905192938493611a339291840191612da9565b5050600580546000908152600f602090815260408083203384528252822080546001808201835591845292829020865160029094020180546001600160a01b0319166001600160a01b03909416939093178355908501518594509192611a9d929184019190612da9565b50506005546000908152600b602052604081208054925090611abe836133b5565b90915550506005546000908152600c6020908152604080832033845290915290205460ff16611b2c57600580546000908152600c602090815260408083203384528252808320805460ff1916600117905592548252600d9052908120805491611b26836133b5565b91905055505b60055460405133917f3898084b2129dd1eefb522db8ed9fb6801a5b24dd6656f98ddffcf157174ae4591611b619188916134ce565b60405180910390a250505050565b611b77612773565b60008111611bc75760405162461bcd60e51b815260206004820152601c60248201527f5072696365206d7573742062652067726561746572207468616e2030000000006044820152606401610a0a565b600355565b6000818152600f6020908152604080832033845290915290205460609081908067ffffffffffffffff811115611c0457611c04613243565b604051908082528060200260200182016040528015611c2d578160200160208202803683370190505b5092508067ffffffffffffffff811115611c4957611c49613243565b604051908082528060200260200182016040528015611c8257816020015b611c6f612d8b565b815260200190600190039081611c675790505b50915060005b81811015611dab576000858152600f602090815260408083203384529091528120805483908110611cbb57611cbb6133ce565b6000918252602091829020604080518082018252600290930290910180546001600160a01b03168352815160a0810190925291928301906001830160058282826020028201916000905b825461010083900a900460ff16815260206001928301818104948501949093039092029101808411611d0557905050505050508152505090508060000151858381518110611d5557611d556133ce565b60200260200101906001600160a01b031690816001600160a01b0316815250508060200151848381518110611d8c57611d8c6133ce565b6020026020010181905250508080611da3906133b5565b915050611c88565b5050915091565b60065460ff1615611dd55760405162461bcd60e51b8152600401610a0a9061344e565b60055460009081526010602052604090205460ff1615611e075760405162461bcd60e51b8152600401610a0a9061347a565b611e0f611ea3565b3414611e2d5760405162461bcd60e51b8152600401610a0a906134a0565b611e3681612b36565b611e965760405162461bcd60e51b815260206004820152602b60248201527f4e756d62657273206d75737420626520756e6971756520616e6420626574776560448201526a0656e203120616e642035360ac1b6064820152608401610a0a565b6000611913600a3461338e565b600080601160009054906101000a90046001600160a01b03166001600160a01b031663feaf968c6040518163ffffffff1660e01b815260040160a060405180830381865afa158015611ef9573d6000803e3d6000fd5b505050506040513d601f19601f82011682018060405250810190611f1d91906133fe565b50505091505060008113611f675760405162461bcd60e51b8152602060048201526011602482015270496e76616c696420424e4220707269636560781b6044820152606401610a0a565b60035481908190611f8090670de0b6b3a7640000613361565b611f8a919061338e565b9250505090565b611f99612773565b4780611fde5760405162461bcd60e51b81526020600482015260146024820152734e6f2066756e647320746f20776974686472617760601b6044820152606401610a0a565b600080546040516001600160a01b039091169083908381818185875af1925050503d806000811461202b576040519150601f19603f3d011682016040523d82523d6000602084013e612030565b606091505b50509050806120735760405162461bcd60e51b815260206004820152600f60248201526e151c985b9cd9995c8819985a5b1959608a1b6044820152606401610a0a565b7f418aae9de8f7ab4df1c137475770ff373eb33fd62a060544e9f4fc90f3cdb1a4826120a76000546001600160a01b031690565b604080519283526001600160a01b0390911660208301520160405180910390a15050565b60065460ff16156120ee5760405162461bcd60e51b8152600401610a0a9061344e565b60055460009081526010602052604090205460ff16156121205760405162461bcd60e51b8152600401610a0a9061347a565b60018160ff16101580156121385750600a8160ff1611155b61218e5760405162461bcd60e51b815260206004820152602160248201527f4d75737420627579206265747765656e203120616e64203130207469636b65746044820152607360f81b6064820152608401610a0a565b6000612198611ea3565b905060006121a960ff841683613361565b90508034146121ca5760405162461bcd60e51b8152600401610a0a906134a0565b60006121d7600a3461338e565b905060006121ed6000546001600160a01b031690565b6001600160a01b03168260405160006040518083038185875af1925050503d8060008114612237576040519150601f19603f3d011682016040523d82523d6000602084013e61223c565b606091505b50509050806122885760405162461bcd60e51b8152602060048201526018602482015277151c985b9cd9995c881d1bc81bdddb995c8819985a5b195960421b6044820152606401610a0a565b60005b8560ff168160ff1610156123f95760006122a36129b5565b6040805180820182523381526020808201848152600580546000908152600e845294852060030180546001808201835591875293909520845160029094020180546001600160a01b0319166001600160a01b0390941693909317835590519495509193849391926123179284019190612da9565b5050600580546000908152600f602090815260408083203384528252822080546001808201835591845292829020865160029094020180546001600160a01b0319166001600160a01b03909416939093178355908501518594509192612381929184019190612da9565b50506005546000908152600b6020526040812080549250906123a2836133b5565b909155505060055460405133917f3898084b2129dd1eefb522db8ed9fb6801a5b24dd6656f98ddffcf157174ae45916123dc9186916134ce565b60405180910390a2505080806123f1906134e9565b91505061228b565b506005546000908152600c6020908152604080832033845290915290205460ff1661246357600580546000908152600c602090815260408083203384528252808320805460ff1916600117905592548252600d905290812080549161245d836133b5565b91905055505b5050505050565b600f602052826000526040600020602052816000526040600020818154811061249257600080fd5b60009182526020909120600290910201546001600160a01b0316925083915050565b6124bc612773565b6110ca81612c0e565b6124cd612773565b6001600160a01b0382166125235760405162461bcd60e51b815260206004820152601b60248201527f496e76616c696420636f6f7264696e61746f72206164647265737300000000006044820152606401610a0a565b806125635760405162461bcd60e51b815260206004820152601060248201526f092dcecc2d8d2c840d6caf240d0c2e6d60831b6044820152606401610a0a565b601280546001600160a01b0319166001600160a01b039390931692909217909155601455565b60175460ff166125cd5760405162461bcd60e51b815260206004820152600f60248201526e4e6f20647261772070656e64696e6760881b6044820152606401610a0a565b6125d5612d8b565b6000838360008181106125ea576125ea6133ce565b90506020020135905060005b60058160ff1610156126eb57600061260f603284613508565b61261a9060016133a2565b90506000805b8360ff16811015612669578260ff16868260058110612641576126416133ce565b602002015160ff16036126575760019150612669565b80612661816133b5565b915050612620565b50806126a05781858460ff1660058110612685576126856133ce565b60ff90921660209290920201528261269c816134e9565b9350505b83836040516020016126c992919091825260f81b6001600160f81b031916602082015260210190565b6040516020818303038152906040528051906020012060001c935050506125f6565b6007546000908152600e6020526040902061270b90600201846005612da9565b506007546000908152600e60205260409020429081905561272e90610e106133a2565b60095560405186907f27f7a4cfb91dd4db4b9c99df04f38bd5bf8effa9b1ef1dc67f92c0d087029cd590612763908690613209565b60405180910390a2505050505050565b6000546001600160a01b031633146110f85760405162461bcd60e51b815260206004820152601660248201527527b7363c9031b0b63630b1363290313c9037bbb732b960511b6044820152606401610a0a565b60178054600160ff19918216811790925560058054600090815260106020908152604080832080549095168617909455915460078190558152600e82528290204790840155600254825160c081018452601454815260135481840152601554640100000000810461ffff168286015263ffffffff8082166060840152660100000000000090910416608082015283519283019093529281526001600160a01b0390921691639b1c385e919060a082019061287f90612cb7565b8152506040518263ffffffff1660e01b815260040161289e919061351c565b6020604051808303816000875af11580156128bd573d6000803e3d6000fd5b505050506040513d601f19601f820116820180604052508101906128e19190613579565b601681815560009182526018602052604080832080546001600160a01b031916331790559054905190917fdad2a728ac67e726695710e743bce88ea2aaf66ef5795abda5e24fa7b7750d5f91a26007546040517fe4873708e4fc11619230dd3506a5f7cb96ece9d6d7b1c2ea9e7c46dac3f10baa90600090a2565b6002601a54036129ae5760405162461bcd60e51b815260206004820152601f60248201527f5265656e7472616e637947756172643a207265656e7472616e742063616c6c006044820152606401610a0a565b6002601a55565b6129bd612d8b565b60008042336019546040516020016129fa9392919092835260609190911b6bffffffffffffffffffffffff19166020830152603482015260540190565b60408051601f198184030181529190528051602090910120601980549192506000612a24836133b5565b91905055505b60058260ff161015612b31576000612a43603283613508565b612a4e9060016133a2565b90506000805b8460ff168160ff161015612aa3578260ff16868260ff1660058110612a7b57612a7b6133ce565b602002015160ff1603612a915760019150612aa3565b80612a9b816134e9565b915050612a54565b5080612ada5781858560ff1660058110612abf57612abf6133ce565b60ff909216602092909202015283612ad6816134e9565b9450505b8284601954604051602001612b0f9392919092835260f89190911b6001600160f81b0319166020830152602182015260410190565b6040516020818303038152906040528051906020012060001c92505050612a2a565b505090565b6000805b6005811015612c05576001838260058110612b5757612b576133ce565b602002015160ff161080612b8457506032838260058110612b7a57612b7a6133ce565b602002015160ff16115b15612b925750600092915050565b60005b81811015612bf257838160058110612baf57612baf6133ce565b602002015160ff16848360058110612bc957612bc96133ce565b602002015160ff1603612be0575060009392505050565b80612bea816133b5565b915050612b95565b5080612bfd816133b5565b915050612b3a565b50600192915050565b336001600160a01b03821603612c665760405162461bcd60e51b815260206004820152601760248201527f43616e6e6f74207472616e7366657220746f2073656c660000000000000000006044820152606401610a0a565b600180546001600160a01b0319166001600160a01b0383811691821790925560008054604051929316917fed8889f560326eb138920d842192f0eb3dd22b4f139c87a2c57538e05bae12789190a350565b60607f92fd13387c7fe7befbc38d303d6468778fb9731bc4583f17d92989c6fcfdeaaa82604051602401612cf091511515815260200190565b60408051601f198184030181529190526020810180516001600160e01b03166001600160e01b03199093169290921790915292915050565b828054828255906000526020600020908101928215612d7b579160200282015b82811115612d7b5781546001600160a01b0319166001600160a01b03843516178255602090920191600190910190612d48565b50612d87929150612e33565b5090565b6040518060a001604052806005906020820280368337509192915050565b600183019183908215612d7b5791602002820160005b83821115612dfd57835183826101000a81548160ff021916908360ff1602179055509260200192600101602081600001049283019260010302612dbf565b8015612e2a5782816101000a81549060ff0219169055600101602081600001049283019260010302612dfd565b5050612d879291505b5b80821115612d875760008155600101612e34565b600060208284031215612e5a57600080fd5b5035919050565b60008083601f840112612e7357600080fd5b50813567ffffffffffffffff811115612e8b57600080fd5b6020830191508360208260051b850101111561120757600080fd5b600080600060408486031215612ebb57600080fd5b83359250602084013567ffffffffffffffff811115612ed957600080fd5b612ee586828701612e61565b9497909650939450505050565b600060208284031215612f0457600080fd5b81358015158114612f1457600080fd5b9392505050565b60008060208385031215612f2e57600080fd5b823567ffffffffffffffff80821115612f4657600080fd5b818501915085601f830112612f5a57600080fd5b813581811115612f6957600080fd5b866020828501011115612f7b57600080fd5b60209290920196919550909350505050565b60008060008060008060006080888a031215612fa857600080fd5b87359650602088013567ffffffffffffffff80821115612fc757600080fd5b612fd38b838c01612e61565b909850965060408a0135915080821115612fec57600080fd5b612ff88b838c01612e61565b909650945060608a013591508082111561301157600080fd5b5061301e8a828b01612e61565b989b979a50959850939692959293505050565b80356001600160a01b038116811461304857600080fd5b919050565b60006020828403121561305f57600080fd5b612f1482613031565b803560ff8116811461304857600080fd5b60006020828403121561308b57600080fd5b612f1482613068565b6000815180845260005b818110156130ba5760208185018101518683018201520161309e565b506000602082860101526020601f19601f83011685010191505092915050565b82151581526040602082015260006111e56040830184613094565b600081518084526020808501945080840160005b8381101561312e5781516001600160a01b031687529582019590820190600101613109565b509495945050505050565b60608152600061314c60608301866130f5565b828103602084015261315e81866130f5565b9050828103604084015261317281856130f5565b9695505050505050565b8060005b60058110156131a257815160ff16845260209384019390910190600101613180565b50505050565b6040815260006131bb60408301856130f5565b82810360208481019190915284518083528582019282019060005b818110156131fc576131e983865161317c565b9383019360a092909201916001016131d6565b5090979650505050505050565b60a08101613217828461317c565b92915050565b60006020828403121561322f57600080fd5b813563ffffffff81168114612f1457600080fd5b634e487b7160e01b600052604160045260246000fd5b600060a0828403121561326b57600080fd5b82601f83011261327a57600080fd5b60405160a0810181811067ffffffffffffffff821117156132ab57634e487b7160e01b600052604160045260246000fd5b6040528060a08401858111156132c057600080fd5b845b818110156132e1576132d381613068565b8352602092830192016132c2565b509195945050505050565b60008060006060848603121561330157600080fd5b8335925061331160208501613031565b9150604084013590509250925092565b6000806040838503121561333457600080fd5b61333d83613031565b946020939093013593505050565b634e487b7160e01b600052601160045260246000fd5b80820281158282048414176132175761321761334b565b634e487b7160e01b600052601260045260246000fd5b60008261339d5761339d613378565b500490565b808201808211156132175761321761334b565b6000600182016133c7576133c761334b565b5060010190565b634e487b7160e01b600052603260045260246000fd5b805169ffffffffffffffffffff8116811461304857600080fd5b600080600080600060a0868803121561341657600080fd5b61341f866133e4565b9450602086015193506040860151925060608601519150613442608087016133e4565b90509295509295909350565b60208082526012908201527110dbdb9d1c9858dd081a5cc81c185d5cd95960721b604082015260600190565b6020808252600c908201526b149bdd5b99081b1bd8dad95960a21b604082015260600190565b602080825260149082015273125b98dbdc9c9958dd0810939088185b5bdd5b9d60621b604082015260600190565b60c081016134dc828561317c565b8260a08301529392505050565b600060ff821660ff81036134ff576134ff61334b565b60010192915050565b60008261351757613517613378565b500690565b60208152815160208201526020820151604082015261ffff60408301511660608201526000606083015163ffffffff80821660808501528060808601511660a0850152505060a083015160c0808401526111e560e0840182613094565b60006020828403121561358b57600080fd5b505191905056fea2646970667358221220321748bc5196a9b2ea95bab48e16aa28e49fb251258825ce444db5cbb23ee3bf64736f6c63430008130033",
			"opcodes": "PUSH1 0x80 PUSH1 0x40 MSTORE PUSH4 0x3B9ACA00 PUSH1 0x3 SSTORE PUSH1 0x12 DUP1 SLOAD PUSH1 0x1 PUSH1 0x1 PUSH1 0xA0 SHL SUB NOT AND PUSH20 0xD691F04BC0C9A24EDB78AF9E005CF85768F694C9 OR SWAP1 SSTORE PUSH32 0x130DBA50AD435D4ECC214AAD0D5820474137BD68E7E77724144F27C3C377D3D4 PUSH1 0x14 SSTORE PUSH1 0x15 DUP1 SLOAD PUSH7 0x100030007A120 PUSH1 0x1 PUSH1 0x1 PUSH1 0x50 SHL SUB NOT SWAP1 SWAP2 AND OR SWAP1 SSTORE CALLVALUE DUP1 ISZERO PUSH3 0x7E JUMPI PUSH1 0x0 DUP1 REVERT JUMPDEST POP PUSH1 0x40 MLOAD PUSH3 0x3863 CODESIZE SUB DUP1 PUSH3 0x3863 DUP4 CODECOPY DUP2 ADD PUSH1 0x40 DUP2 SWAP1 MSTORE PUSH3 0xA1 SWAP2 PUSH3 0x271 JUMP JUMPDEST PUSH1 0x12 SLOAD DUP2 SWAP1 PUSH1 0x1 PUSH1 0x1 PUSH1 0xA0 SHL SUB AND CALLER DUP1 PUSH1 0x0 DUP2 PUSH3 0x106 JUMPI PUSH1 0x40 MLOAD PUSH3 0x461BCD PUSH1 0xE5 SHL DUP2 MSTORE PUSH1 0x20 PUSH1 0x4 DUP3 ADD MSTORE PUSH1 0x18 PUSH1 0x24 DUP3 ADD MSTORE PUSH32 0x43616E6E6F7420736574206F776E657220746F207A65726F0000000000000000 PUSH1 0x44 DUP3 ADD MSTORE PUSH1 0x64 ADD JUMPDEST PUSH1 0x40 MLOAD DUP1 SWAP2 SUB SWAP1 REVERT JUMPDEST PUSH1 0x0 DUP1 SLOAD PUSH1 0x1 PUSH1 0x1 PUSH1 0xA0 SHL SUB NOT AND PUSH1 0x1 PUSH1 0x1 PUSH1 0xA0 SHL SUB DUP5 DUP2 AND SWAP2 SWAP1 SWAP2 OR SWAP1 SWAP2 SSTORE DUP2 AND ISZERO PUSH3 0x139 JUMPI PUSH3 0x139 DUP2 PUSH3 0x1C6 JUMP JUMPDEST POP POP POP PUSH1 0x1 PUSH1 0x1 PUSH1 0xA0 SHL SUB DUP2 AND PUSH3 0x164 JUMPI PUSH1 0x40 MLOAD PUSH4 0xD92E233D PUSH1 0xE0 SHL DUP2 MSTORE PUSH1 0x4 ADD PUSH1 0x40 MLOAD DUP1 SWAP2 SUB SWAP1 REVERT JUMPDEST PUSH1 0x2 DUP1 SLOAD PUSH1 0x1 PUSH1 0x1 PUSH1 0xA0 SHL SUB SWAP1 SWAP3 AND PUSH1 0x1 PUSH1 0x1 PUSH1 0xA0 SHL SUB NOT SWAP3 DUP4 AND OR SWAP1 SSTORE PUSH1 0x11 DUP1 SLOAD SWAP1 SWAP2 AND PUSH20 0x567F2323251F0AAB15C8DFB1967E4E8A7D42AEE OR SWAP1 SSTORE TIMESTAMP PUSH1 0x4 SSTORE PUSH1 0x1 PUSH1 0x5 DUP2 SWAP1 SSTORE PUSH1 0x6 DUP1 SLOAD PUSH1 0xFF NOT AND SWAP1 SSTORE PUSH1 0x13 SWAP2 SWAP1 SWAP2 SSTORE PUSH1 0x1A SSTORE POP PUSH3 0x28B JUMP JUMPDEST CALLER PUSH1 0x1 PUSH1 0x1 PUSH1 0xA0 SHL SUB DUP3 AND SUB PUSH3 0x220 JUMPI PUSH1 0x40 MLOAD PUSH3 0x461BCD PUSH1 0xE5 SHL DUP2 MSTORE PUSH1 0x20 PUSH1 0x4 DUP3 ADD MSTORE PUSH1 0x17 PUSH1 0x24 DUP3 ADD MSTORE PUSH32 0x43616E6E6F74207472616E7366657220746F2073656C66000000000000000000 PUSH1 0x44 DUP3 ADD MSTORE PUSH1 0x64 ADD PUSH3 0xFD JUMP JUMPDEST PUSH1 0x1 DUP1 SLOAD PUSH1 0x1 PUSH1 0x1 PUSH1 0xA0 SHL SUB NOT AND PUSH1 0x1 PUSH1 0x1 PUSH1 0xA0 SHL SUB DUP4 DUP2 AND SWAP2 DUP3 OR SWAP1 SWAP3 SSTORE PUSH1 0x0 DUP1 SLOAD PUSH1 0x40 MLOAD SWAP3 SWAP4 AND SWAP2 PUSH32 0xED8889F560326EB138920D842192F0EB3DD22B4F139C87A2C57538E05BAE1278 SWAP2 SWAP1 LOG3 POP JUMP JUMPDEST PUSH1 0x0 PUSH1 0x20 DUP3 DUP5 SUB SLT ISZERO PUSH3 0x284 JUMPI PUSH1 0x0 DUP1 REVERT JUMPDEST POP MLOAD SWAP2 SWAP1 POP JUMP JUMPDEST PUSH2 0x35C8 DUP1 PUSH3 0x29B PUSH1 0x0 CODECOPY PUSH1 0x0 RETURN INVALID PUSH1 0x80 PUSH1 0x40 MSTORE PUSH1 0x4 CALLDATASIZE LT PUSH2 0x2FF JUMPI PUSH1 0x0 CALLDATALOAD PUSH1 0xE0 SHR DUP1 PUSH4 0x88ED5D64 GT PUSH2 0x190 JUMPI DUP1 PUSH4 0xBC076F52 GT PUSH2 0xDC JUMPI DUP1 PUSH4 0xDC65C843 GT PUSH2 0x95 JUMPI DUP1 PUSH4 0xEA5AB0BA GT PUSH2 0x6F JUMPI DUP1 PUSH4 0xEA5AB0BA EQ PUSH2 0x962 JUMPI DUP1 PUSH4 0xF2FDE38B EQ PUSH2 0x978 JUMPI DUP1 PUSH4 0xF664E752 EQ PUSH2 0x998 JUMPI DUP1 PUSH4 0xFC2A88C3 EQ PUSH2 0x9B8 JUMPI PUSH1 0x0 DUP1 REVERT JUMPDEST DUP1 PUSH4 0xDC65C843 EQ PUSH2 0x898 JUMPI DUP1 PUSH4 0xDC7FE6A5 EQ PUSH2 0x8AB JUMPI DUP1 PUSH4 0xE1BF07B7 EQ PUSH2 0x8CB JUMPI PUSH1 0x0 DUP1 REVERT JUMPDEST DUP1 PUSH4 0xBC076F52 EQ PUSH2 0x7EE JUMPI DUP1 PUSH4 0xC3279F8F EQ PUSH2 0x80E JUMPI DUP1 PUSH4 0xC81D9217 EQ PUSH2 0x83B JUMPI DUP1 PUSH4 0xCC957F28 EQ PUSH2 0x85B JUMPI DUP1 PUSH4 0xD11532B7 EQ PUSH2 0x86E JUMPI DUP1 PUSH4 0xDB2E21BC EQ PUSH2 0x883 JUMPI PUSH1 0x0 DUP1 REVERT JUMPDEST DUP1 PUSH4 0x95877F78 GT PUSH2 0x149 JUMPI DUP1 PUSH4 0xA4EB718C GT PUSH2 0x123 JUMPI DUP1 PUSH4 0xA4EB718C EQ PUSH2 0x776 JUMPI DUP1 PUSH4 0xA9ECBF69 EQ PUSH2 0x796 JUMPI DUP1 PUSH4 0xB0FB162F EQ PUSH2 0x7B0 JUMPI DUP1 PUSH4 0xB933DCBA EQ PUSH2 0x7E6 JUMPI PUSH1 0x0 DUP1 REVERT JUMPDEST DUP1 PUSH4 0x95877F78 EQ PUSH2 0x709 JUMPI DUP1 PUSH4 0x9D5C35AE EQ PUSH2 0x729 JUMPI DUP1 PUSH4 0x9ECCACF6 EQ PUSH2 0x756 JUMPI PUSH1 0x0 DUP1 REVERT JUMPDEST DUP1 PUSH4 0x88ED5D64 EQ PUSH2 0x66F JUMPI DUP1 PUSH4 0x8A19C8BC EQ PUSH2 0x689 JUMPI DUP1 PUSH4 0x8AC00021 EQ PUSH2 0x69F JUMPI DUP1 PUSH4 0x8DA5CB5B EQ PUSH2 0x6B5 JUMPI DUP1 PUSH4 0x8EA2D9EF EQ PUSH2 0x6D3 JUMPI DUP1 PUSH4 0x8EA98117 EQ PUSH2 0x6E9 JUMPI PUSH1 0x0 DUP1 REVERT JUMPDEST DUP1 PUSH4 0x61EDF9B2 GT PUSH2 0x24F JUMPI DUP1 PUSH4 0x75B26D21 GT PUSH2 0x208 JUMPI DUP1 PUSH4 0x8456CB59 GT PUSH2 0x1E2 JUMPI DUP1 PUSH4 0x8456CB59 EQ PUSH2 0x5F7 JUMPI DUP1 PUSH4 0x85705AD3 EQ PUSH2 0x60C JUMPI DUP1 PUSH4 0x87CC17B1 EQ PUSH2 0x63A JUMPI DUP1 PUSH4 0x88B2F7C3 EQ PUSH2 0x667 JUMPI PUSH1 0x0 DUP1 REVERT JUMPDEST DUP1 PUSH4 0x75B26D21 EQ PUSH2 0x58C JUMPI DUP1 PUSH4 0x79BA5097 EQ PUSH2 0x5BB JUMPI DUP1 PUSH4 0x7CCFD7FC EQ PUSH2 0x5D0 JUMPI PUSH1 0x0 DUP1 REVERT JUMPDEST DUP1 PUSH4 0x61EDF9B2 EQ PUSH2 0x4DE JUMPI DUP1 PUSH4 0x63ECD0C3 EQ PUSH2 0x4FE JUMPI DUP1 PUSH4 0x667640EB EQ PUSH2 0x514 JUMPI DUP1 PUSH4 0x676C902F EQ PUSH2 0x534 JUMPI DUP1 PUSH4 0x6A91DA2B EQ PUSH2 0x549 JUMPI DUP1 PUSH4 0x6E04FF0D EQ PUSH2 0x55E JUMPI PUSH1 0x0 DUP1 REVERT JUMPDEST DUP1 PUSH4 0x4585E33B GT PUSH2 0x2BC JUMPI DUP1 PUSH4 0x5C975ABB GT PUSH2 0x296 JUMPI DUP1 PUSH4 0x5C975ABB EQ PUSH2 0x456 JUMPI DUP1 PUSH4 0x5CBBD635 EQ PUSH2 0x470 JUMPI DUP1 PUSH4 0x5DC228A0 EQ PUSH2 0x486 JUMPI DUP1 PUSH4 0x5FF2D2AA EQ PUSH2 0x4BE JUMPI PUSH1 0x0 DUP1 REVERT JUMPDEST DUP1 PUSH4 0x4585E33B EQ PUSH2 0x3F2 JUMPI DUP1 PUSH4 0x45BB327B EQ PUSH2 0x412 JUMPI DUP1 PUSH4 0x4AC2A741 EQ PUSH2 0x436 JUMPI PUSH1 0x0 DUP1 REVERT JUMPDEST DUP1 PUSH4 0x1706672A EQ PUSH2 0x304 JUMPI DUP1 PUSH4 0x1FE543E3 EQ PUSH2 0x349 JUMPI DUP1 PUSH4 0x24F74697 EQ PUSH2 0x36B JUMPI DUP1 PUSH4 0x25D75795 EQ PUSH2 0x39D JUMPI DUP1 PUSH4 0x2B09D310 EQ PUSH2 0x3BD JUMPI DUP1 PUSH4 0x3F4BA83A EQ PUSH2 0x3DD JUMPI JUMPDEST PUSH1 0x0 DUP1 REVERT JUMPDEST CALLVALUE DUP1 ISZERO PUSH2 0x310 JUMPI PUSH1 0x0 DUP1 REVERT JUMPDEST POP PUSH2 0x334 PUSH2 0x31F CALLDATASIZE PUSH1 0x4 PUSH2 0x2E48 JUMP JUMPDEST PUSH1 0x10 PUSH1 0x20 MSTORE PUSH1 0x0 SWAP1 DUP2 MSTORE PUSH1 0x40 SWAP1 KECCAK256 SLOAD PUSH1 0xFF AND DUP2 JUMP JUMPDEST PUSH1 0x40 MLOAD SWAP1 ISZERO ISZERO DUP2 MSTORE PUSH1 0x20 ADD JUMPDEST PUSH1 0x40 MLOAD DUP1 SWAP2 SUB SWAP1 RETURN JUMPDEST CALLVALUE DUP1 ISZERO PUSH2 0x355 JUMPI PUSH1 0x0 DUP1 REVERT JUMPDEST POP PUSH2 0x369 PUSH2 0x364 CALLDATASIZE PUSH1 0x4 PUSH2 0x2EA6 JUMP JUMPDEST PUSH2 0x9CE JUMP JUMPDEST STOP JUMPDEST CALLVALUE DUP1 ISZERO PUSH2 0x377 JUMPI PUSH1 0x0 DUP1 REVERT JUMPDEST POP PUSH1 0x15 SLOAD PUSH2 0x388 SWAP1 PUSH4 0xFFFFFFFF AND DUP2 JUMP JUMPDEST PUSH1 0x40 MLOAD PUSH4 0xFFFFFFFF SWAP1 SWAP2 AND DUP2 MSTORE PUSH1 0x20 ADD PUSH2 0x340 JUMP JUMPDEST CALLVALUE DUP1 ISZERO PUSH2 0x3A9 JUMPI PUSH1 0x0 DUP1 REVERT JUMPDEST POP PUSH2 0x369 PUSH2 0x3B8 CALLDATASIZE PUSH1 0x4 PUSH2 0x2EF2 JUMP JUMPDEST PUSH2 0xA23 JUMP JUMPDEST CALLVALUE DUP1 ISZERO PUSH2 0x3C9 JUMPI PUSH1 0x0 DUP1 REVERT JUMPDEST POP PUSH2 0x369 PUSH2 0x3D8 CALLDATASIZE PUSH1 0x4 PUSH2 0x2E48 JUMP JUMPDEST PUSH2 0xA3E JUMP JUMPDEST CALLVALUE DUP1 ISZERO PUSH2 0x3E9 JUMPI PUSH1 0x0 DUP1 REVERT JUMPDEST POP PUSH2 0x369 PUSH2 0xA9B JUMP JUMPDEST CALLVALUE DUP1 ISZERO PUSH2 0x3FE JUMPI PUSH1 0x0 DUP1 REVERT JUMPDEST POP PUSH2 0x369 PUSH2 0x40D CALLDATASIZE PUSH1 0x4 PUSH2 0x2F1B JUMP JUMPDEST PUSH2 0xAAF JUMP JUMPDEST CALLVALUE DUP1 ISZERO PUSH2 0x41E JUMPI PUSH1 0x0 DUP1 REVERT JUMPDEST POP PUSH2 0x428 PUSH1 0x14 SLOAD DUP2 JUMP JUMPDEST PUSH1 0x40 MLOAD SWAP1 DUP2 MSTORE PUSH1 0x20 ADD PUSH2 0x340 JUMP JUMPDEST CALLVALUE DUP1 ISZERO PUSH2 0x442 JUMPI PUSH1 0x0 DUP1 REVERT JUMPDEST POP PUSH2 0x369 PUSH2 0x451 CALLDATASIZE PUSH1 0x4 PUSH2 0x2F8D JUMP JUMPDEST PUSH2 0xB65 JUMP JUMPDEST CALLVALUE DUP1 ISZERO PUSH2 0x462 JUMPI PUSH1 0x0 DUP1 REVERT JUMPDEST POP PUSH1 0x6 SLOAD PUSH2 0x334 SWAP1 PUSH1 0xFF AND DUP2 JUMP JUMPDEST CALLVALUE DUP1 ISZERO PUSH2 0x47C JUMPI PUSH1 0x0 DUP1 REVERT JUMPDEST POP PUSH2 0x428 PUSH1 0x4 SLOAD DUP2 JUMP JUMPDEST CALLVALUE DUP1 ISZERO PUSH2 0x492 JUMPI PUSH1 0x0 DUP1 REVERT JUMPDEST POP PUSH1 0xA SLOAD PUSH2 0x4A6 SWAP1 PUSH1 0x1 PUSH1 0x1 PUSH1 0xA0 SHL SUB AND DUP2 JUMP JUMPDEST PUSH1 0x40 MLOAD PUSH1 0x1 PUSH1 0x1 PUSH1 0xA0 SHL SUB SWAP1 SWAP2 AND DUP2 MSTORE PUSH1 0x20 ADD PUSH2 0x340 JUMP JUMPDEST CALLVALUE DUP1 ISZERO PUSH2 0x4CA JUMPI PUSH1 0x0 DUP1 REVERT JUMPDEST POP PUSH2 0x369 PUSH2 0x4D9 CALLDATASIZE PUSH1 0x4 PUSH2 0x304D JUMP JUMPDEST PUSH2 0xDB0 JUMP JUMPDEST CALLVALUE DUP1 ISZERO PUSH2 0x4EA JUMPI PUSH1 0x0 DUP1 REVERT JUMPDEST POP PUSH2 0x369 PUSH2 0x4F9 CALLDATASIZE PUSH1 0x4 PUSH2 0x3079 JUMP JUMPDEST PUSH2 0xE22 JUMP JUMPDEST CALLVALUE DUP1 ISZERO PUSH2 0x50A JUMPI PUSH1 0x0 DUP1 REVERT JUMPDEST POP PUSH2 0x428 PUSH1 0x3 SLOAD DUP2 JUMP JUMPDEST CALLVALUE DUP1 ISZERO PUSH2 0x520 JUMPI PUSH1 0x0 DUP1 REVERT JUMPDEST POP PUSH2 0x369 PUSH2 0x52F CALLDATASIZE PUSH1 0x4 PUSH2 0x2EF2 JUMP JUMPDEST PUSH2 0x10CD JUMP JUMPDEST CALLVALUE DUP1 ISZERO PUSH2 0x540 JUMPI PUSH1 0x0 DUP1 REVERT JUMPDEST POP PUSH2 0x369 PUSH2 0x10E8 JUMP JUMPDEST CALLVALUE DUP1 ISZERO PUSH2 0x555 JUMPI PUSH1 0x0 DUP1 REVERT JUMPDEST POP PUSH2 0x428 PUSH2 0x10FA JUMP JUMPDEST CALLVALUE DUP1 ISZERO PUSH2 0x56A JUMPI PUSH1 0x0 DUP1 REVERT JUMPDEST POP PUSH2 0x57E PUSH2 0x579 CALLDATASIZE PUSH1 0x4 PUSH2 0x2F1B JUMP JUMPDEST PUSH2 0x11ED JUMP JUMPDEST PUSH1 0x40 MLOAD PUSH2 0x340 SWAP3 SWAP2 SWAP1 PUSH2 0x30DA JUMP JUMPDEST CALLVALUE DUP1 ISZERO PUSH2 0x598 JUMPI PUSH1 0x0 DUP1 REVERT JUMPDEST POP PUSH2 0x5AC PUSH2 0x5A7 CALLDATASIZE PUSH1 0x4 PUSH2 0x2E48 JUMP JUMPDEST PUSH2 0x120E JUMP JUMPDEST PUSH1 0x40 MLOAD PUSH2 0x340 SWAP4 SWAP3 SWAP2 SWAP1 PUSH2 0x3139 JUMP JUMPDEST CALLVALUE DUP1 ISZERO PUSH2 0x5C7 JUMPI PUSH1 0x0 DUP1 REVERT JUMPDEST POP PUSH2 0x369 PUSH2 0x1358 JUMP JUMPDEST CALLVALUE DUP1 ISZERO PUSH2 0x5DC JUMPI PUSH1 0x0 DUP1 REVERT JUMPDEST POP PUSH1 0x15 SLOAD PUSH2 0x388 SWAP1 PUSH7 0x1000000000000 SWAP1 DIV PUSH4 0xFFFFFFFF AND DUP2 JUMP JUMPDEST CALLVALUE DUP1 ISZERO PUSH2 0x603 JUMPI PUSH1 0x0 DUP1 REVERT JUMPDEST POP PUSH2 0x369 PUSH2 0x1402 JUMP JUMPDEST CALLVALUE DUP1 ISZERO PUSH2 0x618 JUMPI PUSH1 0x0 DUP1 REVERT JUMPDEST POP PUSH2 0x62C PUSH2 0x627 CALLDATASIZE PUSH1 0x4 PUSH2 0x2E48 JUMP JUMPDEST PUSH2 0x1419 JUMP JUMPDEST PUSH1 0x40 MLOAD PUSH2 0x340 SWAP3 SWAP2 SWAP1 PUSH2 0x31A8 JUMP JUMPDEST CALLVALUE DUP1 ISZERO PUSH2 0x646 JUMPI PUSH1 0x0 DUP1 REVERT JUMPDEST POP PUSH2 0x428 PUSH2 0x655 CALLDATASIZE PUSH1 0x4 PUSH2 0x2E48 JUMP JUMPDEST PUSH1 0xB PUSH1 0x20 MSTORE PUSH1 0x0 SWAP1 DUP2 MSTORE PUSH1 0x40 SWAP1 KECCAK256 SLOAD DUP2 JUMP JUMPDEST PUSH2 0x369 PUSH2 0x15BF JUMP JUMPDEST CALLVALUE DUP1 ISZERO PUSH2 0x67B JUMPI PUSH1 0x0 DUP1 REVERT JUMPDEST POP PUSH1 0x17 SLOAD PUSH2 0x334 SWAP1 PUSH1 0xFF AND DUP2 JUMP JUMPDEST CALLVALUE DUP1 ISZERO PUSH2 0x695 JUMPI PUSH1 0x0 DUP1 REVERT JUMPDEST POP PUSH2 0x428 PUSH1 0x5 SLOAD DUP2 JUMP JUMPDEST CALLVALUE DUP1 ISZERO PUSH2 0x6AB JUMPI PUSH1 0x0 DUP1 REVERT JUMPDEST POP PUSH2 0x428 PUSH1 0x13 SLOAD DUP2 JUMP JUMPDEST CALLVALUE DUP1 ISZERO PUSH2 0x6C1 JUMPI PUSH1 0x0 DUP1 REVERT JUMPDEST POP PUSH1 0x0 SLOAD PUSH1 0x1 PUSH1 0x1 PUSH1 0xA0 SHL SUB AND PUSH2 0x4A6 JUMP JUMPDEST CALLVALUE DUP1 ISZERO PUSH2 0x6DF JUMPI PUSH1 0x0 DUP1 REVERT JUMPDEST POP PUSH2 0x428 PUSH1 0x9 SLOAD DUP2 JUMP JUMPDEST CALLVALUE DUP1 ISZERO PUSH2 0x6F5 JUMPI PUSH1 0x0 DUP1 REVERT JUMPDEST POP PUSH2 0x369 PUSH2 0x704 CALLDATASIZE PUSH1 0x4 PUSH2 0x304D JUMP JUMPDEST PUSH2 0x163E JUMP JUMPDEST CALLVALUE DUP1 ISZERO PUSH2 0x715 JUMPI PUSH1 0x0 DUP1 REVERT JUMPDEST POP PUSH2 0x369 PUSH2 0x724 CALLDATASIZE PUSH1 0x4 PUSH2 0x304D JUMP JUMPDEST PUSH2 0x1730 JUMP JUMPDEST CALLVALUE DUP1 ISZERO PUSH2 0x735 JUMPI PUSH1 0x0 DUP1 REVERT JUMPDEST POP PUSH2 0x749 PUSH2 0x744 CALLDATASIZE PUSH1 0x4 PUSH2 0x2E48 JUMP JUMPDEST PUSH2 0x17B0 JUMP JUMPDEST PUSH1 0x40 MLOAD PUSH2 0x340 SWAP2 SWAP1 PUSH2 0x3209 JUMP JUMPDEST CALLVALUE DUP1 ISZERO PUSH2 0x762 JUMPI PUSH1 0x0 DUP1 REVERT JUMPDEST POP PUSH1 0x2 SLOAD PUSH2 0x4A6 SWAP1 PUSH1 0x1 PUSH1 0x1 PUSH1 0xA0 SHL SUB AND DUP2 JUMP JUMPDEST CALLVALUE DUP1 ISZERO PUSH2 0x782 JUMPI PUSH1 0x0 DUP1 REVERT JUMPDEST POP PUSH2 0x369 PUSH2 0x791 CALLDATASIZE PUSH1 0x4 PUSH2 0x321D JUMP JUMPDEST PUSH2 0x1818 JUMP JUMPDEST CALLVALUE DUP1 ISZERO PUSH2 0x7A2 JUMPI PUSH1 0x0 DUP1 REVERT JUMPDEST POP PUSH1 0x8 SLOAD PUSH2 0x334 SWAP1 PUSH1 0xFF AND DUP2 JUMP JUMPDEST CALLVALUE DUP1 ISZERO PUSH2 0x7BC JUMPI PUSH1 0x0 DUP1 REVERT JUMPDEST POP PUSH1 0x15 SLOAD PUSH2 0x7D3 SWAP1 PUSH5 0x100000000 SWAP1 DIV PUSH2 0xFFFF AND DUP2 JUMP JUMPDEST PUSH1 0x40 MLOAD PUSH2 0xFFFF SWAP1 SWAP2 AND DUP2 MSTORE PUSH1 0x20 ADD PUSH2 0x340 JUMP JUMPDEST PUSH2 0x369 PUSH2 0x187F JUMP JUMPDEST CALLVALUE DUP1 ISZERO PUSH2 0x7FA JUMPI PUSH1 0x0 DUP1 REVERT JUMPDEST POP PUSH2 0x369 PUSH2 0x809 CALLDATASIZE PUSH1 0x4 PUSH2 0x2E48 JUMP JUMPDEST PUSH2 0x1B6F JUMP JUMPDEST CALLVALUE DUP1 ISZERO PUSH2 0x81A JUMPI PUSH1 0x0 DUP1 REVERT JUMPDEST POP PUSH2 0x428 PUSH2 0x829 CALLDATASIZE PUSH1 0x4 PUSH2 0x2E48 JUMP JUMPDEST PUSH1 0xD PUSH1 0x20 MSTORE PUSH1 0x0 SWAP1 DUP2 MSTORE PUSH1 0x40 SWAP1 KECCAK256 SLOAD DUP2 JUMP JUMPDEST CALLVALUE DUP1 ISZERO PUSH2 0x847 JUMPI PUSH1 0x0 DUP1 REVERT JUMPDEST POP PUSH2 0x62C PUSH2 0x856 CALLDATASIZE PUSH1 0x4 PUSH2 0x2E48 JUMP JUMPDEST PUSH2 0x1BCC JUMP JUMPDEST PUSH2 0x369 PUSH2 0x869 CALLDATASIZE PUSH1 0x4 PUSH2 0x3259 JUMP JUMPDEST PUSH2 0x1DB2 JUMP JUMPDEST CALLVALUE DUP1 ISZERO PUSH2 0x87A JUMPI PUSH1 0x0 DUP1 REVERT JUMPDEST POP PUSH2 0x428 PUSH2 0x1EA3 JUMP JUMPDEST CALLVALUE DUP1 ISZERO PUSH2 0x88F JUMPI PUSH1 0x0 DUP1 REVERT JUMPDEST POP PUSH2 0x369 PUSH2 0x1F91 JUMP JUMPDEST PUSH2 0x369 PUSH2 0x8A6 CALLDATASIZE PUSH1 0x4 PUSH2 0x3079 JUMP JUMPDEST PUSH2 0x20CB JUMP JUMPDEST CALLVALUE DUP1 ISZERO PUSH2 0x8B7 JUMPI PUSH1 0x0 DUP1 REVERT JUMPDEST POP PUSH2 0x4A6 PUSH2 0x8C6 CALLDATASIZE PUSH1 0x4 PUSH2 0x32EC JUMP JUMPDEST PUSH2 0x246A JUMP JUMPDEST CALLVALUE DUP1 ISZERO PUSH2 0x8D7 JUMPI PUSH1 0x0 DUP1 REVERT JUMPDEST POP PUSH2 0x927 PUSH2 0x8E6 CALLDATASIZE PUSH1 0x4 PUSH2 0x2E48 JUMP JUMPDEST PUSH1 0xE PUSH1 0x20 MSTORE PUSH1 0x0 SWAP1 DUP2 MSTORE PUSH1 0x40 SWAP1 KECCAK256 DUP1 SLOAD PUSH1 0x1 DUP3 ADD SLOAD PUSH1 0x7 DUP4 ADD SLOAD PUSH1 0x8 DUP5 ADD SLOAD PUSH1 0x9 DUP6 ADD SLOAD PUSH1 0xA DUP7 ADD SLOAD PUSH1 0xB SWAP1 SWAP7 ADD SLOAD SWAP5 SWAP6 SWAP4 SWAP5 PUSH1 0xFF SWAP1 SWAP4 AND SWAP4 SWAP2 SWAP3 SWAP1 SWAP2 SWAP1 DUP8 JUMP JUMPDEST PUSH1 0x40 DUP1 MLOAD SWAP8 DUP9 MSTORE PUSH1 0x20 DUP9 ADD SWAP7 SWAP1 SWAP7 MSTORE SWAP4 ISZERO ISZERO SWAP5 DUP7 ADD SWAP5 SWAP1 SWAP5 MSTORE PUSH1 0x60 DUP6 ADD SWAP2 SWAP1 SWAP2 MSTORE PUSH1 0x80 DUP5 ADD MSTORE PUSH1 0xA0 DUP4 ADD SWAP2 SWAP1 SWAP2 MSTORE PUSH1 0xC0 DUP3 ADD MSTORE PUSH1 0xE0 ADD PUSH2 0x340 JUMP JUMPDEST CALLVALUE DUP1 ISZERO PUSH2 0x96E JUMPI PUSH1 0x0 DUP1 REVERT JUMPDEST POP PUSH2 0x428 PUSH1 0x7 SLOAD DUP2 JUMP JUMPDEST CALLVALUE DUP1 ISZERO PUSH2 0x984 JUMPI PUSH1 0x0 DUP1 REVERT JUMPDEST POP PUSH2 0x369 PUSH2 0x993 CALLDATASIZE PUSH1 0x4 PUSH2 0x304D JUMP JUMPDEST PUSH2 0x24B4 JUMP JUMPDEST CALLVALUE DUP1 ISZERO PUSH2 0x9A4 JUMPI PUSH1 0x0 DUP1 REVERT JUMPDEST POP PUSH2 0x369 PUSH2 0x9B3 CALLDATASIZE PUSH1 0x4 PUSH2 0x3321 JUMP JUMPDEST PUSH2 0x24C5 JUMP JUMPDEST CALLVALUE DUP1 ISZERO PUSH2 0x9C4 JUMPI PUSH1 0x0 DUP1 REVERT JUMPDEST POP PUSH2 0x428 PUSH1 0x16 SLOAD DUP2 JUMP JUMPDEST PUSH1 0x2 SLOAD PUSH1 0x1 PUSH1 0x1 PUSH1 0xA0 SHL SUB AND CALLER EQ PUSH2 0xA13 JUMPI PUSH1 0x2 SLOAD PUSH1 0x40 MLOAD PUSH4 0x73E64FD PUSH1 0xE2 SHL DUP2 MSTORE CALLER PUSH1 0x4 DUP3 ADD MSTORE PUSH1 0x1 PUSH1 0x1 PUSH1 0xA0 SHL SUB SWAP1 SWAP2 AND PUSH1 0x24 DUP3 ADD MSTORE PUSH1 0x44 ADD JUMPDEST PUSH1 0x40 MLOAD DUP1 SWAP2 SUB SWAP1 REVERT JUMPDEST PUSH2 0xA1E DUP4 DUP4 DUP4 PUSH2 0x2589 JUMP JUMPDEST POP POP POP JUMP JUMPDEST PUSH2 0xA2B PUSH2 0x2773 JUMP JUMPDEST PUSH1 0x8 DUP1 SLOAD PUSH1 0xFF NOT AND SWAP2 ISZERO ISZERO SWAP2 SWAP1 SWAP2 OR SWAP1 SSTORE JUMP JUMPDEST PUSH2 0xA46 PUSH2 0x2773 JUMP JUMPDEST PUSH1 0x0 DUP2 GT PUSH2 0xA96 JUMPI PUSH1 0x40 MLOAD PUSH3 0x461BCD PUSH1 0xE5 SHL DUP2 MSTORE PUSH1 0x20 PUSH1 0x4 DUP3 ADD MSTORE PUSH1 0x17 PUSH1 0x24 DUP3 ADD MSTORE PUSH32 0x496E76616C696420737562736372697074696F6E204944000000000000000000 PUSH1 0x44 DUP3 ADD MSTORE PUSH1 0x64 ADD PUSH2 0xA0A JUMP JUMPDEST PUSH1 0x13 SSTORE JUMP JUMPDEST PUSH2 0xAA3 PUSH2 0x2773 JUMP JUMPDEST PUSH1 0x6 DUP1 SLOAD PUSH1 0xFF NOT AND SWAP1 SSTORE JUMP JUMPDEST PUSH1 0xA SLOAD PUSH1 0x1 PUSH1 0x1 PUSH1 0xA0 SHL SUB AND CALLER EQ PUSH2 0xAFA JUMPI PUSH1 0x40 MLOAD PUSH3 0x461BCD PUSH1 0xE5 SHL DUP2 MSTORE PUSH1 0x20 PUSH1 0x4 DUP3 ADD MSTORE PUSH1 0xE PUSH1 0x24 DUP3 ADD MSTORE PUSH14 0x139BDD08185D5D1A1BDC9A5E9959 PUSH1 0x92 SHL PUSH1 0x44 DUP3 ADD MSTORE PUSH1 0x64 ADD PUSH2 0xA0A JUMP JUMPDEST PUSH1 0x17 SLOAD PUSH1 0xFF AND ISZERO PUSH2 0xB59 JUMPI PUSH1 0x40 MLOAD PUSH3 0x461BCD PUSH1 0xE5 SHL DUP2 MSTORE PUSH1 0x20 PUSH1 0x4 DUP3 ADD MSTORE PUSH1 0x23 PUSH1 0x24 DUP3 ADD MSTORE PUSH32 0x4472617720616C726561647920696E2070726F6772657373206F722070656E64 PUSH1 0x44 DUP3 ADD MSTORE PUSH3 0x696E67 PUSH1 0xE8 SHL PUSH1 0x64 DUP3 ADD MSTORE PUSH1 0x84 ADD PUSH2 0xA0A JUMP JUMPDEST PUSH2 0xB61 PUSH2 0x27C6 JUMP JUMPDEST POP POP JUMP JUMPDEST PUSH2 0xB6D PUSH2 0x2773 JUMP JUMPDEST PUSH1 0x7 SLOAD DUP8 EQ PUSH2 0xBAE JUMPI PUSH1 0x40 MLOAD PUSH3 0x461BCD PUSH1 0xE5 SHL DUP2 MSTORE PUSH1 0x20 PUSH1 0x4 DUP3 ADD MSTORE PUSH1 0xD PUSH1 0x24 DUP3 ADD MSTORE PUSH13 0x125B9D985B1A59081C9BDD5B99 PUSH1 0x9A SHL PUSH1 0x44 DUP3 ADD MSTORE PUSH1 0x64 ADD PUSH2 0xA0A JUMP JUMPDEST PUSH1 0x8 SLOAD PUSH1 0xFF AND ISZERO PUSH2 0xC01 JUMPI PUSH1 0x40 MLOAD PUSH3 0x461BCD PUSH1 0xE5 SHL DUP2 MSTORE PUSH1 0x20 PUSH1 0x4 DUP3 ADD MSTORE PUSH1 0x19 PUSH1 0x24 DUP3 ADD MSTORE PUSH32 0x57696E6E65727320616C7265616479207375626D697474656400000000000000 PUSH1 0x44 DUP3 ADD MSTORE PUSH1 0x64 ADD PUSH2 0xA0A JUMP JUMPDEST PUSH1 0x9 SLOAD TIMESTAMP GT ISZERO PUSH2 0xC53 JUMPI PUSH1 0x40 MLOAD PUSH3 0x461BCD PUSH1 0xE5 SHL DUP2 MSTORE PUSH1 0x20 PUSH1 0x4 DUP3 ADD MSTORE PUSH1 0x1A PUSH1 0x24 DUP3 ADD MSTORE PUSH32 0x5375626D697373696F6E20646561646C696E6520706173736564000000000000 PUSH1 0x44 DUP3 ADD MSTORE PUSH1 0x64 ADD PUSH2 0xA0A JUMP JUMPDEST PUSH1 0x0 DUP8 DUP2 MSTORE PUSH1 0xE PUSH1 0x20 MSTORE PUSH1 0x40 SWAP1 KECCAK256 PUSH2 0xC6F PUSH1 0x4 DUP3 ADD DUP9 DUP9 PUSH2 0x2D28 JUMP JUMPDEST POP PUSH2 0xC7E PUSH1 0x5 DUP3 ADD DUP7 DUP7 PUSH2 0x2D28 JUMP JUMPDEST POP PUSH2 0xC8D PUSH1 0x6 DUP3 ADD DUP5 DUP5 PUSH2 0x2D28 JUMP JUMPDEST POP PUSH1 0x64 DUP2 PUSH1 0x1 ADD SLOAD PUSH1 0xA PUSH2 0xCA1 SWAP2 SWAP1 PUSH2 0x3361 JUMP JUMPDEST PUSH2 0xCAB SWAP2 SWAP1 PUSH2 0x338E JUMP JUMPDEST PUSH1 0x9 DUP3 ADD SSTORE PUSH1 0x1 DUP2 ADD SLOAD PUSH1 0x64 SWAP1 PUSH2 0xCC3 SWAP1 PUSH1 0x14 PUSH2 0x3361 JUMP JUMPDEST PUSH2 0xCCD SWAP2 SWAP1 PUSH2 0x338E JUMP JUMPDEST PUSH1 0xA DUP3 ADD SSTORE PUSH1 0x1 DUP2 ADD SLOAD PUSH1 0x64 SWAP1 PUSH2 0xCE5 SWAP1 PUSH1 0x41 PUSH2 0x3361 JUMP JUMPDEST PUSH2 0xCEF SWAP2 SWAP1 PUSH2 0x338E JUMP JUMPDEST PUSH1 0xB DUP3 ADD SSTORE PUSH1 0x1 DUP2 ADD SLOAD PUSH1 0x0 SWAP1 PUSH1 0x64 SWAP1 PUSH2 0xD0A SWAP1 PUSH1 0x5 PUSH2 0x3361 JUMP JUMPDEST PUSH2 0xD14 SWAP2 SWAP1 PUSH2 0x338E JUMP JUMPDEST SWAP1 POP PUSH1 0x0 DUP8 SWAP1 SUB PUSH2 0xD31 JUMPI PUSH1 0x9 DUP3 ADD SLOAD PUSH2 0xD2E SWAP1 DUP3 PUSH2 0x33A2 JUMP JUMPDEST SWAP1 POP JUMPDEST PUSH1 0x0 DUP6 SWAP1 SUB PUSH2 0xD4C JUMPI PUSH1 0xA DUP3 ADD SLOAD PUSH2 0xD49 SWAP1 DUP3 PUSH2 0x33A2 JUMP JUMPDEST SWAP1 POP JUMPDEST PUSH1 0x0 DUP4 SWAP1 SUB PUSH2 0xD67 JUMPI PUSH1 0xB DUP3 ADD SLOAD PUSH2 0xD64 SWAP1 DUP3 PUSH2 0x33A2 JUMP JUMPDEST SWAP1 POP JUMPDEST PUSH1 0x8 DUP1 DUP4 ADD DUP3 SWAP1 SSTORE DUP1 SLOAD PUSH1 0xFF NOT AND PUSH1 0x1 OR SWAP1 SSTORE PUSH1 0x40 MLOAD DUP10 SWAP1 PUSH32 0xEE48F9A28712E5F0F17433FB01BF7F28C8C6A79EAF04A7F405EB34FA36B694F9 SWAP1 PUSH1 0x0 SWAP1 LOG2 POP POP POP POP POP POP POP POP POP JUMP JUMPDEST PUSH2 0xDB8 PUSH2 0x2773 JUMP JUMPDEST PUSH1 0x1 PUSH1 0x1 PUSH1 0xA0 SHL SUB DUP2 AND PUSH2 0xE00 JUMPI PUSH1 0x40 MLOAD PUSH3 0x461BCD PUSH1 0xE5 SHL DUP2 MSTORE PUSH1 0x20 PUSH1 0x4 DUP3 ADD MSTORE PUSH1 0xF PUSH1 0x24 DUP3 ADD MSTORE PUSH15 0x496E76616C69642061646472657373 PUSH1 0x88 SHL PUSH1 0x44 DUP3 ADD MSTORE PUSH1 0x64 ADD PUSH2 0xA0A JUMP JUMPDEST PUSH1 0xA DUP1 SLOAD PUSH1 0x1 PUSH1 0x1 PUSH1 0xA0 SHL SUB NOT AND PUSH1 0x1 PUSH1 0x1 PUSH1 0xA0 SHL SUB SWAP3 SWAP1 SWAP3 AND SWAP2 SWAP1 SWAP2 OR SWAP1 SSTORE JUMP JUMPDEST PUSH2 0xE2A PUSH2 0x2773 JUMP JUMPDEST PUSH2 0xE32 PUSH2 0x295C JUMP JUMPDEST PUSH1 0x1B SLOAD PUSH1 0xFF AND ISZERO PUSH2 0xE85 JUMPI PUSH1 0x40 MLOAD PUSH3 0x461BCD PUSH1 0xE5 SHL DUP2 MSTORE PUSH1 0x20 PUSH1 0x4 DUP3 ADD MSTORE PUSH1 0x18 PUSH1 0x24 DUP3 ADD MSTORE PUSH32 0x446973747269627574696F6E20696E2070726F67726573730000000000000000 PUSH1 0x44 DUP3 ADD MSTORE PUSH1 0x64 ADD PUSH2 0xA0A JUMP JUMPDEST PUSH1 0x1B DUP1 SLOAD PUSH1 0xFF NOT AND PUSH1 0x1 OR SWAP1 SSTORE PUSH1 0x8 SLOAD PUSH1 0xFF AND PUSH2 0xEDC JUMPI PUSH1 0x40 MLOAD PUSH3 0x461BCD PUSH1 0xE5 SHL DUP2 MSTORE PUSH1 0x20 PUSH1 0x4 DUP3 ADD MSTORE PUSH1 0x15 PUSH1 0x24 DUP3 ADD MSTORE PUSH21 0x15DA5B9B995C9CC81B9BDD081CDD589B5A5D1D1959 PUSH1 0x5A SHL PUSH1 0x44 DUP3 ADD MSTORE PUSH1 0x64 ADD PUSH2 0xA0A JUMP JUMPDEST PUSH1 0x7 DUP1 SLOAD PUSH1 0x0 SWAP1 DUP2 MSTORE PUSH1 0xE PUSH1 0x20 MSTORE PUSH1 0x40 SWAP1 KECCAK256 SWAP1 DUP2 ADD SLOAD PUSH1 0xFF AND ISZERO PUSH2 0xF42 JUMPI PUSH1 0x40 MLOAD PUSH3 0x461BCD PUSH1 0xE5 SHL DUP2 MSTORE PUSH1 0x20 PUSH1 0x4 DUP3 ADD MSTORE PUSH1 0x1A PUSH1 0x24 DUP3 ADD MSTORE PUSH32 0x5072697A657320616C7265616479206469737472696275746564000000000000 PUSH1 0x44 DUP3 ADD MSTORE PUSH1 0x64 ADD PUSH2 0xA0A JUMP JUMPDEST PUSH1 0x0 DUP3 PUSH1 0xFF AND PUSH1 0x3 EQ PUSH2 0xF6C JUMPI DUP3 PUSH1 0xFF AND PUSH1 0x4 EQ PUSH2 0xF63 JUMPI DUP2 PUSH1 0x6 ADD PUSH2 0xF71 JUMP JUMPDEST DUP2 PUSH1 0x5 ADD PUSH2 0xF71 JUMP JUMPDEST DUP2 PUSH1 0x4 ADD JUMPDEST SWAP1 POP PUSH1 0x0 DUP4 PUSH1 0xFF AND PUSH1 0x3 SUB PUSH2 0xF8B JUMPI POP PUSH1 0x9 DUP3 ADD SLOAD PUSH2 0xFA8 JUMP JUMPDEST DUP4 PUSH1 0xFF AND PUSH1 0x4 SUB PUSH2 0xFA1 JUMPI POP PUSH1 0xA DUP3 ADD SLOAD PUSH2 0xFA8 JUMP JUMPDEST POP PUSH1 0xB DUP3 ADD SLOAD JUMPDEST DUP4 PUSH1 0xFF AND PUSH1 0x5 SUB PUSH2 0xFEE JUMPI PUSH1 0x7 DUP4 ADD DUP1 SLOAD PUSH1 0xFF NOT AND PUSH1 0x1 OR SWAP1 SSTORE PUSH1 0x5 DUP1 SLOAD SWAP1 PUSH1 0x0 PUSH2 0xFD2 DUP4 PUSH2 0x33B5 JUMP JUMPDEST SWAP1 SWAP2 SSTORE POP POP PUSH1 0x8 DUP1 SLOAD PUSH1 0xFF NOT SWAP1 DUP2 AND SWAP1 SWAP2 SSTORE PUSH1 0x17 DUP1 SLOAD SWAP1 SWAP2 AND SWAP1 SSTORE JUMPDEST DUP2 SLOAD ISZERO PUSH2 0x107A JUMPI DUP2 SLOAD PUSH1 0x0 SWAP1 PUSH2 0x1004 SWAP1 DUP4 PUSH2 0x338E JUMP JUMPDEST SWAP1 POP PUSH1 0x0 JUMPDEST DUP4 SLOAD DUP2 LT ISZERO PUSH2 0x1077 JUMPI DUP4 DUP2 DUP2 SLOAD DUP2 LT PUSH2 0x1024 JUMPI PUSH2 0x1024 PUSH2 0x33CE JUMP JUMPDEST PUSH1 0x0 SWAP2 DUP3 MSTORE PUSH1 0x20 DUP3 KECCAK256 ADD SLOAD PUSH1 0x40 MLOAD PUSH1 0x1 PUSH1 0x1 PUSH1 0xA0 SHL SUB SWAP1 SWAP2 AND SWAP2 DUP5 ISZERO PUSH2 0x8FC MUL SWAP2 DUP6 SWAP2 DUP2 DUP2 DUP2 DUP6 DUP9 DUP9 CALL SWAP4 POP POP POP POP ISZERO DUP1 ISZERO PUSH2 0x1064 JUMPI RETURNDATASIZE PUSH1 0x0 DUP1 RETURNDATACOPY RETURNDATASIZE PUSH1 0x0 REVERT JUMPDEST POP DUP1 PUSH2 0x106F DUP2 PUSH2 0x33B5 JUMP JUMPDEST SWAP2 POP POP PUSH2 0x1009 JUMP JUMPDEST POP POP JUMPDEST PUSH1 0x1B DUP1 SLOAD PUSH1 0xFF NOT AND SWAP1 SSTORE PUSH1 0x7 SLOAD PUSH1 0x40 MLOAD PUSH1 0xFF DUP7 AND DUP2 MSTORE PUSH32 0x7579876CF141B70E3BEF48886191F214AA1AB0B2F1ECDBC8DCCA466312AED7E SWAP1 PUSH1 0x20 ADD PUSH1 0x40 MLOAD DUP1 SWAP2 SUB SWAP1 LOG2 POP POP POP PUSH2 0x10CA PUSH1 0x1 PUSH1 0x1A SSTORE JUMP JUMPDEST POP JUMP JUMPDEST PUSH2 0x10D5 PUSH2 0x2773 JUMP JUMPDEST PUSH1 0x17 DUP1 SLOAD PUSH1 0xFF NOT AND SWAP2 ISZERO ISZERO SWAP2 SWAP1 SWAP2 OR SWAP1 SSTORE JUMP JUMPDEST PUSH2 0x10F0 PUSH2 0x2773 JUMP JUMPDEST PUSH2 0x10F8 PUSH2 0x27C6 JUMP JUMPDEST JUMP JUMPDEST PUSH1 0x0 DUP1 PUSH1 0x11 PUSH1 0x0 SWAP1 SLOAD SWAP1 PUSH2 0x100 EXP SWAP1 DIV PUSH1 0x1 PUSH1 0x1 PUSH1 0xA0 SHL SUB AND PUSH1 0x1 PUSH1 0x1 PUSH1 0xA0 SHL SUB AND PUSH4 0xFEAF968C PUSH1 0x40 MLOAD DUP2 PUSH4 0xFFFFFFFF AND PUSH1 0xE0 SHL DUP2 MSTORE PUSH1 0x4 ADD PUSH1 0xA0 PUSH1 0x40 MLOAD DUP1 DUP4 SUB DUP2 DUP7 GAS STATICCALL ISZERO DUP1 ISZERO PUSH2 0x1150 JUMPI RETURNDATASIZE PUSH1 0x0 DUP1 RETURNDATACOPY RETURNDATASIZE PUSH1 0x0 REVERT JUMPDEST POP POP POP POP PUSH1 0x40 MLOAD RETURNDATASIZE PUSH1 0x1F NOT PUSH1 0x1F DUP3 ADD AND DUP3 ADD DUP1 PUSH1 0x40 MSTORE POP DUP2 ADD SWAP1 PUSH2 0x1174 SWAP2 SWAP1 PUSH2 0x33FE JUMP JUMPDEST POP POP POP SWAP2 POP POP PUSH1 0x0 DUP2 SGT PUSH2 0x11C2 JUMPI PUSH1 0x40 MLOAD PUSH3 0x461BCD PUSH1 0xE5 SHL DUP2 MSTORE PUSH1 0x20 PUSH1 0x4 DUP3 ADD MSTORE PUSH1 0x15 PUSH1 0x24 DUP3 ADD MSTORE PUSH21 0x496E76616C696420424E422F555344207072696365 PUSH1 0x58 SHL PUSH1 0x44 DUP3 ADD MSTORE PUSH1 0x64 ADD PUSH2 0xA0A JUMP JUMPDEST DUP1 PUSH1 0x0 PUSH11 0x52B7D2DCC80CD2E4000000 PUSH2 0x11DB DUP4 SELFBALANCE PUSH2 0x3361 JUMP JUMPDEST PUSH2 0x11E5 SWAP2 SWAP1 PUSH2 0x338E JUMP JUMPDEST SWAP5 SWAP4 POP POP POP POP JUMP JUMPDEST PUSH1 0x17 SLOAD PUSH1 0x40 DUP1 MLOAD PUSH1 0x20 DUP2 ADD SWAP1 SWAP2 MSTORE PUSH1 0x0 DUP2 MSTORE PUSH1 0xFF SWAP1 SWAP2 AND ISZERO SWAP1 JUMPDEST SWAP3 POP SWAP3 SWAP1 POP JUMP JUMPDEST PUSH1 0x60 DUP1 PUSH1 0x60 PUSH1 0x0 PUSH1 0xE PUSH1 0x0 DUP7 DUP2 MSTORE PUSH1 0x20 ADD SWAP1 DUP2 MSTORE PUSH1 0x20 ADD PUSH1 0x0 KECCAK256 SWAP1 POP DUP1 PUSH1 0x4 ADD DUP2 PUSH1 0x5 ADD DUP3 PUSH1 0x6 ADD DUP3 DUP1 SLOAD DUP1 PUSH1 0x20 MUL PUSH1 0x20 ADD PUSH1 0x40 MLOAD SWAP1 DUP2 ADD PUSH1 0x40 MSTORE DUP1 SWAP3 SWAP2 SWAP1 DUP2 DUP2 MSTORE PUSH1 0x20 ADD DUP3 DUP1 SLOAD DUP1 ISZERO PUSH2 0x128B JUMPI PUSH1 0x20 MUL DUP3 ADD SWAP2 SWAP1 PUSH1 0x0 MSTORE PUSH1 0x20 PUSH1 0x0 KECCAK256 SWAP1 JUMPDEST DUP2 SLOAD PUSH1 0x1 PUSH1 0x1 PUSH1 0xA0 SHL SUB AND DUP2 MSTORE PUSH1 0x1 SWAP1 SWAP2 ADD SWAP1 PUSH1 0x20 ADD DUP1 DUP4 GT PUSH2 0x126D JUMPI JUMPDEST POP POP POP POP POP SWAP3 POP DUP2 DUP1 SLOAD DUP1 PUSH1 0x20 MUL PUSH1 0x20 ADD PUSH1 0x40 MLOAD SWAP1 DUP2 ADD PUSH1 0x40 MSTORE DUP1 SWAP3 SWAP2 SWAP1 DUP2 DUP2 MSTORE PUSH1 0x20 ADD DUP3 DUP1 SLOAD DUP1 ISZERO PUSH2 0x12E7 JUMPI PUSH1 0x20 MUL DUP3 ADD SWAP2 SWAP1 PUSH1 0x0 MSTORE PUSH1 0x20 PUSH1 0x0 KECCAK256 SWAP1 JUMPDEST DUP2 SLOAD PUSH1 0x1 PUSH1 0x1 PUSH1 0xA0 SHL SUB AND DUP2 MSTORE PUSH1 0x1 SWAP1 SWAP2 ADD SWAP1 PUSH1 0x20 ADD DUP1 DUP4 GT PUSH2 0x12C9 JUMPI JUMPDEST POP POP POP POP POP SWAP2 POP DUP1 DUP1 SLOAD DUP1 PUSH1 0x20 MUL PUSH1 0x20 ADD PUSH1 0x40 MLOAD SWAP1 DUP2 ADD PUSH1 0x40 MSTORE DUP1 SWAP3 SWAP2 SWAP1 DUP2 DUP2 MSTORE PUSH1 0x20 ADD DUP3 DUP1 SLOAD DUP1 ISZERO PUSH2 0x1343 JUMPI PUSH1 0x20 MUL DUP3 ADD SWAP2 SWAP1 PUSH1 0x0 MSTORE PUSH1 0x20 PUSH1 0x0 KECCAK256 SWAP1 JUMPDEST DUP2 SLOAD PUSH1 0x1 PUSH1 0x1 PUSH1 0xA0 SHL SUB AND DUP2 MSTORE PUSH1 0x1 SWAP1 SWAP2 ADD SWAP1 PUSH1 0x20 ADD DUP1 DUP4 GT PUSH2 0x1325 JUMPI JUMPDEST POP POP POP POP POP SWAP1 POP SWAP4 POP SWAP4 POP SWAP4 POP POP SWAP2 SWAP4 SWAP1 SWAP3 POP JUMP JUMPDEST PUSH1 0x1 SLOAD PUSH1 0x1 PUSH1 0x1 PUSH1 0xA0 SHL SUB AND CALLER EQ PUSH2 0x13AB JUMPI PUSH1 0x40 MLOAD PUSH3 0x461BCD PUSH1 0xE5 SHL DUP2 MSTORE PUSH1 0x20 PUSH1 0x4 DUP3 ADD MSTORE PUSH1 0x16 PUSH1 0x24 DUP3 ADD MSTORE PUSH22 0x26BAB9BA10313290383937B837B9B2B21037BBB732B9 PUSH1 0x51 SHL PUSH1 0x44 DUP3 ADD MSTORE PUSH1 0x64 ADD PUSH2 0xA0A JUMP JUMPDEST PUSH1 0x0 DUP1 SLOAD CALLER PUSH1 0x1 PUSH1 0x1 PUSH1 0xA0 SHL SUB NOT DUP1 DUP4 AND DUP3 OR DUP5 SSTORE PUSH1 0x1 DUP1 SLOAD SWAP1 SWAP2 AND SWAP1 SSTORE PUSH1 0x40 MLOAD PUSH1 0x1 PUSH1 0x1 PUSH1 0xA0 SHL SUB SWAP1 SWAP3 AND SWAP3 SWAP1 SWAP2 DUP4 SWAP2 PUSH32 0x8BE0079C531659141344CD1FD0A4F28419497F9722A3DAAFE3B4186F6B6457E0 SWAP2 LOG3 POP JUMP JUMPDEST PUSH2 0x140A PUSH2 0x2773 JUMP JUMPDEST PUSH1 0x6 DUP1 SLOAD PUSH1 0xFF NOT AND PUSH1 0x1 OR SWAP1 SSTORE JUMP JUMPDEST PUSH1 0x0 DUP2 DUP2 MSTORE PUSH1 0xE PUSH1 0x20 MSTORE PUSH1 0x40 SWAP1 KECCAK256 PUSH1 0x3 DUP2 ADD SLOAD PUSH1 0x60 SWAP2 DUP3 SWAP2 DUP1 PUSH8 0xFFFFFFFFFFFFFFFF DUP2 GT ISZERO PUSH2 0x144A JUMPI PUSH2 0x144A PUSH2 0x3243 JUMP JUMPDEST PUSH1 0x40 MLOAD SWAP1 DUP1 DUP3 MSTORE DUP1 PUSH1 0x20 MUL PUSH1 0x20 ADD DUP3 ADD PUSH1 0x40 MSTORE DUP1 ISZERO PUSH2 0x1473 JUMPI DUP2 PUSH1 0x20 ADD PUSH1 0x20 DUP3 MUL DUP1 CALLDATASIZE DUP4 CALLDATACOPY ADD SWAP1 POP JUMPDEST POP SWAP4 POP DUP1 PUSH8 0xFFFFFFFFFFFFFFFF DUP2 GT ISZERO PUSH2 0x148F JUMPI PUSH2 0x148F PUSH2 0x3243 JUMP JUMPDEST PUSH1 0x40 MLOAD SWAP1 DUP1 DUP3 MSTORE DUP1 PUSH1 0x20 MUL PUSH1 0x20 ADD DUP3 ADD PUSH1 0x40 MSTORE DUP1 ISZERO PUSH2 0x14C8 JUMPI DUP2 PUSH1 0x20 ADD JUMPDEST PUSH2 0x14B5 PUSH2 0x2D8B JUMP JUMPDEST DUP2 MSTORE PUSH1 0x20 ADD SWAP1 PUSH1 0x1 SWAP1 SUB SWAP1 DUP2 PUSH2 0x14AD JUMPI SWAP1 POP JUMPDEST POP SWAP3 POP PUSH1 0x0 JUMPDEST DUP2 DUP2 LT ISZERO PUSH2 0x15B7 JUMPI PUSH1 0x0 DUP4 PUSH1 0x3 ADD DUP3 DUP2 SLOAD DUP2 LT PUSH2 0x14ED JUMPI PUSH2 0x14ED PUSH2 0x33CE JUMP JUMPDEST PUSH1 0x0 SWAP2 DUP3 MSTORE PUSH1 0x20 SWAP1 SWAP2 KECCAK256 PUSH1 0x2 SWAP1 SWAP2 MUL ADD DUP1 SLOAD DUP8 MLOAD SWAP2 SWAP3 POP PUSH1 0x1 PUSH1 0x1 PUSH1 0xA0 SHL SUB AND SWAP1 DUP8 SWAP1 DUP5 SWAP1 DUP2 LT PUSH2 0x1520 JUMPI PUSH2 0x1520 PUSH2 0x33CE JUMP JUMPDEST PUSH1 0x1 PUSH1 0x1 PUSH1 0xA0 SHL SUB SWAP3 SWAP1 SWAP3 AND PUSH1 0x20 SWAP3 DUP4 MUL SWAP2 SWAP1 SWAP2 ADD SWAP1 SWAP2 ADD MSTORE PUSH1 0x40 DUP1 MLOAD PUSH1 0xA0 DUP2 ADD SWAP2 DUP3 SWAP1 MSTORE SWAP1 PUSH1 0x1 DUP4 ADD SWAP1 PUSH1 0x5 SWAP1 DUP3 PUSH1 0x0 DUP6 JUMPDEST DUP3 SLOAD PUSH2 0x100 DUP4 SWAP1 EXP SWAP1 DIV PUSH1 0xFF AND DUP2 MSTORE PUSH1 0x20 PUSH1 0x1 SWAP3 DUP4 ADD DUP2 DUP2 DIV SWAP5 DUP6 ADD SWAP5 SWAP1 SWAP4 SUB SWAP1 SWAP3 MUL SWAP2 ADD DUP1 DUP5 GT PUSH2 0x1553 JUMPI SWAP1 POP POP POP POP POP POP DUP6 DUP4 DUP2 MLOAD DUP2 LT PUSH2 0x1598 JUMPI PUSH2 0x1598 PUSH2 0x33CE JUMP JUMPDEST PUSH1 0x20 MUL PUSH1 0x20 ADD ADD DUP2 SWAP1 MSTORE POP POP DUP1 DUP1 PUSH2 0x15AF SWAP1 PUSH2 0x33B5 JUMP JUMPDEST SWAP2 POP POP PUSH2 0x14CE JUMP JUMPDEST POP POP POP SWAP2 POP SWAP2 JUMP JUMPDEST PUSH2 0x15C7 PUSH2 0x2773 JUMP JUMPDEST PUSH1 0x0 CALLVALUE GT PUSH2 0x1607 JUMPI PUSH1 0x40 MLOAD PUSH3 0x461BCD PUSH1 0xE5 SHL DUP2 MSTORE PUSH1 0x20 PUSH1 0x4 DUP3 ADD MSTORE PUSH1 0xD PUSH1 0x24 DUP3 ADD MSTORE PUSH13 0x26BAB9BA1039B2B73210212721 PUSH1 0x99 SHL PUSH1 0x44 DUP3 ADD MSTORE PUSH1 0x64 ADD PUSH2 0xA0A JUMP JUMPDEST PUSH1 0x40 MLOAD CALLVALUE DUP2 MSTORE CALLER SWAP1 PUSH32 0xD3DA04B9295B0265DA4CD8D1D9EA4F3BB84775E17288A007301F7193865B1818 SWAP1 PUSH1 0x20 ADD PUSH1 0x40 MLOAD DUP1 SWAP2 SUB SWAP1 LOG2 JUMP JUMPDEST PUSH1 0x0 SLOAD PUSH1 0x1 PUSH1 0x1 PUSH1 0xA0 SHL SUB AND CALLER EQ DUP1 ISZERO SWAP1 PUSH2 0x1664 JUMPI POP PUSH1 0x2 SLOAD PUSH1 0x1 PUSH1 0x1 PUSH1 0xA0 SHL SUB AND CALLER EQ ISZERO JUMPDEST ISZERO PUSH2 0x16B5 JUMPI CALLER PUSH2 0x167C PUSH1 0x0 SLOAD PUSH1 0x1 PUSH1 0x1 PUSH1 0xA0 SHL SUB AND SWAP1 JUMP JUMPDEST PUSH1 0x2 SLOAD PUSH1 0x40 MLOAD PUSH4 0x61DB9C1 PUSH1 0xE0 SHL DUP2 MSTORE PUSH1 0x1 PUSH1 0x1 PUSH1 0xA0 SHL SUB SWAP4 DUP5 AND PUSH1 0x4 DUP3 ADD MSTORE SWAP2 DUP4 AND PUSH1 0x24 DUP4 ADD MSTORE SWAP2 SWAP1 SWAP2 AND PUSH1 0x44 DUP3 ADD MSTORE PUSH1 0x64 ADD PUSH2 0xA0A JUMP JUMPDEST PUSH1 0x1 PUSH1 0x1 PUSH1 0xA0 SHL SUB DUP2 AND PUSH2 0x16DC JUMPI PUSH1 0x40 MLOAD PUSH4 0xD92E233D PUSH1 0xE0 SHL DUP2 MSTORE PUSH1 0x4 ADD PUSH1 0x40 MLOAD DUP1 SWAP2 SUB SWAP1 REVERT JUMPDEST PUSH1 0x2 DUP1 SLOAD PUSH1 0x1 PUSH1 0x1 PUSH1 0xA0 SHL SUB NOT AND PUSH1 0x1 PUSH1 0x1 PUSH1 0xA0 SHL SUB DUP4 AND SWAP1 DUP2 OR SWAP1 SWAP2 SSTORE PUSH1 0x40 MLOAD SWAP1 DUP2 MSTORE PUSH32 0xD1A6A14209A385A964D036E404CB5CFB71F4000CDB03C9366292430787261BE6 SWAP1 PUSH1 0x20 ADD PUSH1 0x40 MLOAD DUP1 SWAP2 SUB SWAP1 LOG1 POP JUMP JUMPDEST PUSH2 0x1738 PUSH2 0x2773 JUMP JUMPDEST PUSH1 0x1 PUSH1 0x1 PUSH1 0xA0 SHL SUB DUP2 AND PUSH2 0x178E JUMPI PUSH1 0x40 MLOAD PUSH3 0x461BCD PUSH1 0xE5 SHL DUP2 MSTORE PUSH1 0x20 PUSH1 0x4 DUP3 ADD MSTORE PUSH1 0x1A PUSH1 0x24 DUP3 ADD MSTORE PUSH32 0x496E76616C696420707269636520666565642061646472657373000000000000 PUSH1 0x44 DUP3 ADD MSTORE PUSH1 0x64 ADD PUSH2 0xA0A JUMP JUMPDEST PUSH1 0x11 DUP1 SLOAD PUSH1 0x1 PUSH1 0x1 PUSH1 0xA0 SHL SUB NOT AND PUSH1 0x1 PUSH1 0x1 PUSH1 0xA0 SHL SUB SWAP3 SWAP1 SWAP3 AND SWAP2 SWAP1 SWAP2 OR SWAP1 SSTORE JUMP JUMPDEST PUSH2 0x17B8 PUSH2 0x2D8B JUMP JUMPDEST PUSH1 0x0 DUP3 DUP2 MSTORE PUSH1 0xE PUSH1 0x20 MSTORE PUSH1 0x40 DUP1 DUP3 KECCAK256 DUP2 MLOAD PUSH1 0xA0 DUP2 ADD SWAP3 DUP4 SWAP1 MSTORE SWAP3 PUSH1 0x2 SWAP1 SWAP2 ADD SWAP2 PUSH1 0x5 SWAP2 DUP4 SWAP1 DUP6 JUMPDEST DUP3 SLOAD PUSH2 0x100 DUP4 SWAP1 EXP SWAP1 DIV PUSH1 0xFF AND DUP2 MSTORE PUSH1 0x20 PUSH1 0x1 SWAP3 DUP4 ADD DUP2 DUP2 DIV SWAP5 DUP6 ADD SWAP5 SWAP1 SWAP4 SUB SWAP1 SWAP3 MUL SWAP2 ADD DUP1 DUP5 GT PUSH2 0x17DF JUMPI POP SWAP5 SWAP8 SWAP7 POP POP POP POP POP POP POP JUMP JUMPDEST PUSH2 0x1820 PUSH2 0x2773 JUMP JUMPDEST PUSH3 0x186A0 DUP2 PUSH4 0xFFFFFFFF AND LT ISZERO PUSH2 0x1863 JUMPI PUSH1 0x40 MLOAD PUSH3 0x461BCD PUSH1 0xE5 SHL DUP2 MSTORE PUSH1 0x20 PUSH1 0x4 DUP3 ADD MSTORE PUSH1 0x7 PUSH1 0x24 DUP3 ADD MSTORE PUSH7 0x546F6F206C6F77 PUSH1 0xC8 SHL PUSH1 0x44 DUP3 ADD MSTORE PUSH1 0x64 ADD PUSH2 0xA0A JUMP JUMPDEST PUSH1 0x15 DUP1 SLOAD PUSH4 0xFFFFFFFF NOT AND PUSH4 0xFFFFFFFF SWAP3 SWAP1 SWAP3 AND SWAP2 SWAP1 SWAP2 OR SWAP1 SSTORE JUMP JUMPDEST PUSH1 0x6 SLOAD PUSH1 0xFF AND ISZERO PUSH2 0x18A2 JUMPI PUSH1 0x40 MLOAD PUSH3 0x461BCD PUSH1 0xE5 SHL DUP2 MSTORE PUSH1 0x4 ADD PUSH2 0xA0A SWAP1 PUSH2 0x344E JUMP JUMPDEST PUSH1 0x5 SLOAD PUSH1 0x0 SWAP1 DUP2 MSTORE PUSH1 0x10 PUSH1 0x20 MSTORE PUSH1 0x40 SWAP1 KECCAK256 SLOAD PUSH1 0xFF AND ISZERO PUSH2 0x18D4 JUMPI PUSH1 0x40 MLOAD PUSH3 0x461BCD PUSH1 0xE5 SHL DUP2 MSTORE PUSH1 0x4 ADD PUSH2 0xA0A SWAP1 PUSH2 0x347A JUMP JUMPDEST PUSH2 0x18DC PUSH2 0x1EA3 JUMP JUMPDEST CALLVALUE EQ PUSH2 0x18FA JUMPI PUSH1 0x40 MLOAD PUSH3 0x461BCD PUSH1 0xE5 SHL DUP2 MSTORE PUSH1 0x4 ADD PUSH2 0xA0A SWAP1 PUSH2 0x34A0 JUMP JUMPDEST PUSH1 0x0 PUSH2 0x1904 PUSH2 0x29B5 JUMP JUMPDEST SWAP1 POP PUSH1 0x0 PUSH2 0x1913 PUSH1 0xA CALLVALUE PUSH2 0x338E JUMP JUMPDEST SWAP1 POP PUSH1 0x0 PUSH2 0x1929 PUSH1 0x0 SLOAD PUSH1 0x1 PUSH1 0x1 PUSH1 0xA0 SHL SUB AND SWAP1 JUMP JUMPDEST PUSH1 0x1 PUSH1 0x1 PUSH1 0xA0 SHL SUB AND DUP3 PUSH1 0x40 MLOAD PUSH1 0x0 PUSH1 0x40 MLOAD DUP1 DUP4 SUB DUP2 DUP6 DUP8 GAS CALL SWAP3 POP POP POP RETURNDATASIZE DUP1 PUSH1 0x0 DUP2 EQ PUSH2 0x1973 JUMPI PUSH1 0x40 MLOAD SWAP2 POP PUSH1 0x1F NOT PUSH1 0x3F RETURNDATASIZE ADD AND DUP3 ADD PUSH1 0x40 MSTORE RETURNDATASIZE DUP3 MSTORE RETURNDATASIZE PUSH1 0x0 PUSH1 0x20 DUP5 ADD RETURNDATACOPY PUSH2 0x1978 JUMP JUMPDEST PUSH1 0x60 SWAP2 POP JUMPDEST POP POP SWAP1 POP DUP1 PUSH2 0x19C4 JUMPI PUSH1 0x40 MLOAD PUSH3 0x461BCD PUSH1 0xE5 SHL DUP2 MSTORE PUSH1 0x20 PUSH1 0x4 DUP3 ADD MSTORE PUSH1 0x18 PUSH1 0x24 DUP3 ADD MSTORE PUSH24 0x151C985B9CD9995C881D1BC81BDDDB995C8819985A5B1959 PUSH1 0x42 SHL PUSH1 0x44 DUP3 ADD MSTORE PUSH1 0x64 ADD PUSH2 0xA0A JUMP JUMPDEST PUSH1 0x40 DUP1 MLOAD DUP1 DUP3 ADD DUP3 MSTORE CALLER DUP2 MSTORE PUSH1 0x20 DUP1 DUP3 ADD DUP7 DUP2 MSTORE PUSH1 0x5 DUP1 SLOAD PUSH1 0x0 SWAP1 DUP2 MSTORE PUSH1 0xE DUP5 MSTORE SWAP5 DUP6 KECCAK256 PUSH1 0x3 ADD DUP1 SLOAD PUSH1 0x1 DUP1 DUP3 ADD DUP4 SSTORE SWAP2 DUP8 MSTORE SWAP4 SWAP1 SWAP6 KECCAK256 DUP5 MLOAD PUSH1 0x2 SWAP1 SWAP5 MUL ADD DUP1 SLOAD PUSH1 0x1 PUSH1 0x1 PUSH1 0xA0 SHL SUB NOT AND PUSH1 0x1 PUSH1 0x1 PUSH1 0xA0 SHL SUB SWAP1 SWAP5 AND SWAP4 SWAP1 SWAP4 OR DUP4 SSTORE SWAP1 MLOAD SWAP3 SWAP4 DUP5 SWAP4 PUSH2 0x1A33 SWAP3 SWAP2 DUP5 ADD SWAP2 PUSH2 0x2DA9 JUMP JUMPDEST POP POP PUSH1 0x5 DUP1 SLOAD PUSH1 0x0 SWAP1 DUP2 MSTORE PUSH1 0xF PUSH1 0x20 SWAP1 DUP2 MSTORE PUSH1 0x40 DUP1 DUP4 KECCAK256 CALLER DUP5 MSTORE DUP3 MSTORE DUP3 KECCAK256 DUP1 SLOAD PUSH1 0x1 DUP1 DUP3 ADD DUP4 SSTORE SWAP2 DUP5 MSTORE SWAP3 DUP3 SWAP1 KECCAK256 DUP7 MLOAD PUSH1 0x2 SWAP1 SWAP5 MUL ADD DUP1 SLOAD PUSH1 0x1 PUSH1 0x1 PUSH1 0xA0 SHL SUB NOT AND PUSH1 0x1 PUSH1 0x1 PUSH1 0xA0 SHL SUB SWAP1 SWAP5 AND SWAP4 SWAP1 SWAP4 OR DUP4 SSTORE SWAP1 DUP6 ADD MLOAD DUP6 SWAP5 POP SWAP2 SWAP3 PUSH2 0x1A9D SWAP3 SWAP2 DUP5 ADD SWAP2 SWAP1 PUSH2 0x2DA9 JUMP JUMPDEST POP POP PUSH1 0x5 SLOAD PUSH1 0x0 SWAP1 DUP2 MSTORE PUSH1 0xB PUSH1 0x20 MSTORE PUSH1 0x40 DUP2 KECCAK256 DUP1 SLOAD SWAP3 POP SWAP1 PUSH2 0x1ABE DUP4 PUSH2 0x33B5 JUMP JUMPDEST SWAP1 SWAP2 SSTORE POP POP PUSH1 0x5 SLOAD PUSH1 0x0 SWAP1 DUP2 MSTORE PUSH1 0xC PUSH1 0x20 SWAP1 DUP2 MSTORE PUSH1 0x40 DUP1 DUP4 KECCAK256 CALLER DUP5 MSTORE SWAP1 SWAP2 MSTORE SWAP1 KECCAK256 SLOAD PUSH1 0xFF AND PUSH2 0x1B2C JUMPI PUSH1 0x5 DUP1 SLOAD PUSH1 0x0 SWAP1 DUP2 MSTORE PUSH1 0xC PUSH1 0x20 SWAP1 DUP2 MSTORE PUSH1 0x40 DUP1 DUP4 KECCAK256 CALLER DUP5 MSTORE DUP3 MSTORE DUP1 DUP4 KECCAK256 DUP1 SLOAD PUSH1 0xFF NOT AND PUSH1 0x1 OR SWAP1 SSTORE SWAP3 SLOAD DUP3 MSTORE PUSH1 0xD SWAP1 MSTORE SWAP1 DUP2 KECCAK256 DUP1 SLOAD SWAP2 PUSH2 0x1B26 DUP4 PUSH2 0x33B5 JUMP JUMPDEST SWAP2 SWAP1 POP SSTORE POP JUMPDEST PUSH1 0x5 SLOAD PUSH1 0x40 MLOAD CALLER SWAP2 PUSH32 0x3898084B2129DD1EEFB522DB8ED9FB6801A5B24DD6656F98DDFFCF157174AE45 SWAP2 PUSH2 0x1B61 SWAP2 DUP9 SWAP2 PUSH2 0x34CE JUMP JUMPDEST PUSH1 0x40 MLOAD DUP1 SWAP2 SUB SWAP1 LOG2 POP POP POP POP JUMP JUMPDEST PUSH2 0x1B77 PUSH2 0x2773 JUMP JUMPDEST PUSH1 0x0 DUP2 GT PUSH2 0x1BC7 JUMPI PUSH1 0x40 MLOAD PUSH3 0x461BCD PUSH1 0xE5 SHL DUP2 MSTORE PUSH1 0x20 PUSH1 0x4 DUP3 ADD MSTORE PUSH1 0x1C PUSH1 0x24 DUP3 ADD MSTORE PUSH32 0x5072696365206D7573742062652067726561746572207468616E203000000000 PUSH1 0x44 DUP3 ADD MSTORE PUSH1 0x64 ADD PUSH2 0xA0A JUMP JUMPDEST PUSH1 0x3 SSTORE JUMP JUMPDEST PUSH1 0x0 DUP2 DUP2 MSTORE PUSH1 0xF PUSH1 0x20 SWAP1 DUP2 MSTORE PUSH1 0x40 DUP1 DUP4 KECCAK256 CALLER DUP5 MSTORE SWAP1 SWAP2 MSTORE SWAP1 KECCAK256 SLOAD PUSH1 0x60 SWAP1 DUP2 SWAP1 DUP1 PUSH8 0xFFFFFFFFFFFFFFFF DUP2 GT ISZERO PUSH2 0x1C04 JUMPI PUSH2 0x1C04 PUSH2 0x3243 JUMP JUMPDEST PUSH1 0x40 MLOAD SWAP1 DUP1 DUP3 MSTORE DUP1 PUSH1 0x20 MUL PUSH1 0x20 ADD DUP3 ADD PUSH1 0x40 MSTORE DUP1 ISZERO PUSH2 0x1C2D JUMPI DUP2 PUSH1 0x20 ADD PUSH1 0x20 DUP3 MUL DUP1 CALLDATASIZE DUP4 CALLDATACOPY ADD SWAP1 POP JUMPDEST POP SWAP3 POP DUP1 PUSH8 0xFFFFFFFFFFFFFFFF DUP2 GT ISZERO PUSH2 0x1C49 JUMPI PUSH2 0x1C49 PUSH2 0x3243 JUMP JUMPDEST PUSH1 0x40 MLOAD SWAP1 DUP1 DUP3 MSTORE DUP1 PUSH1 0x20 MUL PUSH1 0x20 ADD DUP3 ADD PUSH1 0x40 MSTORE DUP1 ISZERO PUSH2 0x1C82 JUMPI DUP2 PUSH1 0x20 ADD JUMPDEST PUSH2 0x1C6F PUSH2 0x2D8B JUMP JUMPDEST DUP2 MSTORE PUSH1 0x20 ADD SWAP1 PUSH1 0x1 SWAP1 SUB SWAP1 DUP2 PUSH2 0x1C67 JUMPI SWAP1 POP JUMPDEST POP SWAP2 POP PUSH1 0x0 JUMPDEST DUP2 DUP2 LT ISZERO PUSH2 0x1DAB JUMPI PUSH1 0x0 DUP6 DUP2 MSTORE PUSH1 0xF PUSH1 0x20 SWAP1 DUP2 MSTORE PUSH1 0x40 DUP1 DUP4 KECCAK256 CALLER DUP5 MSTORE SWAP1 SWAP2 MSTORE DUP2 KECCAK256 DUP1 SLOAD DUP4 SWAP1 DUP2 LT PUSH2 0x1CBB JUMPI PUSH2 0x1CBB PUSH2 0x33CE JUMP JUMPDEST PUSH1 0x0 SWAP2 DUP3 MSTORE PUSH1 0x20 SWAP2 DUP3 SWAP1 KECCAK256 PUSH1 0x40 DUP1 MLOAD DUP1 DUP3 ADD DUP3 MSTORE PUSH1 0x2 SWAP1 SWAP4 MUL SWAP1 SWAP2 ADD DUP1 SLOAD PUSH1 0x1 PUSH1 0x1 PUSH1 0xA0 SHL SUB AND DUP4 MSTORE DUP2 MLOAD PUSH1 0xA0 DUP2 ADD SWAP1 SWAP3 MSTORE SWAP2 SWAP3 DUP4 ADD SWAP1 PUSH1 0x1 DUP4 ADD PUSH1 0x5 DUP3 DUP3 DUP3 PUSH1 0x20 MUL DUP3 ADD SWAP2 PUSH1 0x0 SWAP1 JUMPDEST DUP3 SLOAD PUSH2 0x100 DUP4 SWAP1 EXP SWAP1 DIV PUSH1 0xFF AND DUP2 MSTORE PUSH1 0x20 PUSH1 0x1 SWAP3 DUP4 ADD DUP2 DUP2 DIV SWAP5 DUP6 ADD SWAP5 SWAP1 SWAP4 SUB SWAP1 SWAP3 MUL SWAP2 ADD DUP1 DUP5 GT PUSH2 0x1D05 JUMPI SWAP1 POP POP POP POP POP POP DUP2 MSTORE POP POP SWAP1 POP DUP1 PUSH1 0x0 ADD MLOAD DUP6 DUP4 DUP2 MLOAD DUP2 LT PUSH2 0x1D55 JUMPI PUSH2 0x1D55 PUSH2 0x33CE JUMP JUMPDEST PUSH1 0x20 MUL PUSH1 0x20 ADD ADD SWAP1 PUSH1 0x1 PUSH1 0x1 PUSH1 0xA0 SHL SUB AND SWAP1 DUP2 PUSH1 0x1 PUSH1 0x1 PUSH1 0xA0 SHL SUB AND DUP2 MSTORE POP POP DUP1 PUSH1 0x20 ADD MLOAD DUP5 DUP4 DUP2 MLOAD DUP2 LT PUSH2 0x1D8C JUMPI PUSH2 0x1D8C PUSH2 0x33CE JUMP JUMPDEST PUSH1 0x20 MUL PUSH1 0x20 ADD ADD DUP2 SWAP1 MSTORE POP POP DUP1 DUP1 PUSH2 0x1DA3 SWAP1 PUSH2 0x33B5 JUMP JUMPDEST SWAP2 POP POP PUSH2 0x1C88 JUMP JUMPDEST POP POP SWAP2 POP SWAP2 JUMP JUMPDEST PUSH1 0x6 SLOAD PUSH1 0xFF AND ISZERO PUSH2 0x1DD5 JUMPI PUSH1 0x40 MLOAD PUSH3 0x461BCD PUSH1 0xE5 SHL DUP2 MSTORE PUSH1 0x4 ADD PUSH2 0xA0A SWAP1 PUSH2 0x344E JUMP JUMPDEST PUSH1 0x5 SLOAD PUSH1 0x0 SWAP1 DUP2 MSTORE PUSH1 0x10 PUSH1 0x20 MSTORE PUSH1 0x40 SWAP1 KECCAK256 SLOAD PUSH1 0xFF AND ISZERO PUSH2 0x1E07 JUMPI PUSH1 0x40 MLOAD PUSH3 0x461BCD PUSH1 0xE5 SHL DUP2 MSTORE PUSH1 0x4 ADD PUSH2 0xA0A SWAP1 PUSH2 0x347A JUMP JUMPDEST PUSH2 0x1E0F PUSH2 0x1EA3 JUMP JUMPDEST CALLVALUE EQ PUSH2 0x1E2D JUMPI PUSH1 0x40 MLOAD PUSH3 0x461BCD PUSH1 0xE5 SHL DUP2 MSTORE PUSH1 0x4 ADD PUSH2 0xA0A SWAP1 PUSH2 0x34A0 JUMP JUMPDEST PUSH2 0x1E36 DUP2 PUSH2 0x2B36 JUMP JUMPDEST PUSH2 0x1E96 JUMPI PUSH1 0x40 MLOAD PUSH3 0x461BCD PUSH1 0xE5 SHL DUP2 MSTORE PUSH1 0x20 PUSH1 0x4 DUP3 ADD MSTORE PUSH1 0x2B PUSH1 0x24 DUP3 ADD MSTORE PUSH32 0x4E756D62657273206D75737420626520756E6971756520616E64206265747765 PUSH1 0x44 DUP3 ADD MSTORE PUSH11 0x656E203120616E6420353 PUSH1 0xAC SHL PUSH1 0x64 DUP3 ADD MSTORE PUSH1 0x84 ADD PUSH2 0xA0A JUMP JUMPDEST PUSH1 0x0 PUSH2 0x1913 PUSH1 0xA CALLVALUE PUSH2 0x338E JUMP JUMPDEST PUSH1 0x0 DUP1 PUSH1 0x11 PUSH1 0x0 SWAP1 SLOAD SWAP1 PUSH2 0x100 EXP SWAP1 DIV PUSH1 0x1 PUSH1 0x1 PUSH1 0xA0 SHL SUB AND PUSH1 0x1 PUSH1 0x1 PUSH1 0xA0 SHL SUB AND PUSH4 0xFEAF968C PUSH1 0x40 MLOAD DUP2 PUSH4 0xFFFFFFFF AND PUSH1 0xE0 SHL DUP2 MSTORE PUSH1 0x4 ADD PUSH1 0xA0 PUSH1 0x40 MLOAD DUP1 DUP4 SUB DUP2 DUP7 GAS STATICCALL ISZERO DUP1 ISZERO PUSH2 0x1EF9 JUMPI RETURNDATASIZE PUSH1 0x0 DUP1 RETURNDATACOPY RETURNDATASIZE PUSH1 0x0 REVERT JUMPDEST POP POP POP POP PUSH1 0x40 MLOAD RETURNDATASIZE PUSH1 0x1F NOT PUSH1 0x1F DUP3 ADD AND DUP3 ADD DUP1 PUSH1 0x40 MSTORE POP DUP2 ADD SWAP1 PUSH2 0x1F1D SWAP2 SWAP1 PUSH2 0x33FE JUMP JUMPDEST POP POP POP SWAP2 POP POP PUSH1 0x0 DUP2 SGT PUSH2 0x1F67 JUMPI PUSH1 0x40 MLOAD PUSH3 0x461BCD PUSH1 0xE5 SHL DUP2 MSTORE PUSH1 0x20 PUSH1 0x4 DUP3 ADD MSTORE PUSH1 0x11 PUSH1 0x24 DUP3 ADD MSTORE PUSH17 0x496E76616C696420424E42207072696365 PUSH1 0x78 SHL PUSH1 0x44 DUP3 ADD MSTORE PUSH1 0x64 ADD PUSH2 0xA0A JUMP JUMPDEST PUSH1 0x3 SLOAD DUP2 SWAP1 DUP2 SWAP1 PUSH2 0x1F80 SWAP1 PUSH8 0xDE0B6B3A7640000 PUSH2 0x3361 JUMP JUMPDEST PUSH2 0x1F8A SWAP2 SWAP1 PUSH2 0x338E JUMP JUMPDEST SWAP3 POP POP POP SWAP1 JUMP JUMPDEST PUSH2 0x1F99 PUSH2 0x2773 JUMP JUMPDEST SELFBALANCE DUP1 PUSH2 0x1FDE JUMPI PUSH1 0x40 MLOAD PUSH3 0x461BCD PUSH1 0xE5 SHL DUP2 MSTORE PUSH1 0x20 PUSH1 0x4 DUP3 ADD MSTORE PUSH1 0x14 PUSH1 0x24 DUP3 ADD MSTORE PUSH20 0x4E6F2066756E647320746F207769746864726177 PUSH1 0x60 SHL PUSH1 0x44 DUP3 ADD MSTORE PUSH1 0x64 ADD PUSH2 0xA0A JUMP JUMPDEST PUSH1 0x0 DUP1 SLOAD PUSH1 0x40 MLOAD PUSH1 0x1 PUSH1 0x1 PUSH1 0xA0 SHL SUB SWAP1 SWAP2 AND SWAP1 DUP4 SWAP1 DUP4 DUP2 DUP2 DUP2 DUP6 DUP8 GAS CALL SWAP3 POP POP POP RETURNDATASIZE DUP1 PUSH1 0x0 DUP2 EQ PUSH2 0x202B JUMPI PUSH1 0x40 MLOAD SWAP2 POP PUSH1 0x1F NOT PUSH1 0x3F RETURNDATASIZE ADD AND DUP3 ADD PUSH1 0x40 MSTORE RETURNDATASIZE DUP3 MSTORE RETURNDATASIZE PUSH1 0x0 PUSH1 0x20 DUP5 ADD RETURNDATACOPY PUSH2 0x2030 JUMP JUMPDEST PUSH1 0x60 SWAP2 POP JUMPDEST POP POP SWAP1 POP DUP1 PUSH2 0x2073 JUMPI PUSH1 0x40 MLOAD PUSH3 0x461BCD PUSH1 0xE5 SHL DUP2 MSTORE PUSH1 0x20 PUSH1 0x4 DUP3 ADD MSTORE PUSH1 0xF PUSH1 0x24 DUP3 ADD MSTORE PUSH15 0x151C985B9CD9995C8819985A5B1959 PUSH1 0x8A SHL PUSH1 0x44 DUP3 ADD MSTORE PUSH1 0x64 ADD PUSH2 0xA0A JUMP JUMPDEST PUSH32 0x418AAE9DE8F7AB4DF1C137475770FF373EB33FD62A060544E9F4FC90F3CDB1A4 DUP3 PUSH2 0x20A7 PUSH1 0x0 SLOAD PUSH1 0x1 PUSH1 0x1 PUSH1 0xA0 SHL SUB AND SWAP1 JUMP JUMPDEST PUSH1 0x40 DUP1 MLOAD SWAP3 DUP4 MSTORE PUSH1 0x1 PUSH1 0x1 PUSH1 0xA0 SHL SUB SWAP1 SWAP2 AND PUSH1 0x20 DUP4 ADD MSTORE ADD PUSH1 0x40 MLOAD DUP1 SWAP2 SUB SWAP1 LOG1 POP POP JUMP JUMPDEST PUSH1 0x6 SLOAD PUSH1 0xFF AND ISZERO PUSH2 0x20EE JUMPI PUSH1 0x40 MLOAD PUSH3 0x461BCD PUSH1 0xE5 SHL DUP2 MSTORE PUSH1 0x4 ADD PUSH2 0xA0A SWAP1 PUSH2 0x344E JUMP JUMPDEST PUSH1 0x5 SLOAD PUSH1 0x0 SWAP1 DUP2 MSTORE PUSH1 0x10 PUSH1 0x20 MSTORE PUSH1 0x40 SWAP1 KECCAK256 SLOAD PUSH1 0xFF AND ISZERO PUSH2 0x2120 JUMPI PUSH1 0x40 MLOAD PUSH3 0x461BCD PUSH1 0xE5 SHL DUP2 MSTORE PUSH1 0x4 ADD PUSH2 0xA0A SWAP1 PUSH2 0x347A JUMP JUMPDEST PUSH1 0x1 DUP2 PUSH1 0xFF AND LT ISZERO DUP1 ISZERO PUSH2 0x2138 JUMPI POP PUSH1 0xA DUP2 PUSH1 0xFF AND GT ISZERO JUMPDEST PUSH2 0x218E JUMPI PUSH1 0x40 MLOAD PUSH3 0x461BCD PUSH1 0xE5 SHL DUP2 MSTORE PUSH1 0x20 PUSH1 0x4 DUP3 ADD MSTORE PUSH1 0x21 PUSH1 0x24 DUP3 ADD MSTORE PUSH32 0x4D75737420627579206265747765656E203120616E64203130207469636B6574 PUSH1 0x44 DUP3 ADD MSTORE PUSH1 0x73 PUSH1 0xF8 SHL PUSH1 0x64 DUP3 ADD MSTORE PUSH1 0x84 ADD PUSH2 0xA0A JUMP JUMPDEST PUSH1 0x0 PUSH2 0x2198 PUSH2 0x1EA3 JUMP JUMPDEST SWAP1 POP PUSH1 0x0 PUSH2 0x21A9 PUSH1 0xFF DUP5 AND DUP4 PUSH2 0x3361 JUMP JUMPDEST SWAP1 POP DUP1 CALLVALUE EQ PUSH2 0x21CA JUMPI PUSH1 0x40 MLOAD PUSH3 0x461BCD PUSH1 0xE5 SHL DUP2 MSTORE PUSH1 0x4 ADD PUSH2 0xA0A SWAP1 PUSH2 0x34A0 JUMP JUMPDEST PUSH1 0x0 PUSH2 0x21D7 PUSH1 0xA CALLVALUE PUSH2 0x338E JUMP JUMPDEST SWAP1 POP PUSH1 0x0 PUSH2 0x21ED PUSH1 0x0 SLOAD PUSH1 0x1 PUSH1 0x1 PUSH1 0xA0 SHL SUB AND SWAP1 JUMP JUMPDEST PUSH1 0x1 PUSH1 0x1 PUSH1 0xA0 SHL SUB AND DUP3 PUSH1 0x40 MLOAD PUSH1 0x0 PUSH1 0x40 MLOAD DUP1 DUP4 SUB DUP2 DUP6 DUP8 GAS CALL SWAP3 POP POP POP RETURNDATASIZE DUP1 PUSH1 0x0 DUP2 EQ PUSH2 0x2237 JUMPI PUSH1 0x40 MLOAD SWAP2 POP PUSH1 0x1F NOT PUSH1 0x3F RETURNDATASIZE ADD AND DUP3 ADD PUSH1 0x40 MSTORE RETURNDATASIZE DUP3 MSTORE RETURNDATASIZE PUSH1 0x0 PUSH1 0x20 DUP5 ADD RETURNDATACOPY PUSH2 0x223C JUMP JUMPDEST PUSH1 0x60 SWAP2 POP JUMPDEST POP POP SWAP1 POP DUP1 PUSH2 0x2288 JUMPI PUSH1 0x40 MLOAD PUSH3 0x461BCD PUSH1 0xE5 SHL DUP2 MSTORE PUSH1 0x20 PUSH1 0x4 DUP3 ADD MSTORE PUSH1 0x18 PUSH1 0x24 DUP3 ADD MSTORE PUSH24 0x151C985B9CD9995C881D1BC81BDDDB995C8819985A5B1959 PUSH1 0x42 SHL PUSH1 0x44 DUP3 ADD MSTORE PUSH1 0x64 ADD PUSH2 0xA0A JUMP JUMPDEST PUSH1 0x0 JUMPDEST DUP6 PUSH1 0xFF AND DUP2 PUSH1 0xFF AND LT ISZERO PUSH2 0x23F9 JUMPI PUSH1 0x0 PUSH2 0x22A3 PUSH2 0x29B5 JUMP JUMPDEST PUSH1 0x40 DUP1 MLOAD DUP1 DUP3 ADD DUP3 MSTORE CALLER DUP2 MSTORE PUSH1 0x20 DUP1 DUP3 ADD DUP5 DUP2 MSTORE PUSH1 0x5 DUP1 SLOAD PUSH1 0x0 SWAP1 DUP2 MSTORE PUSH1 0xE DUP5 MSTORE SWAP5 DUP6 KECCAK256 PUSH1 0x3 ADD DUP1 SLOAD PUSH1 0x1 DUP1 DUP3 ADD DUP4 SSTORE SWAP2 DUP8 MSTORE SWAP4 SWAP1 SWAP6 KECCAK256 DUP5 MLOAD PUSH1 0x2 SWAP1 SWAP5 MUL ADD DUP1 SLOAD PUSH1 0x1 PUSH1 0x1 PUSH1 0xA0 SHL SUB NOT AND PUSH1 0x1 PUSH1 0x1 PUSH1 0xA0 SHL SUB SWAP1 SWAP5 AND SWAP4 SWAP1 SWAP4 OR DUP4 SSTORE SWAP1 MLOAD SWAP5 SWAP6 POP SWAP2 SWAP4 DUP5 SWAP4 SWAP2 SWAP3 PUSH2 0x2317 SWAP3 DUP5 ADD SWAP2 SWAP1 PUSH2 0x2DA9 JUMP JUMPDEST POP POP PUSH1 0x5 DUP1 SLOAD PUSH1 0x0 SWAP1 DUP2 MSTORE PUSH1 0xF PUSH1 0x20 SWAP1 DUP2 MSTORE PUSH1 0x40 DUP1 DUP4 KECCAK256 CALLER DUP5 MSTORE DUP3 MSTORE DUP3 KECCAK256 DUP1 SLOAD PUSH1 0x1 DUP1 DUP3 ADD DUP4 SSTORE SWAP2 DUP5 MSTORE SWAP3 DUP3 SWAP1 KECCAK256 DUP7 MLOAD PUSH1 0x2 SWAP1 SWAP5 MUL ADD DUP1 SLOAD PUSH1 0x1 PUSH1 0x1 PUSH1 0xA0 SHL SUB NOT AND PUSH1 0x1 PUSH1 0x1 PUSH1 0xA0 SHL SUB SWAP1 SWAP5 AND SWAP4 SWAP1 SWAP4 OR DUP4 SSTORE SWAP1 DUP6 ADD MLOAD DUP6 SWAP5 POP SWAP2 SWAP3 PUSH2 0x2381 SWAP3 SWAP2 DUP5 ADD SWAP2 SWAP1 PUSH2 0x2DA9 JUMP JUMPDEST POP POP PUSH1 0x5 SLOAD PUSH1 0x0 SWAP1 DUP2 MSTORE PUSH1 0xB PUSH1 0x20 MSTORE PUSH1 0x40 DUP2 KECCAK256 DUP1 SLOAD SWAP3 POP SWAP1 PUSH2 0x23A2 DUP4 PUSH2 0x33B5 JUMP JUMPDEST SWAP1 SWAP2 SSTORE POP POP PUSH1 0x5 SLOAD PUSH1 0x40 MLOAD CALLER SWAP2 PUSH32 0x3898084B2129DD1EEFB522DB8ED9FB6801A5B24DD6656F98DDFFCF157174AE45 SWAP2 PUSH2 0x23DC SWAP2 DUP7 SWAP2 PUSH2 0x34CE JUMP JUMPDEST PUSH1 0x40 MLOAD DUP1 SWAP2 SUB SWAP1 LOG2 POP POP DUP1 DUP1 PUSH2 0x23F1 SWAP1 PUSH2 0x34E9 JUMP JUMPDEST SWAP2 POP POP PUSH2 0x228B JUMP JUMPDEST POP PUSH1 0x5 SLOAD PUSH1 0x0 SWAP1 DUP2 MSTORE PUSH1 0xC PUSH1 0x20 SWAP1 DUP2 MSTORE PUSH1 0x40 DUP1 DUP4 KECCAK256 CALLER DUP5 MSTORE SWAP1 SWAP2 MSTORE SWAP1 KECCAK256 SLOAD PUSH1 0xFF AND PUSH2 0x2463 JUMPI PUSH1 0x5 DUP1 SLOAD PUSH1 0x0 SWAP1 DUP2 MSTORE PUSH1 0xC PUSH1 0x20 SWAP1 DUP2 MSTORE PUSH1 0x40 DUP1 DUP4 KECCAK256 CALLER DUP5 MSTORE DUP3 MSTORE DUP1 DUP4 KECCAK256 DUP1 SLOAD PUSH1 0xFF NOT AND PUSH1 0x1 OR SWAP1 SSTORE SWAP3 SLOAD DUP3 MSTORE PUSH1 0xD SWAP1 MSTORE SWAP1 DUP2 KECCAK256 DUP1 SLOAD SWAP2 PUSH2 0x245D DUP4 PUSH2 0x33B5 JUMP JUMPDEST SWAP2 SWAP1 POP SSTORE POP JUMPDEST POP POP POP POP POP JUMP JUMPDEST PUSH1 0xF PUSH1 0x20 MSTORE DUP3 PUSH1 0x0 MSTORE PUSH1 0x40 PUSH1 0x0 KECCAK256 PUSH1 0x20 MSTORE DUP2 PUSH1 0x0 MSTORE PUSH1 0x40 PUSH1 0x0 KECCAK256 DUP2 DUP2 SLOAD DUP2 LT PUSH2 0x2492 JUMPI PUSH1 0x0 DUP1 REVERT JUMPDEST PUSH1 0x0 SWAP2 DUP3 MSTORE PUSH1 0x20 SWAP1 SWAP2 KECCAK256 PUSH1 0x2 SWAP1 SWAP2 MUL ADD SLOAD PUSH1 0x1 PUSH1 0x1 PUSH1 0xA0 SHL SUB AND SWAP3 POP DUP4 SWAP2 POP POP JUMP JUMPDEST PUSH2 0x24BC PUSH2 0x2773 JUMP JUMPDEST PUSH2 0x10CA DUP2 PUSH2 0x2C0E JUMP JUMPDEST PUSH2 0x24CD PUSH2 0x2773 JUMP JUMPDEST PUSH1 0x1 PUSH1 0x1 PUSH1 0xA0 SHL SUB DUP3 AND PUSH2 0x2523 JUMPI PUSH1 0x40 MLOAD PUSH3 0x461BCD PUSH1 0xE5 SHL DUP2 MSTORE PUSH1 0x20 PUSH1 0x4 DUP3 ADD MSTORE PUSH1 0x1B PUSH1 0x24 DUP3 ADD MSTORE PUSH32 0x496E76616C696420636F6F7264696E61746F7220616464726573730000000000 PUSH1 0x44 DUP3 ADD MSTORE PUSH1 0x64 ADD PUSH2 0xA0A JUMP JUMPDEST DUP1 PUSH2 0x2563 JUMPI PUSH1 0x40 MLOAD PUSH3 0x461BCD PUSH1 0xE5 SHL DUP2 MSTORE PUSH1 0x20 PUSH1 0x4 DUP3 ADD MSTORE PUSH1 0x10 PUSH1 0x24 DUP3 ADD MSTORE PUSH16 0x92DCECC2D8D2C840D6CAF240D0C2E6D PUSH1 0x83 SHL PUSH1 0x44 DUP3 ADD MSTORE PUSH1 0x64 ADD PUSH2 0xA0A JUMP JUMPDEST PUSH1 0x12 DUP1 SLOAD PUSH1 0x1 PUSH1 0x1 PUSH1 0xA0 SHL SUB NOT AND PUSH1 0x1 PUSH1 0x1 PUSH1 0xA0 SHL SUB SWAP4 SWAP1 SWAP4 AND SWAP3 SWAP1 SWAP3 OR SWAP1 SWAP2 SSTORE PUSH1 0x14 SSTORE JUMP JUMPDEST PUSH1 0x17 SLOAD PUSH1 0xFF AND PUSH2 0x25CD JUMPI PUSH1 0x40 MLOAD PUSH3 0x461BCD PUSH1 0xE5 SHL DUP2 MSTORE PUSH1 0x20 PUSH1 0x4 DUP3 ADD MSTORE PUSH1 0xF PUSH1 0x24 DUP3 ADD MSTORE PUSH15 0x4E6F20647261772070656E64696E67 PUSH1 0x88 SHL PUSH1 0x44 DUP3 ADD MSTORE PUSH1 0x64 ADD PUSH2 0xA0A JUMP JUMPDEST PUSH2 0x25D5 PUSH2 0x2D8B JUMP JUMPDEST PUSH1 0x0 DUP4 DUP4 PUSH1 0x0 DUP2 DUP2 LT PUSH2 0x25EA JUMPI PUSH2 0x25EA PUSH2 0x33CE JUMP JUMPDEST SWAP1 POP PUSH1 0x20 MUL ADD CALLDATALOAD SWAP1 POP PUSH1 0x0 JUMPDEST PUSH1 0x5 DUP2 PUSH1 0xFF AND LT ISZERO PUSH2 0x26EB JUMPI PUSH1 0x0 PUSH2 0x260F PUSH1 0x32 DUP5 PUSH2 0x3508 JUMP JUMPDEST PUSH2 0x261A SWAP1 PUSH1 0x1 PUSH2 0x33A2 JUMP JUMPDEST SWAP1 POP PUSH1 0x0 DUP1 JUMPDEST DUP4 PUSH1 0xFF AND DUP2 LT ISZERO PUSH2 0x2669 JUMPI DUP3 PUSH1 0xFF AND DUP7 DUP3 PUSH1 0x5 DUP2 LT PUSH2 0x2641 JUMPI PUSH2 0x2641 PUSH2 0x33CE JUMP JUMPDEST PUSH1 0x20 MUL ADD MLOAD PUSH1 0xFF AND SUB PUSH2 0x2657 JUMPI PUSH1 0x1 SWAP2 POP PUSH2 0x2669 JUMP JUMPDEST DUP1 PUSH2 0x2661 DUP2 PUSH2 0x33B5 JUMP JUMPDEST SWAP2 POP POP PUSH2 0x2620 JUMP JUMPDEST POP DUP1 PUSH2 0x26A0 JUMPI DUP2 DUP6 DUP5 PUSH1 0xFF AND PUSH1 0x5 DUP2 LT PUSH2 0x2685 JUMPI PUSH2 0x2685 PUSH2 0x33CE JUMP JUMPDEST PUSH1 0xFF SWAP1 SWAP3 AND PUSH1 0x20 SWAP3 SWAP1 SWAP3 MUL ADD MSTORE DUP3 PUSH2 0x269C DUP2 PUSH2 0x34E9 JUMP JUMPDEST SWAP4 POP POP JUMPDEST DUP4 DUP4 PUSH1 0x40 MLOAD PUSH1 0x20 ADD PUSH2 0x26C9 SWAP3 SWAP2 SWAP1 SWAP2 DUP3 MSTORE PUSH1 0xF8 SHL PUSH1 0x1 PUSH1 0x1 PUSH1 0xF8 SHL SUB NOT AND PUSH1 0x20 DUP3 ADD MSTORE PUSH1 0x21 ADD SWAP1 JUMP JUMPDEST PUSH1 0x40 MLOAD PUSH1 0x20 DUP2 DUP4 SUB SUB DUP2 MSTORE SWAP1 PUSH1 0x40 MSTORE DUP1 MLOAD SWAP1 PUSH1 0x20 ADD KECCAK256 PUSH1 0x0 SHR SWAP4 POP POP POP PUSH2 0x25F6 JUMP JUMPDEST PUSH1 0x7 SLOAD PUSH1 0x0 SWAP1 DUP2 MSTORE PUSH1 0xE PUSH1 0x20 MSTORE PUSH1 0x40 SWAP1 KECCAK256 PUSH2 0x270B SWAP1 PUSH1 0x2 ADD DUP5 PUSH1 0x5 PUSH2 0x2DA9 JUMP JUMPDEST POP PUSH1 0x7 SLOAD PUSH1 0x0 SWAP1 DUP2 MSTORE PUSH1 0xE PUSH1 0x20 MSTORE PUSH1 0x40 SWAP1 KECCAK256 TIMESTAMP SWAP1 DUP2 SWAP1 SSTORE PUSH2 0x272E SWAP1 PUSH2 0xE10 PUSH2 0x33A2 JUMP JUMPDEST PUSH1 0x9 SSTORE PUSH1 0x40 MLOAD DUP7 SWAP1 PUSH32 0x27F7A4CFB91DD4DB4B9C99DF04F38BD5BF8EFFA9B1EF1DC67F92C0D087029CD5 SWAP1 PUSH2 0x2763 SWAP1 DUP7 SWAP1 PUSH2 0x3209 JUMP JUMPDEST PUSH1 0x40 MLOAD DUP1 SWAP2 SUB SWAP1 LOG2 POP POP POP POP POP POP JUMP JUMPDEST PUSH1 0x0 SLOAD PUSH1 0x1 PUSH1 0x1 PUSH1 0xA0 SHL SUB AND CALLER EQ PUSH2 0x10F8 JUMPI PUSH1 0x40 MLOAD PUSH3 0x461BCD PUSH1 0xE5 SHL DUP2 MSTORE PUSH1 0x20 PUSH1 0x4 DUP3 ADD MSTORE PUSH1 0x16 PUSH1 0x24 DUP3 ADD MSTORE PUSH22 0x27B7363C9031B0B63630B1363290313C9037BBB732B9 PUSH1 0x51 SHL PUSH1 0x44 DUP3 ADD MSTORE PUSH1 0x64 ADD PUSH2 0xA0A JUMP JUMPDEST PUSH1 0x17 DUP1 SLOAD PUSH1 0x1 PUSH1 0xFF NOT SWAP2 DUP3 AND DUP2 OR SWAP1 SWAP3 SSTORE PUSH1 0x5 DUP1 SLOAD PUSH1 0x0 SWAP1 DUP2 MSTORE PUSH1 0x10 PUSH1 0x20 SWAP1 DUP2 MSTORE PUSH1 0x40 DUP1 DUP4 KECCAK256 DUP1 SLOAD SWAP1 SWAP6 AND DUP7 OR SWAP1 SWAP5 SSTORE SWAP2 SLOAD PUSH1 0x7 DUP2 SWAP1 SSTORE DUP2 MSTORE PUSH1 0xE DUP3 MSTORE DUP3 SWAP1 KECCAK256 SELFBALANCE SWAP1 DUP5 ADD SSTORE PUSH1 0x2 SLOAD DUP3 MLOAD PUSH1 0xC0 DUP2 ADD DUP5 MSTORE PUSH1 0x14 SLOAD DUP2 MSTORE PUSH1 0x13 SLOAD DUP2 DUP5 ADD MSTORE PUSH1 0x15 SLOAD PUSH5 0x100000000 DUP2 DIV PUSH2 0xFFFF AND DUP3 DUP7 ADD MSTORE PUSH4 0xFFFFFFFF DUP1 DUP3 AND PUSH1 0x60 DUP5 ADD MSTORE PUSH7 0x1000000000000 SWAP1 SWAP2 DIV AND PUSH1 0x80 DUP3 ADD MSTORE DUP4 MLOAD SWAP3 DUP4 ADD SWAP1 SWAP4 MSTORE SWAP3 DUP2 MSTORE PUSH1 0x1 PUSH1 0x1 PUSH1 0xA0 SHL SUB SWAP1 SWAP3 AND SWAP2 PUSH4 0x9B1C385E SWAP2 SWAP1 PUSH1 0xA0 DUP3 ADD SWAP1 PUSH2 0x287F SWAP1 PUSH2 0x2CB7 JUMP JUMPDEST DUP2 MSTORE POP PUSH1 0x40 MLOAD DUP3 PUSH4 0xFFFFFFFF AND PUSH1 0xE0 SHL DUP2 MSTORE PUSH1 0x4 ADD PUSH2 0x289E SWAP2 SWAP1 PUSH2 0x351C JUMP JUMPDEST PUSH1 0x20 PUSH1 0x40 MLOAD DUP1 DUP4 SUB DUP2 PUSH1 0x0 DUP8 GAS CALL ISZERO DUP1 ISZERO PUSH2 0x28BD JUMPI RETURNDATASIZE PUSH1 0x0 DUP1 RETURNDATACOPY RETURNDATASIZE PUSH1 0x0 REVERT JUMPDEST POP POP POP POP PUSH1 0x40 MLOAD RETURNDATASIZE PUSH1 0x1F NOT PUSH1 0x1F DUP3 ADD AND DUP3 ADD DUP1 PUSH1 0x40 MSTORE POP DUP2 ADD SWAP1 PUSH2 0x28E1 SWAP2 SWAP1 PUSH2 0x3579 JUMP JUMPDEST PUSH1 0x16 DUP2 DUP2 SSTORE PUSH1 0x0 SWAP2 DUP3 MSTORE PUSH1 0x18 PUSH1 0x20 MSTORE PUSH1 0x40 DUP1 DUP4 KECCAK256 DUP1 SLOAD PUSH1 0x1 PUSH1 0x1 PUSH1 0xA0 SHL SUB NOT AND CALLER OR SWAP1 SSTORE SWAP1 SLOAD SWAP1 MLOAD SWAP1 SWAP2 PUSH32 0xDAD2A728AC67E726695710E743BCE88EA2AAF66EF5795ABDA5E24FA7B7750D5F SWAP2 LOG2 PUSH1 0x7 SLOAD PUSH1 0x40 MLOAD PUSH32 0xE4873708E4FC11619230DD3506A5F7CB96ECE9D6D7B1C2EA9E7C46DAC3F10BAA SWAP1 PUSH1 0x0 SWAP1 LOG2 JUMP JUMPDEST PUSH1 0x2 PUSH1 0x1A SLOAD SUB PUSH2 0x29AE JUMPI PUSH1 0x40 MLOAD PUSH3 0x461BCD PUSH1 0xE5 SHL DUP2 MSTORE PUSH1 0x20 PUSH1 0x4 DUP3 ADD MSTORE PUSH1 0x1F PUSH1 0x24 DUP3 ADD MSTORE PUSH32 0x5265656E7472616E637947756172643A207265656E7472616E742063616C6C00 PUSH1 0x44 DUP3 ADD MSTORE PUSH1 0x64 ADD PUSH2 0xA0A JUMP JUMPDEST PUSH1 0x2 PUSH1 0x1A SSTORE JUMP JUMPDEST PUSH2 0x29BD PUSH2 0x2D8B JUMP JUMPDEST PUSH1 0x0 DUP1 TIMESTAMP CALLER PUSH1 0x19 SLOAD PUSH1 0x40 MLOAD PUSH1 0x20 ADD PUSH2 0x29FA SWAP4 SWAP3 SWAP2 SWAP1 SWAP3 DUP4 MSTORE PUSH1 0x60 SWAP2 SWAP1 SWAP2 SHL PUSH12 0xFFFFFFFFFFFFFFFFFFFFFFFF NOT AND PUSH1 0x20 DUP4 ADD MSTORE PUSH1 0x34 DUP3 ADD MSTORE PUSH1 0x54 ADD SWAP1 JUMP JUMPDEST PUSH1 0x40 DUP1 MLOAD PUSH1 0x1F NOT DUP2 DUP5 SUB ADD DUP2 MSTORE SWAP2 SWAP1 MSTORE DUP1 MLOAD PUSH1 0x20 SWAP1 SWAP2 ADD KECCAK256 PUSH1 0x19 DUP1 SLOAD SWAP2 SWAP3 POP PUSH1 0x0 PUSH2 0x2A24 DUP4 PUSH2 0x33B5 JUMP JUMPDEST SWAP2 SWAP1 POP SSTORE POP JUMPDEST PUSH1 0x5 DUP3 PUSH1 0xFF AND LT ISZERO PUSH2 0x2B31 JUMPI PUSH1 0x0 PUSH2 0x2A43 PUSH1 0x32 DUP4 PUSH2 0x3508 JUMP JUMPDEST PUSH2 0x2A4E SWAP1 PUSH1 0x1 PUSH2 0x33A2 JUMP JUMPDEST SWAP1 POP PUSH1 0x0 DUP1 JUMPDEST DUP5 PUSH1 0xFF AND DUP2 PUSH1 0xFF AND LT ISZERO PUSH2 0x2AA3 JUMPI DUP3 PUSH1 0xFF AND DUP7 DUP3 PUSH1 0xFF AND PUSH1 0x5 DUP2 LT PUSH2 0x2A7B JUMPI PUSH2 0x2A7B PUSH2 0x33CE JUMP JUMPDEST PUSH1 0x20 MUL ADD MLOAD PUSH1 0xFF AND SUB PUSH2 0x2A91 JUMPI PUSH1 0x1 SWAP2 POP PUSH2 0x2AA3 JUMP JUMPDEST DUP1 PUSH2 0x2A9B DUP2 PUSH2 0x34E9 JUMP JUMPDEST SWAP2 POP POP PUSH2 0x2A54 JUMP JUMPDEST POP DUP1 PUSH2 0x2ADA JUMPI DUP2 DUP6 DUP6 PUSH1 0xFF AND PUSH1 0x5 DUP2 LT PUSH2 0x2ABF JUMPI PUSH2 0x2ABF PUSH2 0x33CE JUMP JUMPDEST PUSH1 0xFF SWAP1 SWAP3 AND PUSH1 0x20 SWAP3 SWAP1 SWAP3 MUL ADD MSTORE DUP4 PUSH2 0x2AD6 DUP2 PUSH2 0x34E9 JUMP JUMPDEST SWAP5 POP POP JUMPDEST DUP3 DUP5 PUSH1 0x19 SLOAD PUSH1 0x40 MLOAD PUSH1 0x20 ADD PUSH2 0x2B0F SWAP4 SWAP3 SWAP2 SWAP1 SWAP3 DUP4 MSTORE PUSH1 0xF8 SWAP2 SWAP1 SWAP2 SHL PUSH1 0x1 PUSH1 0x1 PUSH1 0xF8 SHL SUB NOT AND PUSH1 0x20 DUP4 ADD MSTORE PUSH1 0x21 DUP3 ADD MSTORE PUSH1 0x41 ADD SWAP1 JUMP JUMPDEST PUSH1 0x40 MLOAD PUSH1 0x20 DUP2 DUP4 SUB SUB DUP2 MSTORE SWAP1 PUSH1 0x40 MSTORE DUP1 MLOAD SWAP1 PUSH1 0x20 ADD KECCAK256 PUSH1 0x0 SHR SWAP3 POP POP POP PUSH2 0x2A2A JUMP JUMPDEST POP POP SWAP1 JUMP JUMPDEST PUSH1 0x0 DUP1 JUMPDEST PUSH1 0x5 DUP2 LT ISZERO PUSH2 0x2C05 JUMPI PUSH1 0x1 DUP4 DUP3 PUSH1 0x5 DUP2 LT PUSH2 0x2B57 JUMPI PUSH2 0x2B57 PUSH2 0x33CE JUMP JUMPDEST PUSH1 0x20 MUL ADD MLOAD PUSH1 0xFF AND LT DUP1 PUSH2 0x2B84 JUMPI POP PUSH1 0x32 DUP4 DUP3 PUSH1 0x5 DUP2 LT PUSH2 0x2B7A JUMPI PUSH2 0x2B7A PUSH2 0x33CE JUMP JUMPDEST PUSH1 0x20 MUL ADD MLOAD PUSH1 0xFF AND GT JUMPDEST ISZERO PUSH2 0x2B92 JUMPI POP PUSH1 0x0 SWAP3 SWAP2 POP POP JUMP JUMPDEST PUSH1 0x0 JUMPDEST DUP2 DUP2 LT ISZERO PUSH2 0x2BF2 JUMPI DUP4 DUP2 PUSH1 0x5 DUP2 LT PUSH2 0x2BAF JUMPI PUSH2 0x2BAF PUSH2 0x33CE JUMP JUMPDEST PUSH1 0x20 MUL ADD MLOAD PUSH1 0xFF AND DUP5 DUP4 PUSH1 0x5 DUP2 LT PUSH2 0x2BC9 JUMPI PUSH2 0x2BC9 PUSH2 0x33CE JUMP JUMPDEST PUSH1 0x20 MUL ADD MLOAD PUSH1 0xFF AND SUB PUSH2 0x2BE0 JUMPI POP PUSH1 0x0 SWAP4 SWAP3 POP POP POP JUMP JUMPDEST DUP1 PUSH2 0x2BEA DUP2 PUSH2 0x33B5 JUMP JUMPDEST SWAP2 POP POP PUSH2 0x2B95 JUMP JUMPDEST POP DUP1 PUSH2 0x2BFD DUP2 PUSH2 0x33B5 JUMP JUMPDEST SWAP2 POP POP PUSH2 0x2B3A JUMP JUMPDEST POP PUSH1 0x1 SWAP3 SWAP2 POP POP JUMP JUMPDEST CALLER PUSH1 0x1 PUSH1 0x1 PUSH1 0xA0 SHL SUB DUP3 AND SUB PUSH2 0x2C66 JUMPI PUSH1 0x40 MLOAD PUSH3 0x461BCD PUSH1 0xE5 SHL DUP2 MSTORE PUSH1 0x20 PUSH1 0x4 DUP3 ADD MSTORE PUSH1 0x17 PUSH1 0x24 DUP3 ADD MSTORE PUSH32 0x43616E6E6F74207472616E7366657220746F2073656C66000000000000000000 PUSH1 0x44 DUP3 ADD MSTORE PUSH1 0x64 ADD PUSH2 0xA0A JUMP JUMPDEST PUSH1 0x1 DUP1 SLOAD PUSH1 0x1 PUSH1 0x1 PUSH1 0xA0 SHL SUB NOT AND PUSH1 0x1 PUSH1 0x1 PUSH1 0xA0 SHL SUB DUP4 DUP2 AND SWAP2 DUP3 OR SWAP1 SWAP3 SSTORE PUSH1 0x0 DUP1 SLOAD PUSH1 0x40 MLOAD SWAP3 SWAP4 AND SWAP2 PUSH32 0xED8889F560326EB138920D842192F0EB3DD22B4F139C87A2C57538E05BAE1278 SWAP2 SWAP1 LOG3 POP JUMP JUMPDEST PUSH1 0x60 PUSH32 0x92FD13387C7FE7BEFBC38D303D6468778FB9731BC4583F17D92989C6FCFDEAAA DUP3 PUSH1 0x40 MLOAD PUSH1 0x24 ADD PUSH2 0x2CF0 SWAP2 MLOAD ISZERO ISZERO DUP2 MSTORE PUSH1 0x20 ADD SWAP1 JUMP JUMPDEST PUSH1 0x40 DUP1 MLOAD PUSH1 0x1F NOT DUP2 DUP5 SUB ADD DUP2 MSTORE SWAP2 SWAP1 MSTORE PUSH1 0x20 DUP2 ADD DUP1 MLOAD PUSH1 0x1 PUSH1 0x1 PUSH1 0xE0 SHL SUB AND PUSH1 0x1 PUSH1 0x1 PUSH1 0xE0 SHL SUB NOT SWAP1 SWAP4 AND SWAP3 SWAP1 SWAP3 OR SWAP1 SWAP2 MSTORE SWAP3 SWAP2 POP POP JUMP JUMPDEST DUP3 DUP1 SLOAD DUP3 DUP3 SSTORE SWAP1 PUSH1 0x0 MSTORE PUSH1 0x20 PUSH1 0x0 KECCAK256 SWAP1 DUP2 ADD SWAP3 DUP3 ISZERO PUSH2 0x2D7B JUMPI SWAP2 PUSH1 0x20 MUL DUP3 ADD JUMPDEST DUP3 DUP2 GT ISZERO PUSH2 0x2D7B JUMPI DUP2 SLOAD PUSH1 0x1 PUSH1 0x1 PUSH1 0xA0 SHL SUB NOT AND PUSH1 0x1 PUSH1 0x1 PUSH1 0xA0 SHL SUB DUP5 CALLDATALOAD AND OR DUP3 SSTORE PUSH1 0x20 SWAP1 SWAP3 ADD SWAP2 PUSH1 0x1 SWAP1 SWAP2 ADD SWAP1 PUSH2 0x2D48 JUMP JUMPDEST POP PUSH2 0x2D87 SWAP3 SWAP2 POP PUSH2 0x2E33 JUMP JUMPDEST POP SWAP1 JUMP JUMPDEST PUSH1 0x40 MLOAD DUP1 PUSH1 0xA0 ADD PUSH1 0x40 MSTORE DUP1 PUSH1 0x5 SWAP1 PUSH1 0x20 DUP3 MUL DUP1 CALLDATASIZE DUP4 CALLDATACOPY POP SWAP2 SWAP3 SWAP2 POP POP JUMP JUMPDEST PUSH1 0x1 DUP4 ADD SWAP2 DUP4 SWAP1 DUP3 ISZERO PUSH2 0x2D7B JUMPI SWAP2 PUSH1 0x20 MUL DUP3 ADD PUSH1 0x0 JUMPDEST DUP4 DUP3 GT ISZERO PUSH2 0x2DFD JUMPI DUP4 MLOAD DUP4 DUP3 PUSH2 0x100 EXP DUP2 SLOAD DUP2 PUSH1 0xFF MUL NOT AND SWAP1 DUP4 PUSH1 0xFF AND MUL OR SWAP1 SSTORE POP SWAP3 PUSH1 0x20 ADD SWAP3 PUSH1 0x1 ADD PUSH1 0x20 DUP2 PUSH1 0x0 ADD DIV SWAP3 DUP4 ADD SWAP3 PUSH1 0x1 SUB MUL PUSH2 0x2DBF JUMP JUMPDEST DUP1 ISZERO PUSH2 0x2E2A JUMPI DUP3 DUP2 PUSH2 0x100 EXP DUP2 SLOAD SWAP1 PUSH1 0xFF MUL NOT AND SWAP1 SSTORE PUSH1 0x1 ADD PUSH1 0x20 DUP2 PUSH1 0x0 ADD DIV SWAP3 DUP4 ADD SWAP3 PUSH1 0x1 SUB MUL PUSH2 0x2DFD JUMP JUMPDEST POP POP PUSH2 0x2D87 SWAP3 SWAP2 POP JUMPDEST JUMPDEST DUP1 DUP3 GT ISZERO PUSH2 0x2D87 JUMPI PUSH1 0x0 DUP2 SSTORE PUSH1 0x1 ADD PUSH2 0x2E34 JUMP JUMPDEST PUSH1 0x0 PUSH1 0x20 DUP3 DUP5 SUB SLT ISZERO PUSH2 0x2E5A JUMPI PUSH1 0x0 DUP1 REVERT JUMPDEST POP CALLDATALOAD SWAP2 SWAP1 POP JUMP JUMPDEST PUSH1 0x0 DUP1 DUP4 PUSH1 0x1F DUP5 ADD SLT PUSH2 0x2E73 JUMPI PUSH1 0x0 DUP1 REVERT JUMPDEST POP DUP2 CALLDATALOAD PUSH8 0xFFFFFFFFFFFFFFFF DUP2 GT ISZERO PUSH2 0x2E8B JUMPI PUSH1 0x0 DUP1 REVERT JUMPDEST PUSH1 0x20 DUP4 ADD SWAP2 POP DUP4 PUSH1 0x20 DUP3 PUSH1 0x5 SHL DUP6 ADD ADD GT ISZERO PUSH2 0x1207 JUMPI PUSH1 0x0 DUP1 REVERT JUMPDEST PUSH1 0x0 DUP1 PUSH1 0x0 PUSH1 0x40 DUP5 DUP7 SUB SLT ISZERO PUSH2 0x2EBB JUMPI PUSH1 0x0 DUP1 REVERT JUMPDEST DUP4 CALLDATALOAD SWAP3 POP PUSH1 0x20 DUP5 ADD CALLDATALOAD PUSH8 0xFFFFFFFFFFFFFFFF DUP2 GT ISZERO PUSH2 0x2ED9 JUMPI PUSH1 0x0 DUP1 REVERT JUMPDEST PUSH2 0x2EE5 DUP7 DUP3 DUP8 ADD PUSH2 0x2E61 JUMP JUMPDEST SWAP5 SWAP8 SWAP1 SWAP7 POP SWAP4 SWAP5 POP POP POP POP JUMP JUMPDEST PUSH1 0x0 PUSH1 0x20 DUP3 DUP5 SUB SLT ISZERO PUSH2 0x2F04 JUMPI PUSH1 0x0 DUP1 REVERT JUMPDEST DUP2 CALLDATALOAD DUP1 ISZERO ISZERO DUP2 EQ PUSH2 0x2F14 JUMPI PUSH1 0x0 DUP1 REVERT JUMPDEST SWAP4 SWAP3 POP POP POP JUMP JUMPDEST PUSH1 0x0 DUP1 PUSH1 0x20 DUP4 DUP6 SUB SLT ISZERO PUSH2 0x2F2E JUMPI PUSH1 0x0 DUP1 REVERT JUMPDEST DUP3 CALLDATALOAD PUSH8 0xFFFFFFFFFFFFFFFF DUP1 DUP3 GT ISZERO PUSH2 0x2F46 JUMPI PUSH1 0x0 DUP1 REVERT JUMPDEST DUP2 DUP6 ADD SWAP2 POP DUP6 PUSH1 0x1F DUP4 ADD SLT PUSH2 0x2F5A JUMPI PUSH1 0x0 DUP1 REVERT JUMPDEST DUP2 CALLDATALOAD DUP2 DUP2 GT ISZERO PUSH2 0x2F69 JUMPI PUSH1 0x0 DUP1 REVERT JUMPDEST DUP7 PUSH1 0x20 DUP3 DUP6 ADD ADD GT ISZERO PUSH2 0x2F7B JUMPI PUSH1 0x0 DUP1 REVERT JUMPDEST PUSH1 0x20 SWAP3 SWAP1 SWAP3 ADD SWAP7 SWAP2 SWAP6 POP SWAP1 SWAP4 POP POP POP POP JUMP JUMPDEST PUSH1 0x0 DUP1 PUSH1 0x0 DUP1 PUSH1 0x0 DUP1 PUSH1 0x0 PUSH1 0x80 DUP9 DUP11 SUB SLT ISZERO PUSH2 0x2FA8 JUMPI PUSH1 0x0 DUP1 REVERT JUMPDEST DUP8 CALLDATALOAD SWAP7 POP PUSH1 0x20 DUP9 ADD CALLDATALOAD PUSH8 0xFFFFFFFFFFFFFFFF DUP1 DUP3 GT ISZERO PUSH2 0x2FC7 JUMPI PUSH1 0x0 DUP1 REVERT JUMPDEST PUSH2 0x2FD3 DUP12 DUP4 DUP13 ADD PUSH2 0x2E61 JUMP JUMPDEST SWAP1 SWAP9 POP SWAP7 POP PUSH1 0x40 DUP11 ADD CALLDATALOAD SWAP2 POP DUP1 DUP3 GT ISZERO PUSH2 0x2FEC JUMPI PUSH1 0x0 DUP1 REVERT JUMPDEST PUSH2 0x2FF8 DUP12 DUP4 DUP13 ADD PUSH2 0x2E61 JUMP JUMPDEST SWAP1 SWAP7 POP SWAP5 POP PUSH1 0x60 DUP11 ADD CALLDATALOAD SWAP2 POP DUP1 DUP3 GT ISZERO PUSH2 0x3011 JUMPI PUSH1 0x0 DUP1 REVERT JUMPDEST POP PUSH2 0x301E DUP11 DUP3 DUP12 ADD PUSH2 0x2E61 JUMP JUMPDEST SWAP9 SWAP12 SWAP8 SWAP11 POP SWAP6 SWAP9 POP SWAP4 SWAP7 SWAP3 SWAP6 SWAP3 SWAP4 POP POP POP JUMP JUMPDEST DUP1 CALLDATALOAD PUSH1 0x1 PUSH1 0x1 PUSH1 0xA0 SHL SUB DUP2 AND DUP2 EQ PUSH2 0x3048 JUMPI PUSH1 0x0 DUP1 REVERT JUMPDEST SWAP2 SWAP1 POP JUMP JUMPDEST PUSH1 0x0 PUSH1 0x20 DUP3 DUP5 SUB SLT ISZERO PUSH2 0x305F JUMPI PUSH1 0x0 DUP1 REVERT JUMPDEST PUSH2 0x2F14 DUP3 PUSH2 0x3031 JUMP JUMPDEST DUP1 CALLDATALOAD PUSH1 0xFF DUP2 AND DUP2 EQ PUSH2 0x3048 JUMPI PUSH1 0x0 DUP1 REVERT JUMPDEST PUSH1 0x0 PUSH1 0x20 DUP3 DUP5 SUB SLT ISZERO PUSH2 0x308B JUMPI PUSH1 0x0 DUP1 REVERT JUMPDEST PUSH2 0x2F14 DUP3 PUSH2 0x3068 JUMP JUMPDEST PUSH1 0x0 DUP2 MLOAD DUP1 DUP5 MSTORE PUSH1 0x0 JUMPDEST DUP2 DUP2 LT ISZERO PUSH2 0x30BA JUMPI PUSH1 0x20 DUP2 DUP6 ADD DUP2 ADD MLOAD DUP7 DUP4 ADD DUP3 ADD MSTORE ADD PUSH2 0x309E JUMP JUMPDEST POP PUSH1 0x0 PUSH1 0x20 DUP3 DUP7 ADD ADD MSTORE PUSH1 0x20 PUSH1 0x1F NOT PUSH1 0x1F DUP4 ADD AND DUP6 ADD ADD SWAP2 POP POP SWAP3 SWAP2 POP POP JUMP JUMPDEST DUP3 ISZERO ISZERO DUP2 MSTORE PUSH1 0x40 PUSH1 0x20 DUP3 ADD MSTORE PUSH1 0x0 PUSH2 0x11E5 PUSH1 0x40 DUP4 ADD DUP5 PUSH2 0x3094 JUMP JUMPDEST PUSH1 0x0 DUP2 MLOAD DUP1 DUP5 MSTORE PUSH1 0x20 DUP1 DUP6 ADD SWAP5 POP DUP1 DUP5 ADD PUSH1 0x0 JUMPDEST DUP4 DUP2 LT ISZERO PUSH2 0x312E JUMPI DUP2 MLOAD PUSH1 0x1 PUSH1 0x1 PUSH1 0xA0 SHL SUB AND DUP8 MSTORE SWAP6 DUP3 ADD SWAP6 SWAP1 DUP3 ADD SWAP1 PUSH1 0x1 ADD PUSH2 0x3109 JUMP JUMPDEST POP SWAP5 SWAP6 SWAP5 POP POP POP POP POP JUMP JUMPDEST PUSH1 0x60 DUP2 MSTORE PUSH1 0x0 PUSH2 0x314C PUSH1 0x60 DUP4 ADD DUP7 PUSH2 0x30F5 JUMP JUMPDEST DUP3 DUP2 SUB PUSH1 0x20 DUP5 ADD MSTORE PUSH2 0x315E DUP2 DUP7 PUSH2 0x30F5 JUMP JUMPDEST SWAP1 POP DUP3 DUP2 SUB PUSH1 0x40 DUP5 ADD MSTORE PUSH2 0x3172 DUP2 DUP6 PUSH2 0x30F5 JUMP JUMPDEST SWAP7 SWAP6 POP POP POP POP POP POP JUMP JUMPDEST DUP1 PUSH1 0x0 JUMPDEST PUSH1 0x5 DUP2 LT ISZERO PUSH2 0x31A2 JUMPI DUP2 MLOAD PUSH1 0xFF AND DUP5 MSTORE PUSH1 0x20 SWAP4 DUP5 ADD SWAP4 SWAP1 SWAP2 ADD SWAP1 PUSH1 0x1 ADD PUSH2 0x3180 JUMP JUMPDEST POP POP POP POP JUMP JUMPDEST PUSH1 0x40 DUP2 MSTORE PUSH1 0x0 PUSH2 0x31BB PUSH1 0x40 DUP4 ADD DUP6 PUSH2 0x30F5 JUMP JUMPDEST DUP3 DUP2 SUB PUSH1 0x20 DUP5 DUP2 ADD SWAP2 SWAP1 SWAP2 MSTORE DUP5 MLOAD DUP1 DUP4 MSTORE DUP6 DUP3 ADD SWAP3 DUP3 ADD SWAP1 PUSH1 0x0 JUMPDEST DUP2 DUP2 LT ISZERO PUSH2 0x31FC JUMPI PUSH2 0x31E9 DUP4 DUP7 MLOAD PUSH2 0x317C JUMP JUMPDEST SWAP4 DUP4 ADD SWAP4 PUSH1 0xA0 SWAP3 SWAP1 SWAP3 ADD SWAP2 PUSH1 0x1 ADD PUSH2 0x31D6 JUMP JUMPDEST POP SWAP1 SWAP8 SWAP7 POP POP POP POP POP POP POP JUMP JUMPDEST PUSH1 0xA0 DUP2 ADD PUSH2 0x3217 DUP3 DUP5 PUSH2 0x317C JUMP JUMPDEST SWAP3 SWAP2 POP POP JUMP JUMPDEST PUSH1 0x0 PUSH1 0x20 DUP3 DUP5 SUB SLT ISZERO PUSH2 0x322F JUMPI PUSH1 0x0 DUP1 REVERT JUMPDEST DUP2 CALLDATALOAD PUSH4 0xFFFFFFFF DUP2 AND DUP2 EQ PUSH2 0x2F14 JUMPI PUSH1 0x0 DUP1 REVERT JUMPDEST PUSH4 0x4E487B71 PUSH1 0xE0 SHL PUSH1 0x0 MSTORE PUSH1 0x41 PUSH1 0x4 MSTORE PUSH1 0x24 PUSH1 0x0 REVERT JUMPDEST PUSH1 0x0 PUSH1 0xA0 DUP3 DUP5 SUB SLT ISZERO PUSH2 0x326B JUMPI PUSH1 0x0 DUP1 REVERT JUMPDEST DUP3 PUSH1 0x1F DUP4 ADD SLT PUSH2 0x327A JUMPI PUSH1 0x0 DUP1 REVERT JUMPDEST PUSH1 0x40 MLOAD PUSH1 0xA0 DUP2 ADD DUP2 DUP2 LT PUSH8 0xFFFFFFFFFFFFFFFF DUP3 GT OR ISZERO PUSH2 0x32AB JUMPI PUSH4 0x4E487B71 PUSH1 0xE0 SHL PUSH1 0x0 MSTORE PUSH1 0x41 PUSH1 0x4 MSTORE PUSH1 0x24 PUSH1 0x0 REVERT JUMPDEST PUSH1 0x40 MSTORE DUP1 PUSH1 0xA0 DUP5 ADD DUP6 DUP2 GT ISZERO PUSH2 0x32C0 JUMPI PUSH1 0x0 DUP1 REVERT JUMPDEST DUP5 JUMPDEST DUP2 DUP2 LT ISZERO PUSH2 0x32E1 JUMPI PUSH2 0x32D3 DUP2 PUSH2 0x3068 JUMP JUMPDEST DUP4 MSTORE PUSH1 0x20 SWAP3 DUP4 ADD SWAP3 ADD PUSH2 0x32C2 JUMP JUMPDEST POP SWAP2 SWAP6 SWAP5 POP POP POP POP POP JUMP JUMPDEST PUSH1 0x0 DUP1 PUSH1 0x0 PUSH1 0x60 DUP5 DUP7 SUB SLT ISZERO PUSH2 0x3301 JUMPI PUSH1 0x0 DUP1 REVERT JUMPDEST DUP4 CALLDATALOAD SWAP3 POP PUSH2 0x3311 PUSH1 0x20 DUP6 ADD PUSH2 0x3031 JUMP JUMPDEST SWAP2 POP PUSH1 0x40 DUP5 ADD CALLDATALOAD SWAP1 POP SWAP3 POP SWAP3 POP SWAP3 JUMP JUMPDEST PUSH1 0x0 DUP1 PUSH1 0x40 DUP4 DUP6 SUB SLT ISZERO PUSH2 0x3334 JUMPI PUSH1 0x0 DUP1 REVERT JUMPDEST PUSH2 0x333D DUP4 PUSH2 0x3031 JUMP JUMPDEST SWAP5 PUSH1 0x20 SWAP4 SWAP1 SWAP4 ADD CALLDATALOAD SWAP4 POP POP POP JUMP JUMPDEST PUSH4 0x4E487B71 PUSH1 0xE0 SHL PUSH1 0x0 MSTORE PUSH1 0x11 PUSH1 0x4 MSTORE PUSH1 0x24 PUSH1 0x0 REVERT JUMPDEST DUP1 DUP3 MUL DUP2 ISZERO DUP3 DUP3 DIV DUP5 EQ OR PUSH2 0x3217 JUMPI PUSH2 0x3217 PUSH2 0x334B JUMP JUMPDEST PUSH4 0x4E487B71 PUSH1 0xE0 SHL PUSH1 0x0 MSTORE PUSH1 0x12 PUSH1 0x4 MSTORE PUSH1 0x24 PUSH1 0x0 REVERT JUMPDEST PUSH1 0x0 DUP3 PUSH2 0x339D JUMPI PUSH2 0x339D PUSH2 0x3378 JUMP JUMPDEST POP DIV SWAP1 JUMP JUMPDEST DUP1 DUP3 ADD DUP1 DUP3 GT ISZERO PUSH2 0x3217 JUMPI PUSH2 0x3217 PUSH2 0x334B JUMP JUMPDEST PUSH1 0x0 PUSH1 0x1 DUP3 ADD PUSH2 0x33C7 JUMPI PUSH2 0x33C7 PUSH2 0x334B JUMP JUMPDEST POP PUSH1 0x1 ADD SWAP1 JUMP JUMPDEST PUSH4 0x4E487B71 PUSH1 0xE0 SHL PUSH1 0x0 MSTORE PUSH1 0x32 PUSH1 0x4 MSTORE PUSH1 0x24 PUSH1 0x0 REVERT JUMPDEST DUP1 MLOAD PUSH10 0xFFFFFFFFFFFFFFFFFFFF DUP2 AND DUP2 EQ PUSH2 0x3048 JUMPI PUSH1 0x0 DUP1 REVERT JUMPDEST PUSH1 0x0 DUP1 PUSH1 0x0 DUP1 PUSH1 0x0 PUSH1 0xA0 DUP7 DUP9 SUB SLT ISZERO PUSH2 0x3416 JUMPI PUSH1 0x0 DUP1 REVERT JUMPDEST PUSH2 0x341F DUP7 PUSH2 0x33E4 JUMP JUMPDEST SWAP5 POP PUSH1 0x20 DUP7 ADD MLOAD SWAP4 POP PUSH1 0x40 DUP7 ADD MLOAD SWAP3 POP PUSH1 0x60 DUP7 ADD MLOAD SWAP2 POP PUSH2 0x3442 PUSH1 0x80 DUP8 ADD PUSH2 0x33E4 JUMP JUMPDEST SWAP1 POP SWAP3 SWAP6 POP SWAP3 SWAP6 SWAP1 SWAP4 POP JUMP JUMPDEST PUSH1 0x20 DUP1 DUP3 MSTORE PUSH1 0x12 SWAP1 DUP3 ADD MSTORE PUSH18 0x10DBDB9D1C9858DD081A5CC81C185D5CD959 PUSH1 0x72 SHL PUSH1 0x40 DUP3 ADD MSTORE PUSH1 0x60 ADD SWAP1 JUMP JUMPDEST PUSH1 0x20 DUP1 DUP3 MSTORE PUSH1 0xC SWAP1 DUP3 ADD MSTORE PUSH12 0x149BDD5B99081B1BD8DAD959 PUSH1 0xA2 SHL PUSH1 0x40 DUP3 ADD MSTORE PUSH1 0x60 ADD SWAP1 JUMP JUMPDEST PUSH1 0x20 DUP1 DUP3 MSTORE PUSH1 0x14 SWAP1 DUP3 ADD MSTORE PUSH20 0x125B98DBDC9C9958DD0810939088185B5BDD5B9D PUSH1 0x62 SHL PUSH1 0x40 DUP3 ADD MSTORE PUSH1 0x60 ADD SWAP1 JUMP JUMPDEST PUSH1 0xC0 DUP2 ADD PUSH2 0x34DC DUP3 DUP6 PUSH2 0x317C JUMP JUMPDEST DUP3 PUSH1 0xA0 DUP4 ADD MSTORE SWAP4 SWAP3 POP POP POP JUMP JUMPDEST PUSH1 0x0 PUSH1 0xFF DUP3 AND PUSH1 0xFF DUP2 SUB PUSH2 0x34FF JUMPI PUSH2 0x34FF PUSH2 0x334B JUMP JUMPDEST PUSH1 0x1 ADD SWAP3 SWAP2 POP POP JUMP JUMPDEST PUSH1 0x0 DUP3 PUSH2 0x3517 JUMPI PUSH2 0x3517 PUSH2 0x3378 JUMP JUMPDEST POP MOD SWAP1 JUMP JUMPDEST PUSH1 0x20 DUP2 MSTORE DUP2 MLOAD PUSH1 0x20 DUP3 ADD MSTORE PUSH1 0x20 DUP3 ADD MLOAD PUSH1 0x40 DUP3 ADD MSTORE PUSH2 0xFFFF PUSH1 0x40 DUP4 ADD MLOAD AND PUSH1 0x60 DUP3 ADD MSTORE PUSH1 0x0 PUSH1 0x60 DUP4 ADD MLOAD PUSH4 0xFFFFFFFF DUP1 DUP3 AND PUSH1 0x80 DUP6 ADD MSTORE DUP1 PUSH1 0x80 DUP7 ADD MLOAD AND PUSH1 0xA0 DUP6 ADD MSTORE POP POP PUSH1 0xA0 DUP4 ADD MLOAD PUSH1 0xC0 DUP1 DUP5 ADD MSTORE PUSH2 0x11E5 PUSH1 0xE0 DUP5 ADD DUP3 PUSH2 0x3094 JUMP JUMPDEST PUSH1 0x0 PUSH1 0x20 DUP3 DUP5 SUB SLT ISZERO PUSH2 0x358B JUMPI PUSH1 0x0 DUP1 REVERT JUMPDEST POP MLOAD SWAP2 SWAP1 POP JUMP INVALID LOG2 PUSH5 0x6970667358 0x22 SLT KECCAK256 ORIGIN OR BASEFEE 0xBC MLOAD SWAP7 0xA9 0xB2 0xEA SWAP6 0xBA 0xB4 DUP15 AND 0xAA 0x28 0xE4 SWAP16 0xB2 MLOAD 0x25 DUP9 0x25 0xCE PREVRANDAO 0x4D 0xB5 0xCB 0xB2 RETURNDATACOPY 0xE3 0xBF PUSH5 0x736F6C6343 STOP ADDMOD SGT STOP CALLER "
		},
		"gasEstimates": {
			"creation": {
				"codeDepositCost": "2753600",
				"executionCost": "infinite",
				"totalCost": "infinite"
			},
			"external": {
				"acceptOwnership()": "52389",
				"allRounds(uint256)": "15389",
				"automationRegistry()": "2449",
				"bulkTicketsWithRandomNumbers(uint8)": "infinite",
				"buyTicket(uint8[5])": "infinite",
				"buyTicketWithRandomNumbers()": "infinite",
				"callbackGasLimit()": "2404",
				"checkUpkeep(bytes)": "3002",
				"currentRound()": "2363",
				"distributePrizes(uint8)": "infinite",
				"drawNumbers()": "infinite",
				"emergencyWithdraw()": "infinite",
				"fundPrizePool()": "3875",
				"getAllTicketsForRound(uint256)": "infinite",
				"getMyTickets(uint256)": "infinite",
				"getPrizePoolInUSD()": "infinite",
				"getWinningAddresses(uint256)": "infinite",
				"getWinningNumbers(uint256)": "infinite",
				"getusdTicketPriceInBNB()": "infinite",
				"lastDrawTime()": "2385",
				"lastRequestId()": "2427",
				"numWords()": "2436",
				"owner()": "2443",
				"pause()": "26599",
				"paused()": "2367",
				"pendingDraw()": "2345",
				"performUpkeep(bytes)": "infinite",
				"playerTickets(uint256,address,uint256)": "4977",
				"rawFulfillRandomWords(uint256,uint256[])": "infinite",
				"requestConfirmations()": "2435",
				"roundInProgress()": "2361",
				"roundLocked(uint256)": "2486",
				"s_keyHash()": "2386",
				"s_subscriptionId()": "2385",
				"s_vrfCoordinator()": "2449",
				"setAutomationRegistry(address)": "26904",
				"setCallbackGasLimit(uint32)": "26763",
				"setCoordinator(address)": "30112",
				"setPendingDraw(bool)": "26748",
				"setUsdTicketPrice(uint256)": "24556",
				"setWinnersSubmitted(bool)": "26771",
				"submitWinners(uint256,address[],address[],address[])": "infinite",
				"totalTicketsPerDraw(uint256)": "2549",
				"transferOwnership(address)": "30524",
				"uniqueParticipantsPerDraw(uint256)": "2505",
				"unpause()": "26683",
				"updatePriceFeed(address)": "26838",
				"updateSubscriptionId(uint256)": "24646",
				"updateVRFSettings(address,bytes32)": "49024",
				"usdTicketPrice()": "2363",
				"winnerSubmissionDeadline()": "2429",
				"winnersSubmitted()": "2388"
			}
		},
		"methodIdentifiers": {
			"acceptOwnership()": "79ba5097",
			"allRounds(uint256)": "e1bf07b7",
			"automationRegistry()": "5dc228a0",
			"bulkTicketsWithRandomNumbers(uint8)": "dc65c843",
			"buyTicket(uint8[5])": "cc957f28",
			"buyTicketWithRandomNumbers()": "b933dcba",
			"callbackGasLimit()": "24f74697",
			"checkUpkeep(bytes)": "6e04ff0d",
			"currentRound()": "8a19c8bc",
			"distributePrizes(uint8)": "61edf9b2",
			"drawNumbers()": "676c902f",
			"emergencyWithdraw()": "db2e21bc",
			"fundPrizePool()": "88b2f7c3",
			"getAllTicketsForRound(uint256)": "85705ad3",
			"getMyTickets(uint256)": "c81d9217",
			"getPrizePoolInUSD()": "6a91da2b",
			"getWinningAddresses(uint256)": "75b26d21",
			"getWinningNumbers(uint256)": "9d5c35ae",
			"getusdTicketPriceInBNB()": "d11532b7",
			"lastDrawTime()": "5cbbd635",
			"lastRequestId()": "fc2a88c3",
			"numWords()": "7ccfd7fc",
			"owner()": "8da5cb5b",
			"pause()": "8456cb59",
			"paused()": "5c975abb",
			"pendingDraw()": "88ed5d64",
			"performUpkeep(bytes)": "4585e33b",
			"playerTickets(uint256,address,uint256)": "dc7fe6a5",
			"rawFulfillRandomWords(uint256,uint256[])": "1fe543e3",
			"requestConfirmations()": "b0fb162f",
			"roundInProgress()": "ea5ab0ba",
			"roundLocked(uint256)": "1706672a",
			"s_keyHash()": "45bb327b",
			"s_subscriptionId()": "8ac00021",
			"s_vrfCoordinator()": "9eccacf6",
			"setAutomationRegistry(address)": "5ff2d2aa",
			"setCallbackGasLimit(uint32)": "a4eb718c",
			"setCoordinator(address)": "8ea98117",
			"setPendingDraw(bool)": "667640eb",
			"setUsdTicketPrice(uint256)": "bc076f52",
			"setWinnersSubmitted(bool)": "25d75795",
			"submitWinners(uint256,address[],address[],address[])": "4ac2a741",
			"totalTicketsPerDraw(uint256)": "87cc17b1",
			"transferOwnership(address)": "f2fde38b",
			"uniqueParticipantsPerDraw(uint256)": "c3279f8f",
			"unpause()": "3f4ba83a",
			"updatePriceFeed(address)": "95877f78",
			"updateSubscriptionId(uint256)": "2b09d310",
			"updateVRFSettings(address,bytes32)": "f664e752",
			"usdTicketPrice()": "63ecd0c3",
			"winnerSubmissionDeadline()": "8ea2d9ef",
			"winnersSubmitted()": "a9ecbf69"
		}
	},
	"abi": [
		{
			"inputs": [
				{
					"internalType": "uint256",
					"name": "subscriptionId",
					"type": "uint256"
				}
			],
			"stateMutability": "nonpayable",
			"type": "constructor"
		},
		{
			"inputs": [
				{
					"internalType": "address",
					"name": "have",
					"type": "address"
				},
				{
					"internalType": "address",
					"name": "want",
					"type": "address"
				}
			],
			"name": "OnlyCoordinatorCanFulfill",
			"type": "error"
		},
		{
			"inputs": [
				{
					"internalType": "address",
					"name": "have",
					"type": "address"
				},
				{
					"internalType": "address",
					"name": "owner",
					"type": "address"
				},
				{
					"internalType": "address",
					"name": "coordinator",
					"type": "address"
				}
			],
			"name": "OnlyOwnerOrCoordinator",
			"type": "error"
		},
		{
			"inputs": [],
			"name": "ZeroAddress",
			"type": "error"
		},
		{
			"anonymous": false,
			"inputs": [
				{
					"indexed": false,
					"internalType": "address",
					"name": "vrfCoordinator",
					"type": "address"
				}
			],
			"name": "CoordinatorSet",
			"type": "event"
		},
		{
			"anonymous": false,
			"inputs": [
				{
					"indexed": true,
					"internalType": "uint256",
					"name": "requestId",
					"type": "uint256"
				},
				{
					"indexed": false,
					"internalType": "uint8[5]",
					"name": "winningNumbers",
					"type": "uint8[5]"
				}
			],
			"name": "DrawFulfilled",
			"type": "event"
		},
		{
			"anonymous": false,
			"inputs": [
				{
					"indexed": true,
					"internalType": "uint256",
					"name": "requestId",
					"type": "uint256"
				}
			],
			"name": "DrawRequested",
			"type": "event"
		},
		{
			"anonymous": false,
			"inputs": [
				{
					"indexed": true,
					"internalType": "uint256",
					"name": "round",
					"type": "uint256"
				}
			],
			"name": "DrawStarted",
			"type": "event"
		},
		{
			"anonymous": false,
			"inputs": [
				{
					"indexed": false,
					"internalType": "uint256",
					"name": "amount",
					"type": "uint256"
				},
				{
					"indexed": false,
					"internalType": "address",
					"name": "recipient",
					"type": "address"
				}
			],
			"name": "EmergencyWithdrawal",
			"type": "event"
		},
		{
			"anonymous": false,
			"inputs": [
				{
					"indexed": true,
					"internalType": "address",
					"name": "from",
					"type": "address"
				},
				{
					"indexed": true,
					"internalType": "address",
					"name": "to",
					"type": "address"
				}
			],
			"name": "OwnershipTransferRequested",
			"type": "event"
		},
		{
			"anonymous": false,
			"inputs": [
				{
					"indexed": true,
					"internalType": "address",
					"name": "from",
					"type": "address"
				},
				{
					"indexed": true,
					"internalType": "address",
					"name": "to",
					"type": "address"
				}
			],
			"name": "OwnershipTransferred",
			"type": "event"
		},
		{
			"anonymous": false,
			"inputs": [
				{
					"indexed": true,
					"internalType": "address",
					"name": "sender",
					"type": "address"
				},
				{
					"indexed": false,
					"internalType": "uint256",
					"name": "amount",
					"type": "uint256"
				}
			],
			"name": "PrizePoolFunded",
			"type": "event"
		},
		{
			"anonymous": false,
			"inputs": [
				{
					"indexed": true,
					"internalType": "uint256",
					"name": "round",
					"type": "uint256"
				},
				{
					"indexed": false,
					"internalType": "uint8",
					"name": "tier",
					"type": "uint8"
				}
			],
			"name": "PrizesDistributed",
			"type": "event"
		},
		{
			"anonymous": false,
			"inputs": [
				{
					"indexed": true,
					"internalType": "address",
					"name": "player",
					"type": "address"
				},
				{
					"indexed": false,
					"internalType": "uint8[5]",
					"name": "numbers",
					"type": "uint8[5]"
				},
				{
					"indexed": false,
					"internalType": "uint256",
					"name": "round",
					"type": "uint256"
				}
			],
			"name": "TicketPurchased",
			"type": "event"
		},
		{
			"anonymous": false,
			"inputs": [
				{
					"indexed": true,
					"internalType": "uint256",
					"name": "round",
					"type": "uint256"
				}
			],
			"name": "WinnersSubmitted",
			"type": "event"
		},
		{
			"inputs": [],
			"name": "acceptOwnership",
			"outputs": [],
			"stateMutability": "nonpayable",
			"type": "function"
		},
		{
			"inputs": [
				{
					"internalType": "uint256",
					"name": "",
					"type": "uint256"
				}
			],
			"name": "allRounds",
			"outputs": [
				{
					"internalType": "uint256",
					"name": "timestamp",
					"type": "uint256"
				},
				{
					"internalType": "uint256",
					"name": "prizePool",
					"type": "uint256"
				},
				{
					"internalType": "bool",
					"name": "prizesDistributed",
					"type": "bool"
				},
				{
					"internalType": "uint256",
					"name": "rollover",
					"type": "uint256"
				},
				{
					"internalType": "uint256",
					"name": "prizeAmount3",
					"type": "uint256"
				},
				{
					"internalType": "uint256",
					"name": "prizeAmount4",
					"type": "uint256"
				},
				{
					"internalType": "uint256",
					"name": "prizeAmount5",
					"type": "uint256"
				}
			],
			"stateMutability": "view",
			"type": "function"
		},
		{
			"inputs": [],
			"name": "automationRegistry",
			"outputs": [
				{
					"internalType": "address",
					"name": "",
					"type": "address"
				}
			],
			"stateMutability": "view",
			"type": "function"
		},
		{
			"inputs": [
				{
					"internalType": "uint8",
					"name": "ticketCount",
					"type": "uint8"
				}
			],
			"name": "bulkTicketsWithRandomNumbers",
			"outputs": [],
			"stateMutability": "payable",
			"type": "function"
		},
		{
			"inputs": [
				{
					"internalType": "uint8[5]",
					"name": "numbers",
					"type": "uint8[5]"
				}
			],
			"name": "buyTicket",
			"outputs": [],
			"stateMutability": "payable",
			"type": "function"
		},
		{
			"inputs": [],
			"name": "buyTicketWithRandomNumbers",
			"outputs": [],
			"stateMutability": "payable",
			"type": "function"
		},
		{
			"inputs": [],
			"name": "callbackGasLimit",
			"outputs": [
				{
					"internalType": "uint32",
					"name": "",
					"type": "uint32"
				}
			],
			"stateMutability": "view",
			"type": "function"
		},
		{
			"inputs": [
				{
					"internalType": "bytes",
					"name": "",
					"type": "bytes"
				}
			],
			"name": "checkUpkeep",
			"outputs": [
				{
					"internalType": "bool",
					"name": "upkeepNeeded",
					"type": "bool"
				},
				{
					"internalType": "bytes",
					"name": "",
					"type": "bytes"
				}
			],
			"stateMutability": "view",
			"type": "function"
		},
		{
			"inputs": [],
			"name": "currentRound",
			"outputs": [
				{
					"internalType": "uint256",
					"name": "",
					"type": "uint256"
				}
			],
			"stateMutability": "view",
			"type": "function"
		},
		{
			"inputs": [
				{
					"internalType": "uint8",
					"name": "tier",
					"type": "uint8"
				}
			],
			"name": "distributePrizes",
			"outputs": [],
			"stateMutability": "nonpayable",
			"type": "function"
		},
		{
			"inputs": [],
			"name": "drawNumbers",
			"outputs": [],
			"stateMutability": "nonpayable",
			"type": "function"
		},
		{
			"inputs": [],
			"name": "emergencyWithdraw",
			"outputs": [],
			"stateMutability": "nonpayable",
			"type": "function"
		},
		{
			"inputs": [],
			"name": "fundPrizePool",
			"outputs": [],
			"stateMutability": "payable",
			"type": "function"
		},
		{
			"inputs": [
				{
					"internalType": "uint256",
					"name": "round",
					"type": "uint256"
				}
			],
			"name": "getAllTicketsForRound",
			"outputs": [
				{
					"internalType": "address[]",
					"name": "players",
					"type": "address[]"
				},
				{
					"internalType": "uint8[5][]",
					"name": "numbersList",
					"type": "uint8[5][]"
				}
			],
			"stateMutability": "view",
			"type": "function"
		},
		{
			"inputs": [
				{
					"internalType": "uint256",
					"name": "round",
					"type": "uint256"
				}
			],
			"name": "getMyTickets",
			"outputs": [
				{
					"internalType": "address[]",
					"name": "players",
					"type": "address[]"
				},
				{
					"internalType": "uint8[5][]",
					"name": "numbersList",
					"type": "uint8[5][]"
				}
			],
			"stateMutability": "view",
			"type": "function"
		},
		{
			"inputs": [],
			"name": "getPrizePoolInUSD",
			"outputs": [
				{
					"internalType": "uint256",
					"name": "",
					"type": "uint256"
				}
			],
			"stateMutability": "view",
			"type": "function"
		},
		{
			"inputs": [
				{
					"internalType": "uint256",
					"name": "round",
					"type": "uint256"
				}
			],
			"name": "getWinningAddresses",
			"outputs": [
				{
					"internalType": "address[]",
					"name": "winners3",
					"type": "address[]"
				},
				{
					"internalType": "address[]",
					"name": "winners4",
					"type": "address[]"
				},
				{
					"internalType": "address[]",
					"name": "winners5",
					"type": "address[]"
				}
			],
			"stateMutability": "view",
			"type": "function"
		},
		{
			"inputs": [
				{
					"internalType": "uint256",
					"name": "round",
					"type": "uint256"
				}
			],
			"name": "getWinningNumbers",
			"outputs": [
				{
					"internalType": "uint8[5]",
					"name": "",
					"type": "uint8[5]"
				}
			],
			"stateMutability": "view",
			"type": "function"
		},
		{
			"inputs": [],
			"name": "getusdTicketPriceInBNB",
			"outputs": [
				{
					"internalType": "uint256",
					"name": "",
					"type": "uint256"
				}
			],
			"stateMutability": "view",
			"type": "function"
		},
		{
			"inputs": [],
			"name": "lastDrawTime",
			"outputs": [
				{
					"internalType": "uint256",
					"name": "",
					"type": "uint256"
				}
			],
			"stateMutability": "view",
			"type": "function"
		},
		{
			"inputs": [],
			"name": "lastRequestId",
			"outputs": [
				{
					"internalType": "uint256",
					"name": "",
					"type": "uint256"
				}
			],
			"stateMutability": "view",
			"type": "function"
		},
		{
			"inputs": [],
			"name": "numWords",
			"outputs": [
				{
					"internalType": "uint32",
					"name": "",
					"type": "uint32"
				}
			],
			"stateMutability": "view",
			"type": "function"
		},
		{
			"inputs": [],
			"name": "owner",
			"outputs": [
				{
					"internalType": "address",
					"name": "",
					"type": "address"
				}
			],
			"stateMutability": "view",
			"type": "function"
		},
		{
			"inputs": [],
			"name": "pause",
			"outputs": [],
			"stateMutability": "nonpayable",
			"type": "function"
		},
		{
			"inputs": [],
			"name": "paused",
			"outputs": [
				{
					"internalType": "bool",
					"name": "",
					"type": "bool"
				}
			],
			"stateMutability": "view",
			"type": "function"
		},
		{
			"inputs": [],
			"name": "pendingDraw",
			"outputs": [
				{
					"internalType": "bool",
					"name": "",
					"type": "bool"
				}
			],
			"stateMutability": "view",
			"type": "function"
		},
		{
			"inputs": [
				{
					"internalType": "bytes",
					"name": "",
					"type": "bytes"
				}
			],
			"name": "performUpkeep",
			"outputs": [],
			"stateMutability": "nonpayable",
			"type": "function"
		},
		{
			"inputs": [
				{
					"internalType": "uint256",
					"name": "",
					"type": "uint256"
				},
				{
					"internalType": "address",
					"name": "",
					"type": "address"
				},
				{
					"internalType": "uint256",
					"name": "",
					"type": "uint256"
				}
			],
			"name": "playerTickets",
			"outputs": [
				{
					"internalType": "address",
					"name": "player",
					"type": "address"
				}
			],
			"stateMutability": "view",
			"type": "function"
		},
		{
			"inputs": [
				{
					"internalType": "uint256",
					"name": "requestId",
					"type": "uint256"
				},
				{
					"internalType": "uint256[]",
					"name": "randomWords",
					"type": "uint256[]"
				}
			],
			"name": "rawFulfillRandomWords",
			"outputs": [],
			"stateMutability": "nonpayable",
			"type": "function"
		},
		{
			"inputs": [],
			"name": "requestConfirmations",
			"outputs": [
				{
					"internalType": "uint16",
					"name": "",
					"type": "uint16"
				}
			],
			"stateMutability": "view",
			"type": "function"
		},
		{
			"inputs": [],
			"name": "roundInProgress",
			"outputs": [
				{
					"internalType": "uint256",
					"name": "",
					"type": "uint256"
				}
			],
			"stateMutability": "view",
			"type": "function"
		},
		{
			"inputs": [
				{
					"internalType": "uint256",
					"name": "",
					"type": "uint256"
				}
			],
			"name": "roundLocked",
			"outputs": [
				{
					"internalType": "bool",
					"name": "",
					"type": "bool"
				}
			],
			"stateMutability": "view",
			"type": "function"
		},
		{
			"inputs": [],
			"name": "s_keyHash",
			"outputs": [
				{
					"internalType": "bytes32",
					"name": "",
					"type": "bytes32"
				}
			],
			"stateMutability": "view",
			"type": "function"
		},
		{
			"inputs": [],
			"name": "s_subscriptionId",
			"outputs": [
				{
					"internalType": "uint256",
					"name": "",
					"type": "uint256"
				}
			],
			"stateMutability": "view",
			"type": "function"
		},
		{
			"inputs": [],
			"name": "s_vrfCoordinator",
			"outputs": [
				{
					"internalType": "contract IVRFCoordinatorV2Plus",
					"name": "",
					"type": "address"
				}
			],
			"stateMutability": "view",
			"type": "function"
		},
		{
			"inputs": [
				{
					"internalType": "address",
					"name": "_registry",
					"type": "address"
				}
			],
			"name": "setAutomationRegistry",
			"outputs": [],
			"stateMutability": "nonpayable",
			"type": "function"
		},
		{
			"inputs": [
				{
					"internalType": "uint32",
					"name": "_newLimit",
					"type": "uint32"
				}
			],
			"name": "setCallbackGasLimit",
			"outputs": [],
			"stateMutability": "nonpayable",
			"type": "function"
		},
		{
			"inputs": [
				{
					"internalType": "address",
					"name": "_vrfCoordinator",
					"type": "address"
				}
			],
			"name": "setCoordinator",
			"outputs": [],
			"stateMutability": "nonpayable",
			"type": "function"
		},
		{
			"inputs": [
				{
					"internalType": "bool",
					"name": "value",
					"type": "bool"
				}
			],
			"name": "setPendingDraw",
			"outputs": [],
			"stateMutability": "nonpayable",
			"type": "function"
		},
		{
			"inputs": [
				{
					"internalType": "uint256",
					"name": "newPrice",
					"type": "uint256"
				}
			],
			"name": "setUsdTicketPrice",
			"outputs": [],
			"stateMutability": "nonpayable",
			"type": "function"
		},
		{
			"inputs": [
				{
					"internalType": "bool",
					"name": "value",
					"type": "bool"
				}
			],
			"name": "setWinnersSubmitted",
			"outputs": [],
			"stateMutability": "nonpayable",
			"type": "function"
		},
		{
			"inputs": [
				{
					"internalType": "uint256",
					"name": "round",
					"type": "uint256"
				},
				{
					"internalType": "address[]",
					"name": "_winners3",
					"type": "address[]"
				},
				{
					"internalType": "address[]",
					"name": "_winners4",
					"type": "address[]"
				},
				{
					"internalType": "address[]",
					"name": "_winners5",
					"type": "address[]"
				}
			],
			"name": "submitWinners",
			"outputs": [],
			"stateMutability": "nonpayable",
			"type": "function"
		},
		{
			"inputs": [
				{
					"internalType": "uint256",
					"name": "",
					"type": "uint256"
				}
			],
			"name": "totalTicketsPerDraw",
			"outputs": [
				{
					"internalType": "uint256",
					"name": "",
					"type": "uint256"
				}
			],
			"stateMutability": "view",
			"type": "function"
		},
		{
			"inputs": [
				{
					"internalType": "address",
					"name": "to",
					"type": "address"
				}
			],
			"name": "transferOwnership",
			"outputs": [],
			"stateMutability": "nonpayable",
			"type": "function"
		},
		{
			"inputs": [
				{
					"internalType": "uint256",
					"name": "",
					"type": "uint256"
				}
			],
			"name": "uniqueParticipantsPerDraw",
			"outputs": [
				{
					"internalType": "uint256",
					"name": "",
					"type": "uint256"
				}
			],
			"stateMutability": "view",
			"type": "function"
		},
		{
			"inputs": [],
			"name": "unpause",
			"outputs": [],
			"stateMutability": "nonpayable",
			"type": "function"
		},
		{
			"inputs": [
				{
					"internalType": "address",
					"name": "_newFeed",
					"type": "address"
				}
			],
			"name": "updatePriceFeed",
			"outputs": [],
			"stateMutability": "nonpayable",
			"type": "function"
		},
		{
			"inputs": [
				{
					"internalType": "uint256",
					"name": "newSubId",
					"type": "uint256"
				}
			],
			"name": "updateSubscriptionId",
			"outputs": [],
			"stateMutability": "nonpayable",
			"type": "function"
		},
		{
			"inputs": [
				{
					"internalType": "address",
					"name": "_coordinator",
					"type": "address"
				},
				{
					"internalType": "bytes32",
					"name": "_keyHash",
					"type": "bytes32"
				}
			],
			"name": "updateVRFSettings",
			"outputs": [],
			"stateMutability": "nonpayable",
			"type": "function"
		},
		{
			"inputs": [],
			"name": "usdTicketPrice",
			"outputs": [
				{
					"internalType": "uint256",
					"name": "",
					"type": "uint256"
				}
			],
			"stateMutability": "view",
			"type": "function"
		},
		{
			"inputs": [],
			"name": "winnerSubmissionDeadline",
			"outputs": [
				{
					"internalType": "uint256",
					"name": "",
					"type": "uint256"
				}
			],
			"stateMutability": "view",
			"type": "function"
		},
		{
			"inputs": [],
			"name": "winnersSubmitted",
			"outputs": [
				{
					"internalType": "bool",
					"name": "",
					"type": "bool"
				}
			],
			"stateMutability": "view",
			"type": "function"
		}
	]
}